:020000040800F2
:10000000000003200D2C0008312B00083F2B0008B6
:10001000452B00084B2B0008512B00080000000066
:10002000000000000000000000000000572B000846
:10003000652B000800000000732B0008812B0008CE
:100040005D2C00085D2C00085D2C00085D2C00086C
:100050005D2C00085D2C00085D2C00085D2C00085C
:100060005D2C00085D2C00085D2C00085D2C00084C
:100070005D2C00085D2C00085D2C00085D2C00083C
:100080005D2C00085D2C00085D2C00085D2C00082C
:100090005D2C00085D2C00085D2C00085D2C00081C
:1000A0005D2C00085D2C00085D2C00085D2C00080C
:1000B0005D2C00085D2C00085D2C00085D2C0008FC
:1000C0005D2C00085D2C00085D2C00085D2C0008EC
:1000D0005D2C00085D2C00085D2C00085D2C0008DC
:1000E0005D2C00085D2C00085D2C00085D2C0008CC
:1000F0005D2C00085D2C00085D2C00085D2C0008BC
:100100005D2C00085D2C00085D2C00085D2C0008AB
:100110005D2C00085D2C00085D2C00085D2C00089B
:100120008D2B00085D2C00085D2C00085D2C00085C
:100130005D2C00085D2C00085D2C00085D2C00087B
:100140005D2C00085D2C00085D2C00085D2C00086B
:100150005D2C00085D2C00085D2C00085D2C00085B
:100160005D2C00085D2C00085D2C00085D2C00084B
:100170005D2C00085D2C00085D2C000800000000CC
:100180005D2C00085D2C00085D2C00085D2C00082B
:100190005D2C00085D2C00085D2C00085D2C00081B
:0C01A0005D2C00085D2C00085D2C0008A0
:1001AC0010B5054C237833B9044B13B10448AFF3A5
:1001BC0000800123237010BD0C0000200000000003
:1001CC00B82C000808B5034B1BB103490348AFF327
:1001DC00008008BD0000000010000020B82C0008B2
:1001EC0081F0004102E000BF83F0004330B54FEADC
:1001FC0041044FEA430594EA050F08BF90EA020F49
:10020C001FBF54EA000C55EA020C7FEA645C7FEADB
:10021C00655C00F0E2804FEA5454D4EB5555B8BFFE
:10022C006D420CDD2C4480EA020281EA030382EA6F
:10023C00000083EA010180EA020281EA0303362D01
:10024C0088BF30BD11F0004F4FEA01314FF4801CD4
:10025C004CEA113102D0404261EB410113F0004FE6
:10026C004FEA03334CEA133302D0524263EB43039D
:10027C0094EA050F00F0A780A4F10104D5F1200E3B
:10028C000DDB02FA0EFC22FA05F2801841F1000196
:10029C0003FA0EF2801843FA05F359410EE0A5F16A
:1002AC0020050EF1200E012A03FA0EFC28BF4CF09B
:1002BC00020C43FA05F3C01851EBE37101F0004551
:1002CC0007D54FF0000EDCF1000C7EEB00006EEB5E
:1002DC000101B1F5801F1BD3B1F5001F0CD34908E8
:1002EC005FEA30004FEA3C0C04F101044FEA44523F
:1002FC0012F5800F80F09A80BCF1004F08BF5FEAC6
:10030C00500C50F1000041EB045141EA050130BDA5
:10031C005FEA4C0C404141EB010111F4801FA4F148
:10032C000104E9D191F0000F04BF01460020B1FA9D
:10033C0081F308BF2033A3F10B03B3F120020CDAD5
:10034C000C3208DD02F1140CC2F10C0201FA0CF0B3
:10035C0021FA02F10CE002F11402D8BFC2F1200C18
:10036C0001FA02F120FA0CFCDCBF41EA0C019040CE
:10037C00E41AA2BF01EB0451294330BD6FEA040417
:10038C001F3C1CDA0C340EDC04F11404C4F1200202
:10039C0020FA04F001FA02F340EA030021FA04F314
:1003AC0045EA030130BDC4F10C04C4F1200220FA6B
:1003BC0002F001FA04F340EA0300294630BD21FAA9
:1003CC0004F0294630BD94F0000F83F4801306BF6F
:1003DC0081F480110134013D4EE77FEA645C18BF63
:1003EC007FEA655C29D094EA050F08BF90EA020FFA
:1003FC0005D054EA000C04BF1946104630BD91EAF2
:10040C00030F1EBF0021002030BD5FEA545C05D1F4
:10041C004000494128BF41F0004130BD14F5800433
:10042C003CBF01F5801130BD01F0004545F0FE41A7
:10043C0041F470014FF0000030BD7FEA645C1ABFDC
:10044C00194610467FEA655C1CBF0B46024650EA13
:10045C00013406BF52EA033591EA030F41F400213F
:10046C0030BD00BF90F0000F04BF0021704730B5C5
:10047C004FF4806404F132044FF000054FF000019A
:10048C0050E700BF90F0000F04BF0021704730B55B
:10049C004FF4806404F1320410F0004548BF404230
:1004AC004FF000013EE700BF42004FEAE2014FEA85
:1004BC0031014FEA02701FBF12F07F4393F07F4F60
:1004CC0081F06051704732F07F4208BF704793F063
:1004DC007F4F04BF41F40021704730B54FF4607476
:1004EC0001F0004521F000411CE700BF50EA010279
:1004FC0008BF704730B54FF000050AE050EA010222
:10050C0008BF704730B511F0004502D5404261EB91
:10051C0041014FF4806404F132045FEA915C3FF4D2
:10052C00D8AE4FF003025FEADC0C18BF03325FEA6F
:10053C00DC0C18BF033202EBDC02C2F1200300FA20
:10054C0003FC20FA02F001FA03FE40EA0E0021FA45
:10055C0002F11444BDE600BF53B94AB9002908BFE3
:10056C0000281CBF4FF0FF314FF0FF3000F072B984
:10057C00ADF1080C6DE904CE00F006F8DDF804E0EE
:10058C00DDE9022304B070472DE9F047089E0446CC
:10059C008846002B4BD18A42154667D9B2FA82F2B3
:1005AC004AB1C2F1200701FA02F320FA07F795408D
:1005BC0047EA030894404FEA154E230CB8FBFEF7AC
:1005CC001FFA85FC0EFB178843EA084307FB0CF166
:1005DC00994209D9EB1807F1FF3080F01B81994241
:1005EC0040F21881023F2B445B1AA4B2B3FBFEF01D
:1005FC000EFB103344EA034400FB0CFCA44509D960
:10060C002C1900F1FF3380F00781A44540F20481DE
:10061C0002382C4440EA0740A4EB0C0400271EB11E
:10062C00D4400023C6E900433946BDE8F0878B422D
:10063C0009D9002E00F0EB800027C6E900013846EE
:10064C003946BDE8F087B3FA83F7002F47D18B42C8
:10065C0002D3824200F2FA80841A61EB0303012078
:10066C009846002EE0D0C6E90048DDE702B9FFDE6F
:10067C00B2FA82F2002A40F08F80491B4FEA154EE5
:10068C001FFA85F80127B1FBFEFC230C0EFB1C1195
:10069C0043EA014308FB0CF1994207D9EB180CF122
:1006AC00FF3002D2994200F2CD808446591AA3B28F
:1006BC00B1FBFEF00EFB101443EA044408FB00F8F7
:1006CC00A04507D92C1900F1FF3302D2A04500F246
:1006DC00B6801846A4EB080440EA0C409FE7C7F12B
:1006EC00200CBB4022FA0CFE4EEA030E01FA07F472
:1006FC0020FA0CF521FA0CF34FEA1E482543B3FB04
:10070C00F8F92C0C08FB19331FFA8EFA44EA034350
:10071C0009FB0AF49C4202FA07F200FA07F10BD922
:10072C001EEB030309F1FF3080F087809C4240F2FE
:10073C008480A9F1020973441B1BADB2B3FBF8F022
:10074C0008FB103345EA034400FB0AFAA24508D91A
:10075C001EEB040400F1FF336BD2A24569D90238B9
:10076C00744440EA0940A0FB0289A4EB0A044C45FE
:10077C00C2464B4654D351D0002E69D0B1EB0A057A
:10078C0064EB030404FA0CFCFD40FC404CEA050548
:10079C00C6E90054002747E7C2F1200320FA03F70B
:1007AC00954001FA02F021FA03F34FEA154E384353
:1007BC00010CB3FBFEF71FFA85F80EFB173341EA69
:1007CC00034107FB08F38B4204FA02F407D96918BA
:1007DC0007F1FF3C2FD28B422DD9023F2944CB1A73
:1007EC0081B2B3FBFEF00EFB103341EA034100FB78
:1007FC0008F38B4207D9691800F1FF3C17D28B42E2
:10080C0015D902382944C91A40EA07473BE737464D
:10081C00304609E70746E7E61846FBE64145ABD20A
:10082C00B8EB020A69EB0E0201381346A4E76046E6
:10083C00E9E7184695E76746D1E781467CE7023839
:10084C002C4447E7ACF1020C2B442FE7384608E761
:10085C003746E9E6704700BF80B500AF0E4B1B680A
:10086C000D4A43F4007313600B4B1B680A4A43F4A4
:10087C0080631360084B1B68074A43F48073136052
:10088C00032000F06FFD002000F008F802F0AAF839
:10089C000023184680BD00BF003C024080B582B0EA
:1008AC0000AF7860124B1A68124B1B7819464FF444
:1008BC007A73B3FBF1F3B2FBF3F3184600F087FD48
:1008CC000346002B01D001230EE07B680F2B0AD8C6
:1008DC00002279684FF0FF3000F04FFD064A7B682C
:1008EC001360002300E0012318460837BD4680BD85
:1008FC0008000020040000200000002080B400AF9D
:10090C00064B1B781A46064B1B681344044A1360AB
:10091C0000BFBD465DF8047B704700BF040000209B
:10092C002800002080B400AF034B1B681846BD465E
:10093C005DF8047B704700BF2800002080B584B0B0
:10094C0000AF78600023FB737B68002B01D101237F
:10095C0033E07B681B6C002B09D17B6800225A6446
:10096C007B68002283F83C20786802F063F87B688F
:10097C001B6C03F01003002B18D17B681B6C23F449
:10098C00885323F0020343F002027B681A647868F0
:10099C0000F0AAFA7B6800225A647B681B6C23F077
:1009AC00030343F001027B681A6401E00123FB732B
:1009BC007B68002283F83C20FB7B18461037BD4631
:1009CC0080BD80B584B000AF786039600023FB60D7
:1009DC007B681B689B6803F48063002B12D07B68D8
:1009EC001B689B6803F48073002B0BD07B681B6C1B
:1009FC0043F020027B681A647B68002283F83C2059
:100A0C0001235CE0FFF78EFFF8601AE03B68B3F15E
:100A1C00FF3F16D03B68002B07D0FFF783FF024641
:100A2C00FB68D31A3A689A420BD27B681B6C43F072
:100A3C0004027B681A647B68002283F83C20032341
:100A4C003DE07B681B681B6803F00203022BDDD1C1
:100A5C007B681B686FF012021A607B681B6C43F496
:100A6C0000727B681A647B681B689B6803F04053B8
:100A7C00002B23D17B689B69002B1FD17B681B68E3
:100A8C00DB6A03F47003002B06D07B681B689B6841
:100A9C0003F48063002B11D17B681B6C23F48072F0
:100AAC007B681A647B681B6C03F48053002B05D1A4
:100ABC007B681B6C43F001027B681A6400231846A8
:100ACC001037BD4680BD000080B586B000AFF86021
:100ADC00B9607A6000233B61FB6893F83C30012BD2
:100AEC0001D10223B0E0FB68012283F83C20FB68B3
:100AFC001B689B6803F00103012B18D0FB681B6873
:100B0C009A68FB681B6842F001029A60504B1B68A4
:100B1C00504AA2FB03239A0C13465B0013443B611F
:100B2C0002E03B69013B3B613B69002BF9D1FB685F
:100B3C001B689B6803F00103002B00F08480FB68AA
:100B4C001B6C23F4E06323F0010343F48072FB6815
:100B5C001A64FB681B685B6803F48063002B07D086
:100B6C00FB681B6C23F4405343F48052FB681A64FB
:100B7C00FB681B6C03F48053002B06D0FB685B6C8A
:100B8C0023F00602FB685A6402E0FB6800225A64F8
:100B9C00FB68002283F83C202F4B7B61FB689B6B2E
:100BAC002E4ADA63FB689B6B2D4A1A64FB689B6BBD
:100BBC002C4ADA64FB681B686FF022021A60FB682F
:100BCC001B685A68FB681B6842F080625A60FB68BD
:100BDC001B689A68FB681B6842F480729A60FB6819
:100BEC00986BFB681B684C331946BA687B6800F03D
:100BFC00A9FC7B695B6803F01F03002B0FD1FB681A
:100C0C001B689B6803F04053002B1CD1FB681B68CE
:100C1C009A68FB681B6842F080429A6013E0FB689C
:100C2C001B68114A93420ED1FB681B689B6803F04A
:100C3C004053002B07D1FB681B689A68FB681B6844
:100C4C0042F080429A60002318461837BD4680BD9A
:100C5C000800002083DE1B4300230140E91000083C
:100C6C008F110008AB1100080020014080B483B044
:100C7C0000AF78607B681B68DB6C18460C37BD4690
:100C8C005DF8047B704780B483B000AF786000BF20
:100C9C000C37BD465DF8047B7047000080B485B00E
:100CAC0000AF786039600023BB607B6893F83C3000
:100CBC00012B01D1022307E17B68012283F83C2040
:100CCC003B681B68092B25D97B681B68D9683B6876
:100CDC001B689BB21A4613465B0013441E3B07224B
:100CEC0002FA03F3DA437B681B680A40DA607B681C
:100CFC001B68D9683B689A683B681B689BB21846AE
:100D0C0003465B0003441E3B9A407B681B680A4306
:100D1C00DA6022E07B681B6819693B681B689BB230
:100D2C001A4613465B001344072202FA03F3DA4314
:100D3C007B681B680A401A617B681B6819693B68F1
:100D4C009A683B681B689BB2184603465B000344D9
:100D5C009A407B681B680A431A613B685B68062BE8
:100D6C0024D87B681B68596B3B685A6813469B00F8
:100D7C001344053B1F2202FA03F3DA437B681B681A
:100D8C000A405A637B681B68596B3B681B689BB2B3
:100D9C0018463B685A6813469B001344053B00FAFF
:100DAC0003F27B681B680A435A634CE03B685B6840
:100DBC000C2B24D87B681B68196B3B685A6813464C
:100DCC009B001344233B1F2202FA03F3DA437B6894
:100DDC001B680A401A637B681B68196B3B681B68AD
:100DEC009BB218463B685A6813469B001344233B3E
:100DFC0000FA03F27B681B680A431A6323E07B68E2
:100E0C001B68D96A3B685A6813469B001344413BE4
:100E1C001F2202FA03F3DA437B681B680A40DA628A
:100E2C007B681B68D96A3B681B689BB218463B6899
:100E3C005A6813469B001344413B00FA03F27B684B
:100E4C001B680A43DA62234BFB607B681B68224AEF
:100E5C00934209D13B681B68122B05D1FB685B6878
:100E6C0043F48002FB685A607B681B681A4A934201
:100E7C0025D13B681B68194A934203D03B681B6819
:100E8C00112B1CD1FB685B6843F40002FB685A60B1
:100E9C003B681B68114A934211D1114B1B68114AD4
:100EAC00A2FB03239A0C13469B0013445B00BB600C
:100EBC0002E0BB68013BBB60BB68002BF9D17B68CF
:100ECC00002283F83C20002318461437BD465DF8F9
:100EDC00047B7047002301400020014012000010E9
:100EEC000800002083DE1B4380B485B000AF78601F
:100EFC00784BFB60FB685B6823F44032FB685A60FC
:100F0C00FB685A687B685B681A43FB685A607B68AD
:100F1C001B685A687B681B6822F480725A607B6875
:100F2C001B6859687B681B691A027B681B680A433B
:100F3C005A607B681B685A687B681B6822F0407299
:100F4C005A607B681B6859687B689A687B681B6869
:100F5C000A435A607B681B689A687B681B6822F49A
:100F6C0000629A607B681B6899687B68DA687B68AA
:100F7C001B680A439A607B689B6A574A934222D04B
:100F8C007B681B689A687B681B6822F070629A60A9
:100F9C007B681B6899687B689A6A7B681B680A4344
:100FAC009A607B681B689A687B681B6822F04052C9
:100FBC009A607B681B6899687B68DA6A7B681B6837
:100FCC000A439A600FE07B681B689A687B681B6811
:100FDC0022F070629A607B681B689A687B681B6859
:100FEC0022F040529A607B681B689A687B681B6889
:100FFC0022F002029A607B681B6899687B689B6987
:10100C005A007B681B680A439A607B681B6A002B3A
:10101C001BD07B681B685A687B681B6842F40062B3
:10102C005A607B681B685A687B681B6822F46042B4
:10103C005A607B681B6859687B685B6A013B5A0382
:10104C007B681B680A435A6007E07B681B685A6818
:10105C007B681B6822F400625A607B681B68DA6A42
:10106C007B681B6822F47002DA627B681B68D96AA1
:10107C007B68DB69013B1A057B681B680A43DA62F3
:10108C007B681B689A687B681B6822F400729A6004
:10109C007B681B6899687B681B6B5A027B681B68B2
:1010AC000A439A607B681B689A687B681B6822F409
:1010BC0080629A607B681B6899687B685B699A029E
:1010CC007B681B680A439A6000BF1437BD465DF805
:1010DC00047B7047002301400100000F80B584B0F1
:1010EC0000AF78607B689B6BFB60FB681B6C03F04C
:1010FC005003002B3CD1FB681B6C43F40072FB6863
:10110C001A64FB681B689B6803F04053002B2BD1BF
:10111C00FB689B69002B27D1FB681B68DB6A03F417
:10112C007003002B06D0FB681B689B6803F480637C
:10113C00002B19D1FB681B685A68FB681B6822F0EE
:10114C0020025A60FB681B6C23F48072FB681A64E3
:10115C00FB681B6C03F48053002B05D1FB681B6CE4
:10116C0043F00102FB681A64F86801F085FA04E0A8
:10117C00FB689B6BDB6C7868984700BF1037BD46EB
:10118C0080BD80B584B000AF78607B689B6BFB60E2
:10119C00F86801F093FA00BF1037BD4680BD80B5EA
:1011AC0084B000AF78607B689B6BFB60FB6840226F
:1011BC001A64FB685B6C43F00402FB685A64F868C1
:1011CC00FFF761FD00BF1037BD4680BD80B485B010
:1011DC0000AF78607B6803F00703FB600C4BDB68A7
:1011EC00BB60BA684FF6FF031340BB60FB681A0282
:1011FC00BB68134343F0BF6343F40033BB60044A42
:10120C00BB68D36000BF1437BD465DF8047B7047E4
:10121C0000ED00E080B400AF044BDB681B0A03F068
:10122C0007031846BD465DF8047B704700ED00E0EF
:10123C0080B483B000AF0346FB71FB7903F01F024F
:10124C00074997F907305B09012000FA02F241F8CF
:10125C00232000BF0C37BD465DF8047B704700BFF0
:10126C0000E100E080B483B000AF03463960FB714D
:10127C0097F90730002B0BDA3B68DAB20C49FB7993
:10128C0003F00F03043B1201D2B20B441A7609E0AF
:10129C003B68DAB2074997F907301201D2B20B4416
:1012AC0083F8002300BF0C37BD465DF8047B704704
:1012BC0000ED00E000E100E080B489B000AFF86020
:1012CC00B9607A60FB6803F00703FB61FB69C3F14B
:1012DC000703042B28BF0423BB61FB690433062BD3
:1012EC0002D9FB69033B00E000237B614FF0FF3226
:1012FC00BB6902FA03F3DA43BB681A407B699A4074
:10130C004FF0FF317B6901FA03F3D9437B680B4043
:10131C00134318462437BD465DF8047B7047000024
:10132C0080B582B000AF78607B68013BB3F1807F01
:10133C0001D301230FE00A4A7B68013B53600F2164
:10134C004FF0FF30FFF78EFF054B00229A60044BE5
:10135C0007221A60002318460837BD4680BD00BF1F
:10136C0010E000E080B582B000AF78607868FFF7DD
:10137C002DFF00BF0837BD4680BD80B586B000AFDD
:10138C000346B9607A60FB7300237B61FFF742FF71
:10139C0078617A68B9687869FFF78EFF024697F929
:1013AC000F3011461846FFF75DFF00BF1837BD46DA
:1013BC0080BD80B582B000AF0346FB7197F9073052
:1013CC001846FFF735FF00BF0837BD4680BD80B516
:1013DC0082B000AF78607868FFF7A2FF034618462A
:1013EC000837BD4680BD000080B586B000AF786080
:1013FC0000237B61FFF796FA38617B68002B01D1E3
:10140C00012399E07B68002283F834207B68022258
:10141C0083F835207B681B681A687B681B6822F090
:10142C0001021A600FE0FFF77DFA02463B69D31AFE
:10143C00052B08D97B6820225A657B68032283F828
:10144C003520032378E07B681B681B6803F00103DD
:10145C00002BE8D17B681B681B687B617A69384B71
:10146C0013407B617B685A687B689B681A437B6876
:10147C00DB681A437B681B691A437B685B691A43F8
:10148C007B689B691A437B68DB691A437B681B6A20
:10149C0013437A6913437B617B685B6A042B07D126
:1014AC007B68DA6A7B681B6B13437A6913437B6135
:1014BC007B681B687A691A607B681B685B697B6157
:1014CC007B6923F007037B617B685B6A7A69134352
:1014DC007B617B685B6A042B17D17B689B6A7A699A
:1014EC0013437B617B68DB6A002B0ED0786800F0BD
:1014FC0077FA0346002B08D07B6840225A657B683C
:10150C00012283F83520012316E07B681B687A6979
:10151C005A61786800F02EFA0346FB607B68DB6D3D
:10152C003F229A40FB689A607B6800225A657B6870
:10153C00012283F83520002318461837BD4680BD9C
:10154C003F8010F080B586B000AFF860B9607A606B
:10155C003B600023FB75FB689B6D3B61FB6893F85C
:10156C003430012B01D1022348E0FB68012283F8BF
:10157C003420FB6893F83530DBB2012B37D1FB6894
:10158C00022283F83520FB6800225A653B687A6892
:10159C00B968F86800F0C0F9FB68DB6D3F229A402F
:1015AC003B699A60FB681B681A68FB681B6842F011
:1015BC0016021A60FB681B685A69FB681B6842F0CC
:1015CC0080025A61FB681B6C002B07D0FB681B6800
:1015DC001A68FB681B6842F008021A60FB681B68FB
:1015EC001A68FB681B6842F001021A6005E0FB6890
:1015FC00002283F834200223FB75FB7D1846183734
:10160C00BD4680BD80B586B000AF78600023BB605E
:10161C00924B1B68924AA2FB03239B0A7B617B685B
:10162C009B6D3B613B691B68FB607B68DB6D082233
:10163C009A40FB681340002B1AD07B681B681B6810
:10164C0003F00403002B13D07B681B681A687B68BB
:10165C001B6822F004021A607B68DB6D08229A403A
:10166C003B699A607B685B6D43F001027B685A654D
:10167C007B68DB6D01229A40FB681340002B12D073
:10168C007B681B685B6903F08003002B0BD07B68C5
:10169C00DB6D01229A403B699A607B685B6D43F07D
:1016AC0002027B685A657B68DB6D04229A40FB68FA
:1016BC001340002B12D07B681B681B6803F00203DD
:1016CC00002B0BD07B68DB6D04229A403B699A603F
:1016DC007B685B6D43F004027B685A657B68DB6D4D
:1016EC0010229A40FB681340002B43D07B681B6888
:1016FC001B6803F00803002B3CD07B68DB6D1022C9
:10170C009A403B699A607B681B681B6803F48023D2
:10171C00002B18D07B681B681B6803F40023002B7C
:10172C0008D17B681B6C002B24D07B681B6C786801
:10173C0098471FE07B689B6C002B1BD07B689B6CD5
:10174C007868984716E07B681B681B6803F4807305
:10175C00002B07D17B681B681A687B681B6822F01A
:10176C0008021A607B681B6C002B03D07B681B6C17
:10177C00786898477B68DB6D20229A40FB681340A1
:10178C00002B00F08E807B681B681B6803F0100335
:10179C00002B00F086807B68DB6D20229A403B6931
:1017AC009A607B6893F83530DBB2052B36D17B68B9
:1017BC001B681A687B681B6822F016021A607B682B
:1017CC001B685A697B681B6822F080025A617B682F
:1017DC001B6C002B03D17B689B6C002B07D07B68A8
:1017EC001B681A687B681B6822F008021A607B6809
:1017FC00DB6D3F229A403B699A607B68002283F83C
:10180C0034207B68012283F835207B681B6D002B0C
:10181C007DD07B681B6D7868984778E07B681B6887
:10182C001B6803F48023002B1CD07B681B681B688F
:10183C0003F40023002B08D17B685B6C002B30D0A9
:10184C007B685B6C786898472BE07B68DB6B002BC4
:10185C0027D07B68DB6B7868984722E00800002073
:10186C00B5814E1B7B681B681B6803F48073002BCF
:10187C000FD17B681B681A687B681B6822F010020A
:10188C001A607B68002283F834207B68012283F87D
:10189C0035207B68DB6B002B03D07B68DB6B7868B7
:1018AC0098477B685B6D002B32D07B685B6D03F0D7
:1018BC000103002B22D07B68052283F835207B683E
:1018CC001B681A687B681B6822F001021A60BB68EF
:1018DC000133BB607A699A4207D37B681B681B682B
:1018EC0003F00103002BF2D100E000BF7B68002263
:1018FC0083F834207B68012283F835207B68DB6C0D
:10190C00002B05D07B68DB6C7868984700E000BF43
:10191C001837BD4680BD00BF80B485B000AFF860FD
:10192C00B9607A603B60FB681B681A68FB681B68CF
:10193C0022F480221A60FB681B683A685A60FB68C4
:10194C009B68402B08D1FB681B687A689A60FB681F
:10195C001B68BA68DA6007E0FB681B68BA689A60B3
:10196C00FB681B687A68DA6000BF1437BD465DF807
:10197C00047B704780B485B000AF78607B681B68CF
:10198C00DBB2103B144AA2FB03231B09FB60134A76
:10199C00FB6813441B781A467B68DA65FB68032BDB
:1019AC0009D97B681B6823F47F7323F003031A1D8A
:1019BC007B689A6507E07B681B6823F47F7323F0D0
:1019CC0003037A6893657B689B6D18461437BD4694
:1019DC005DF8047B704700BFABAAAAAAD02C000804
:1019EC0080B485B000AF78600023FB737B689B6A82
:1019FC00BB607B689B69002B1FD1BB68032B55D840
:101A0C0001A252F823F000BF251A0008371A00086B
:101A1C00251A0008B91A00087B68DB6A03F080738A
:101A2C00002B45D00123FB7342E07B68DB6AB3F1EA
:101A3C00C07F3FD10123FB733CE07B689B69B3F50E
:101A4C00005F21D1BB68032B36D801A252F823F0DA
:101A5C006D1A0008731A00086D1A0008851A000820
:101A6C000123FB732FE07B68DB6A03F08073002B90
:101A7C0024D00123FB7321E07B68DB6AB3F1C07FC8
:101A8C001ED10123FB731BE0BB68022B02D9032B75
:101A9C0003D018E00123FB7315E07B68DB6A03F0CD
:101AAC008073002B0ED00123FB730BE000BF0AE008
:101ABC0000BF08E000BF06E000BF04E000BF02E08A
:101ACC0000BF00E000BFFB7B18461437BD465DF835
:101ADC00047B704780B489B000AF78603960002314
:101AEC007B6100233B610023BB610023FB6177E139
:101AFC000122FB6902FA03F37B613B681B687A697C
:101B0C0013403B613A697B699A4240F066813B68BD
:101B1C005B68022B03D03B685B68122B23D1FB69FB
:101B2C00DA087B68083253F82230BB61FB6903F09A
:101B3C0007039B000F2202FA03F3DB43BA6913403D
:101B4C00BB613B681A69FB6903F007039B0002FA4F
:101B5C0003F3BA691343BB61FB69DA087B6808328B
:101B6C00B96943F822107B681B68BB61FB695B0099
:101B7C00032202FA03F3DB43BA691340BB613B68EF
:101B8C005B6803F00302FB695B0002FA03F3BA69BA
:101B9C001343BB617B68BA691A603B685B68012BB5
:101BAC000BD03B685B68022B07D03B685B68112B42
:101BBC0003D03B685B68122B30D17B689B68BB61A0
:101BCC00FB695B00032202FA03F3DB43BA6913409F
:101BDC00BB613B68DA68FB695B0002FA03F3BA6924
:101BEC001343BB617B68BA699A607B685B68BB61B5
:101BFC000122FB6902FA03F3DB43BA691340BB61B0
:101C0C003B685B681B0903F00102FB6902FA03F3F2
:101C1C00BA691343BB617B68BA695A607B68DB683D
:101C2C00BB61FB695B00032202FA03F3DB43BA6975
:101C3C001340BB613B689A68FB695B0002FA03F3D3
:101C4C00BA691343BB617B68BA69DA603B685B684D
:101C5C0003F08053002B00F0C0800023FB60654B29
:101C6C005B6C644A43F480435364624B5B6C03F4D7
:101C7C008043FB60FB68604AFB699B08023352F8A7
:101C8C002330BB61FB6903F003039B000F2202FAB4
:101C9C0003F3DB43BA691340BB617B68574A934239
:101CAC0037D07B68564A934231D07B68554A934271
:101CBC002BD07B68544A934225D07B68534A93427D
:101CCC001FD07B68524A934219D07B68514A934289
:101CDC0013D07B68504A93420DD07B684F4A934295
:101CEC0007D07B684E4A934201D1092312E00A23A4
:101CFC0010E008230EE007230CE006230AE005237E
:101D0C0008E0042306E0032304E0022302E001239D
:101D1C0000E00023FA6902F0030292009340BA69D2
:101D2C001343BB613449FB699B080233BA6941F820
:101D3C0023203C4B1B68BB613B69DB43BA691340F6
:101D4C00BB613B685B6803F48033002B03D0BA693A
:101D5C003B691343BB61334ABB691360314B5B680E
:101D6C00BB613B69DB43BA691340BB613B685B6891
:101D7C0003F40033002B03D0BA693B691343BB61F6
:101D8C00284ABB695360274B9B68BB613B69DB43AB
:101D9C00BA691340BB613B685B6803F48013002B8A
:101DAC0003D0BA693B691343BB611E4ABB6993609C
:101DBC001C4BDB68BB613B69DB43BA691340BB61FD
:101DCC003B685B6803F40013002B03D0BA693B69D2
:101DDC001343BB61134ABB69D360FB690133FB61DD
:101DEC00FB690F2B7FF684AE00BF2437BD465DF830
:101DFC00047B70470038024000380140000002406C
:101E0C000004024000080240000C02400010024096
:101E1C000014024000180240001C02400020024046
:101E2C0000240240003C014080B483B000AF7860D5
:101E3C000B467B8013467B707B78002B03D07A8813
:101E4C007B689A6103E07B881A047B689A6100BF07
:101E5C000C37BD465DF8047B704780B483B000AF8F
:101E6C0078600B467B807B685A697B885A407B681C
:101E7C005A6100BF0C37BD465DF8047B704700000B
:101E8C0080B586B000AF78607B68002B01D1012350
:101E9C002DE27B681B6803F00103002B75D0A34B6C
:101EAC009B6803F00C03042B0CD0A04B9B6803F035
:101EBC000C03082B12D19D4B5B6803F48003B3F524
:101ECC00800F0BD1994B1B6803F40033002B5BD0B4
:101EDC007B685B68002B57D1012308E27B685B6849
:101EEC00B3F5803F06D1914B1B68904A43F4803385
:101EFC0013601DE07B685B68B3F5A02F0CD18B4B96
:101F0C001B688A4A43F480231360884B1B68874AFA
:101F1C0043F4803313600BE0844B1B68834A23F437
:101F2C0080331360814B1B68804A23F48023136039
:101F3C007B685B68002B13D0FEF7F4FC386108E07B
:101F4C00FEF7F0FC02463B69D31A642B01D903233C
:101F5C00CDE1764B1B6803F40033002BF0D014E07A
:101F6C00FEF7E0FC386108E0FEF7DCFC02463B695A
:101F7C00D31A642B01D90323B9E16C4B1B6803F40E
:101F8C000033002BF0D100E000BF7B681B6803F02E
:101F9C000203002B63D0654B9B6803F00C03002BF2
:101FAC000BD0624B9B6803F00C03082B1CD15F4BCE
:101FBC005B6803F48003002B16D15C4B1B6803F0A9
:101FCC000203002B05D07B68DB68012B01D00123B9
:101FDC008DE1564B1B6823F0F8027B681B69DB0014
:101FEC00524913430B603AE07B68DB68002B20D02E
:101FFC004F4B01221A60FEF795FC386108E0FEF7A2
:10200C0091FC02463B69D31A022B01D903236EE1E2
:10201C00464B1B6803F00203002BF0D0434B1B68AC
:10202C0023F0F8027B681B69DB00404913430B600B
:10203C0015E03F4B00221A60FEF774FC386108E093
:10204C00FEF770FC02463B69D31A022B01D903231D
:10205C004DE1364B1B6803F00203002BF0D17B687B
:10206C001B6803F00803002B30D07B685B69002BE6
:10207C0016D0304B01221A60FEF754FC386108E090
:10208C00FEF750FC02463B69D31A022B01D90323FD
:10209C002DE1264B5B6F03F00203002BF0D015E013
:1020AC00244B00221A60FEF73DFC386108E0FEF775
:1020BC0039FC02463B69D31A022B01D9032316E1E2
:1020CC001A4B5B6F03F00203002BF0D17B681B688B
:1020DC0003F00403002B00F0A0800023FB75134BCE
:1020EC001B6C03F08053002B0FD10023FB600F4BB4
:1020FC001B6C0E4A43F0805313640C4B1B6C03F0A7
:10210C008053FB60FB680123FB750B4B1B6803F4CE
:10211C008073002B21D1084B1B68074A43F4807352
:10212C001360FEF7FFFB386111E000BF003802407E
:10213C0000004742800E474200700040FEF7F2FB61
:10214C0002463B69D31A022B01D90323CFE06A4B19
:10215C001B6803F48073002BF0D07B689B68012B09
:10216C0006D1664B1B6F654A43F0010313671CE0F5
:10217C007B689B68052B0CD1604B1B6F5F4A43F04F
:10218C00040313675D4B1B6F5C4A43F00103136739
:10219C000BE05A4B1B6F594A23F001031367574B43
:1021AC001B6F564A23F0040313677B689B68002B54
:1021BC0015D0FEF7B7FB38610AE0FEF7B3FB024619
:1021CC003B69D31A41F28832934201D903238EE042
:1021DC004A4B1B6F03F00203002BEED014E0FEF70A
:1021EC00A1FB38610AE0FEF79DFB02463B69D31A5E
:1021FC0041F28832934201D9032378E03F4B1B6FA5
:10220C0003F00203002BEED1FB7D012B05D13B4BE0
:10221C001B6C3A4A23F0805313647B689B69002B38
:10222C0064D0364B9B6803F00C03082B5CD07B68A6
:10223C009B69022B41D1324B00221A60FEF772FBD4
:10224C00386108E0FEF76EFB02463B69D31A022B9D
:10225C0001D903234BE0294B1B6803F00073002BBF
:10226C00F0D17B68DA697B681B6A1A437B685B6A0E
:10227C009B011A437B689B6A5B08013B1B041A4356
:10228C007B68DB6A1B061D4913434B601C4B012208
:10229C001A60FEF747FB386108E0FEF743FB024685
:1022AC003B69D31A022B01D9032320E0134B1B6883
:1022BC0003F00073002BF0D018E0114B00221A60D1
:1022CC00FEF730FB386108E0FEF72CFB02463B6959
:1022DC00D31A022B01D9032309E0084B1B6803F026
:1022EC000073002BF0D101E0012300E0002318461D
:1022FC001837BD4680BD00BF00700040003802405A
:10230C006000474280B584B000AF786039607B686C
:10231C00002B01D10123CAE0674B1B6803F00F03AC
:10232C003A689A420CD9644B3A68D2B21A70624B32
:10233C001B6803F00F033A689A4201D00123B6E000
:10234C007B681B6803F00203002B20D07B681B68A2
:10235C0003F00403002B05D0584B9B68574A43F4F9
:10236C00E05393607B681B6803F00803002B05D0D7
:10237C00524B9B68514A43F4604393604F4B9B68AC
:10238C0023F0F0027B689B684C4913438B607B689D
:10239C001B6803F00103002B44D07B685B68012BA6
:1023AC0007D1464B1B6803F40033002B19D10123D2
:1023BC007DE07B685B68022B03D07B685B68032B3A
:1023CC0007D13E4B1B6803F00073002B09D101238E
:1023DC006DE03A4B1B6803F00203002B01D1012383
:1023EC0065E0364B9B6823F003027B685B683349DE
:1023FC0013438B60FEF796FAF8600AE0FEF792FA48
:10240C000246FB68D31A41F28832934201D9032366
:10241C004DE02A4B9B6803F00C027B685B689B00C9
:10242C009A42EBD1244B1B6803F00F033A689A4293
:10243C000CD2214B3A68D2B21A701F4B1B6803F0B6
:10244C000F033A689A4201D0012330E07B681B6885
:10245C0003F00403002B08D0184B9B6823F4E052C4
:10246C007B68DB68154913438B607B681B6803F042
:10247C000803002B09D0114B9B6823F460427B6846
:10248C001B69DB000D4913438B6000F01DF80146FE
:10249C000A4B9B681B0903F00F03094AD35C21FA12
:1024AC0003F3084A13600020FEF7F8F900231846DE
:1024BC001037BD4680BD00BF003C024000380240D2
:1024CC00D82C000808000020F0B585B000AF002320
:1024DC007B600023FB6000233B600023BB60634BED
:1024EC009B6803F00C03042B07D0082B08D0002B9F
:1024FC0040F0B4805E4BBB60B3E05E4BBB60B0E0C1
:10250C005A4B5B6803F03F037B60584B5B6803F4EA
:10251C008003002B4AD0554B5B689B094FF000049D
:10252C0040F2FF114FF0000203EA010504EA020633
:10253C00294632464FF000034FF00004540144EAA0
:10254C00D1644B0119462246491B62EB06024FF03F
:10255C0000034FF00004940144EA91648B015B1A70
:10256C0064EB02044FF000014FF00002E20042EA7B
:10257C005372D9000B4614465B1944EB06044FF01A
:10258C0000014FF00002620242EAD35259020B469C
:10259C001446184621467B684FF000041A46234621
:1025AC00FDF7DAFF03460C46FB6049E02F4B5B68F6
:1025BC009B094FF0000440F2FF114FF0000203EAB8
:1025CC00010504EA0206294632464FF000034FF09B
:1025DC000004540144EAD1644B0119462246491BBC
:1025EC0062EB06024FF000034FF00004940144EA42
:1025FC0091648B015B1A64EB02044FF000014FF005
:10260C000002E20042EA5372D9000B4614465B19F1
:10261C0044EB06044FF000014FF00002A20242EA24
:10262C00935299020B461446184621467B684FF08C
:10263C0000041A462346FDF78FFF03460C46FB6049
:10264C000A4B5B681B0C03F0030301335B003B601C
:10265C00FA683B68B2FBF3F3BB6002E0044BBB606F
:10266C0000BFBB6818461437BD46F0BD00380240A9
:10267C000024F40000127A0090B585B000AF7860A9
:10268C004FF400510B48FFF7E8FB3B1D1846FEF7D3
:10269C00EDFA03461846FDF7E5FE03460C46C7E97E
:1026AC000234054B1B680133034A136000BF143717
:1026BC00BD4690BD00180240AC01002090B585B01D
:1026CC0000AF78604FF400511848FFF7C6FB3B1D74
:1026DC001846FEF7CBFA03461846FDF7C3FE034631
:1026EC000C46C7E902343B1D11491846FEF769F93F
:1026FC000346002B10D13B1D1846FEF7B7FA0346D4
:10270C001846FDF7AFFE03460C46C7E90234094BE9
:10271C001B680133074A1360074B1B680133064AD9
:10272C00136000BF1437BD4690BD00BF00180240B7
:10273C0040420F00300000202C00002080B500AF7C
:10274C00FEF78AF800F010F800F0EAF800F0C8F88C
:10275C0000F074F8322202490248FEF7B5F9FEE7A0
:10276C00800000203400002080B594B000AF07F149
:10277C00200330220021184600F090FA07F10C03D8
:10278C0000221A605A609A60DA601A610023BB60FA
:10279C00284B1B6C274A43F080531364254B1B6C4E
:1027AC0003F08053BB60BB6800237B60224B1B682B
:1027BC00214A43F4404313601F4B1B6803F440430E
:1027CC007B607B6802233B620123FB6210233B632B
:1027DC000223BB630023FB6308233B64A8237B64B5
:1027EC000223BB640323FB6407F120031846FFF7A5
:1027FC0047FB0346002B01D000F0ECF80F23FB60E5
:10280C0002233B6100237B614FF4A053BB614FF467
:10281C008053FB6107F10C0305211846FFF772FD8D
:10282C000346002B01D000F0D5F800BF5037BD4651
:10283C0080BD00BF003802400070004080B584B0FD
:10284C0000AF3B4600221A605A609A60DA60214B56
:10285C00214A1A601F4B4FF400325A601D4B4FF047
:10286C0000729A601B4B00221A611A4B01229A616A
:10287C00184B00221A62174B0022DA62154B174ACA
:10288C009A62144B0022DA60124B0122DA61114B6E
:10289C0001221A630F4B01225A610E48FEF74EF8C3
:1028AC000346002B01D000F095F801233B60012377
:1028BC007B600523BB603B4619460648FEF7EEF9E4
:1028CC000346002B01D000F085F800BF1037BD4641
:1028DC0080BD00BF34000020002001400100000F2B
:1028EC0080B582B000AF00237B600C4B1B6B0B4A96
:1028FC0043F480031363094B1B6B03F480037B606D
:10290C007B68002200213820FEF737FD3820FEF7C7
:10291C0050FD00BF0837BD4680BD00BF00380240E7
:10292C0080B58EB000AF07F1240300221A605A6004
:10293C009A60DA601A6107F1100300221A605A607B
:10294C009A60DA601A610023FB60204B1B6B1F4AF4
:10295C0043F0800313631D4B1B6B03F08003FB6080
:10296C00FB680023BB60194B1B6B184A43F0010337
:10297C001363164B1B6B03F00103BB60BB68002396
:10298C007B60124B1B6B114A43F0400313630F4BDC
:10299C001B6B03F040037B607B6800224FF4C0414B
:1029AC000B48FFF741FA4FF4C0437B620123BB6233
:1029BC000023FB6200233B6307F124031946044800
:1029CC00FFF788F800BF3837BD4680BD003802409D
:1029DC000018024080B400AF00BFBD465DF8047B18
:1029EC007047000080B483B000AF00237B60104BB5
:1029FC005B6C0F4A43F4804353640D4B5B6C03F4E4
:102A0C0080437B607B6800233B60094B1B6C084A4E
:102A1C0043F080531364064B1B6C03F080533B60F4
:102A2C003B6800BF0C37BD465DF8047B704700BFA8
:102A3C000038024080B58AB000AF786007F114030B
:102A4C0000221A605A609A60DA601A617B681B680F
:102A5C002F4A934258D100233B612E4B5B6C2D4A7D
:102A6C0043F4807353642B4B5B6C03F480733B61B6
:102A7C003B690023FB60274B1B6B264A43F0010389
:102A8C001363244B1B6B03F00103FB60FB680223F5
:102A9C007B610323BB610023FB6107F1140319461F
:102AAC001D48FFF717F81D4B1D4A1A601B4B0022DF
:102ABC005A601A4B00229A60184B0022DA60174BAE
:102ACC004FF480621A61154B4FF480525A61134BCC
:102ADC004FF480429A61114B4FF48072DA610F4BC4
:102AEC004FF400321A620D4B00225A620B48FEF76B
:102AFC007BFC0346002B01D0FFF76CFF7B68074A79
:102B0C009A63064A7B68936300BF2837BD4680BD35
:102B1C000020014000380240000002404801002023
:102B2C001064024080B400AF00BFBD465DF8047B6A
:102B3C00704780B400AFFEE780B400AFFEE780B40E
:102B4C0000AFFEE780B400AFFEE780B400AF00BF7B
:102B5C00BD465DF8047B704780B400AF00BFBD4636
:102B6C005DF8047B704780B400AF00BFBD465DF8D4
:102B7C00047B704780B500AFFDF7C0FE00BF80BD81
:102B8C0080B500AF0248FEF73DFD00BF80BD00BF21
:102B9C004801002080B400AF164BD3F88830154A9A
:102BAC0043F47003C2F88830134B1B68124A43F08D
:102BBC0001031360104B00229A600F4B1B680E4AE6
:102BCC0023F0847323F4803313600B4B0B4A5A604D
:102BDC00094B1B68084A23F480231360064B002220
:102BEC00DA60044B4FF000629A6000BFBD465DF89E
:102BFC00047B704700ED00E00038024010300024E8
:102C0C00DFF834D0002103E00C4B5B584350043107
:102C1C000B480C4B42189A42F6D30B4A02E00023A5
:102C2C0042F8043B094B9A42F9D3FFF7B3FF00F08B
:102C3C0011F8FFF783FD704700000320002D0008FA
:102C4C00000000200C0000200C000020B00100202F
:102C5C00FEE7000070B50D4E0D4CA41BA410002512
:102C6C00A54209D10B4E0C4C00F020F8A41BA4106B
:102C7C000025A54205D170BD56F825309847013581
:102C8C00EEE756F8253098470135F2E7F82C0008A6
:102C9C00F82C0008F82C0008FC2C00080244034611
:102CAC00934200D1704703F8011BF9E7F8B500BF58
:102CBC00F8BC08BC9E467047F8B500BFF8BC08BC11
:042CCC009E46704769
:102CD000000610160006101600000000000000009C
:102CE00001020304060708090000000001020304B2
:082CF000A4D8FF7F01000000E1
:042CF800D1010008FE
:042CFC00AD0100081E
:0C2D000010000000010000000024F4009E
:0400000508002C0DB6
:00000001FF
