:020000040800F2
:1000000000000320993B0008BD3A0008CB3A0008E5
:10001000D13A0008D73A0008DD3A00080000000095
:10002000000000000000000000000000E33A0008AB
:10003000F13A000800000000FF3A00080D3B0008FC
:10004000E93B0008E93B0008E93B0008E93B000800
:10005000E93B0008E93B0008E93B0008E93B0008F0
:10006000E93B0008E93B0008E93B0008E93B0008E0
:10007000E93B0008E93B0008E93B0008E93B0008D0
:10008000E93B0008E93B0008E93B0008E93B0008C0
:10009000E93B0008E93B0008E93B0008E93B0008B0
:1000A000E93B0008E93B0008E93B0008E93B0008A0
:1000B000E93B0008E93B0008E93B0008E93B000890
:1000C000E93B0008E93B0008E93B0008E93B000880
:1000D000E93B0008E93B0008E93B0008E93B000870
:1000E000E93B0008E93B0008E93B0008E93B000860
:1000F000E93B0008E93B0008E93B0008E93B000850
:10010000E93B0008E93B0008E93B0008E93B00083F
:10011000E93B0008E93B0008E93B0008E93B00082F
:10012000193B0008E93B0008E93B0008E93B0008EF
:10013000E93B0008E93B0008E93B0008E93B00080F
:10014000E93B0008E93B0008E93B0008E93B0008FF
:10015000E93B0008E93B0008E93B0008E93B0008EF
:10016000E93B0008E93B0008E93B0008E93B0008DF
:10017000E93B0008E93B0008E93B000800000000FB
:10018000E93B0008E93B0008E93B0008E93B0008BF
:10019000E93B0008E93B0008E93B0008E93B0008AF
:0C01A000E93B0008E93B0008E93B0008CF
:1001B00010B5054C237833B9044B13B10448AFF3A1
:1001C00000800123237010BD00010020000000000A
:1001D0002C6E000808B5034B1BB103490348AFF36D
:1001E000008008BD00000000040100202C6E000803
:1001F00081F0004102E000BF83F0004330B54FEAD8
:1002000041044FEA430594EA050F08BF90EA020F44
:100210001FBF54EA000C55EA020C7FEA645C7FEAD7
:10022000655C00F0E2804FEA5454D4EB5555B8BFFA
:100230006D420CDD2C4480EA020281EA030382EA6B
:10024000000083EA010180EA020281EA0303362DFD
:1002500088BF30BD11F0004F4FEA01314FF4801CD0
:100260004CEA113102D0404261EB410113F0004FE2
:100270004FEA03334CEA133302D0524263EB430399
:1002800094EA050F00F0A780A4F10104D5F1200E37
:100290000DDB02FA0EFC22FA05F2801841F1000192
:1002A00003FA0EF2801843FA05F359410EE0A5F166
:1002B00020050EF1200E012A03FA0EFC28BF4CF097
:1002C000020C43FA05F3C01851EBE37101F000454D
:1002D00007D54FF0000EDCF1000C7EEB00006EEB5A
:1002E0000101B1F5801F1BD3B1F5001F0CD34908E4
:1002F0005FEA30004FEA3C0C04F101044FEA44523B
:1003000012F5800F80F09A80BCF1004F08BF5FEAC1
:10031000500C50F1000041EB045141EA050130BDA1
:100320005FEA4C0C404141EB010111F4801FA4F144
:100330000104E9D191F0000F04BF01460020B1FA99
:1003400081F308BF2033A3F10B03B3F120020CDAD1
:100350000C3208DD02F1140CC2F10C0201FA0CF0AF
:1003600021FA02F10CE002F11402D8BFC2F1200C14
:1003700001FA02F120FA0CFCDCBF41EA0C019040CA
:10038000E41AA2BF01EB0451294330BD6FEA040413
:100390001F3C1CDA0C340EDC04F11404C4F12002FE
:1003A00020FA04F001FA02F340EA030021FA04F310
:1003B00045EA030130BDC4F10C04C4F1200220FA67
:1003C00002F001FA04F340EA0300294630BD21FAA5
:1003D00004F0294630BD94F0000F83F4801306BF6B
:1003E00081F480110134013D4EE77FEA645C18BF5F
:1003F0007FEA655C29D094EA050F08BF90EA020FF6
:1004000005D054EA000C04BF1946104630BD91EAED
:10041000030F1EBF0021002030BD5FEA545C05D1F0
:100420004000494128BF41F0004130BD14F580042F
:100430003CBF01F5801130BD01F0004545F0FE41A3
:1004400041F470014FF0000030BD7FEA645C1ABFD8
:10045000194610467FEA655C1CBF0B46024650EA0F
:10046000013406BF52EA033591EA030F41F400213B
:1004700030BD00BF90F0000F04BF0021704730B5C1
:100480004FF4806404F132044FF000054FF0000196
:1004900050E700BF90F0000F04BF0021704730B557
:1004A0004FF4806404F1320410F0004548BF40422C
:1004B0004FF000013EE700BF42004FEAE2014FEA81
:1004C00031014FEA02701FBF12F07F4393F07F4F5C
:1004D00081F06051704732F07F4208BF704793F05F
:1004E0007F4F04BF41F40021704730B54FF4607472
:1004F00001F0004521F000411CE700BF50EA010275
:1005000008BF704730B54FF000050AE050EA01021D
:1005100008BF704730B511F0004502D5404261EB8D
:1005200041014FF4806404F132045FEA915C3FF4CE
:10053000D8AE4FF003025FEADC0C18BF03325FEA6B
:10054000DC0C18BF033202EBDC02C2F1200300FA1C
:1005500003FC20FA02F001FA03FE40EA0E0021FA41
:1005600002F11444BDE600BF70B54FF0FF0C4CF42F
:10057000E06C1CEA11541DBF1CEA135594EA0C0FE1
:1005800095EA0C0F00F0DEF82C4481EA030621EA1C
:100590004C5123EA4C5350EA013518BF52EA033557
:1005A00041F4801143F4801338D0A0FB02CE4FF009
:1005B0000005E1FB02E506F00042E0FB03E54FF039
:1005C0000006E1FB03569CF0000F18BF4EF0010E31
:1005D000A4F1FF04B6F5007F64F5407404D25FEA2D
:1005E0004E0E6D4146EB060642EAC62141EA5551E0
:1005F0004FEAC52040EA5E504FEACE2EB4F1FD0C22
:1006000088BFBCF5E06F1ED8BEF1004F08BF5FEA9F
:10061000500E50F1000041EB045170BD06F0004651
:1006200046EA010140EA020081EA0301B4EB5C04FE
:10063000C2BFD4EB0C0541EA045170BD41F48011F6
:100640004FF0000E013C00F3AB8014F1360FDEBF1B
:10065000002001F0004170BDC4F10004203C35DAF7
:100660000C341BDC04F11404C4F1200500FA05F37A
:1006700020FA04F001FA05F240EA020001F000421B
:1006800021F0004110EBD37021FA04F642EB060191
:100690005EEA430E08BF20EAD37070BDC4F10C04BB
:1006A000C4F1200500FA04F320FA05F001FA04F27F
:1006B00040EA020001F0004110EBD37041F100016B
:1006C0005EEA430E08BF20EAD37070BDC4F1200576
:1006D00000FA05F24EEA020E20FA04F301FA05F2DE
:1006E00043EA020321FA04F001F0004121FA04F286
:1006F00020EA020000EBD3705EEA430E08BF20EA56
:10070000D37070BD94F0000F0FD101F0004640008F
:1007100041EB010111F4801F08BF013CF7D041EA11
:10072000060195F0000F18BF704703F00046520015
:1007300043EB030313F4801F08BF013DF7D043EAE6
:100740000603704794EA0C0F0CEA135518BF95EA9C
:100750000C0F0CD050EA410618BF52EA4306D1D123
:1007600081EA030101F000414FF0000070BD50EA42
:10077000410606BF1046194652EA430619D094EACC
:100780000C0F02D150EA013613D195EA0C0F05D1B6
:1007900052EA03361CBF104619460AD181EA03010A
:1007A00001F0004141F0FE4141F470014FF00000C2
:1007B00070BD41F0FE4141F4780170BD70B54FF05D
:1007C000FF0C4CF4E06C1CEA11541DBF1CEA1355DD
:1007D00094EA0C0F95EA0C0F00F0A7F8A4EB0504BF
:1007E00081EA030E52EA03354FEA013100F08880B6
:1007F0004FEA03334FF0805545EA131343EA12637F
:100800004FEA022245EA111545EA10654FEA002633
:100810000EF000419D4208BF964244F1FD0404F5EC
:10082000407402D25B084FEA3202B61A65EB030548
:100830005B084FEA32024FF480104FF4002CB6EB05
:10084000020E75EB030E22BFB61A754640EA0C0085
:100850005B084FEA3202B6EB020E75EB030E22BFC5
:10086000B61A754640EA5C005B084FEA3202B6EB06
:10087000020E75EB030E22BFB61A754640EA9C00C5
:100880005B084FEA3202B6EB020E75EB030E22BF95
:10089000B61A754640EADC0055EA060E18D04FEA53
:1008A000051545EA16754FEA06164FEAC30343EAF3
:1008B00052734FEAC2025FEA1C1CC0D111F4801FC0
:1008C0000BD141EA00014FF000004FF0004CB6E7B9
:1008D00011F4801F04BF01430020B4F1FD0C88BF58
:1008E000BCF5E06F3FF6AFAEB5EB030C04BFB6EB63
:1008F000020C5FEA500C50F1000041EB045170BD56
:100900000EF0004E4EEA113114EB5C04C2BFD4EB82
:100910000C0541EA045170BD41F480114FF0000E06
:10092000013C90E645EA060E8DE60CEA135594EA82
:100930000C0F08BF95EA0C0F3FF43BAF94EA0C0F85
:100940000AD150EA01347FF434AF95EA0C0F7FF4FA
:1009500025AF104619462CE795EA0C0F06D152EA4E
:1009600003353FF4FDAE1046194622E750EA410632
:1009700018BF52EA43067FF4C5AE50EA41047FF443
:100980000DAF52EA43057FF4EBAE12E74FF0FF3CA8
:1009900006E000BF4FF0010C02E000BF4FF0010C79
:1009A0004DF804CD4FEA410C7FEA6C5C4FEA430CF2
:1009B00018BF7FEA6C5C1BD001B050EA410C0CBF41
:1009C00052EA430C91EA030F02BF90EA020F0020A3
:1009D000704710F1000F91EA030F58BF994208BF0A
:1009E00090422CBFD8176FEAE37040F001007047C7
:1009F0004FEA410C7FEA6C5C02D150EA013C07D11E
:100A00004FEA430C7FEA6C5CD6D152EA033CD3D068
:100A10005DF8040B704700BF8446104662468C4662
:100A20001946634600E000BF01B5FFF7B7FF002895
:100A300048BF10F1000F01BD4DF808EDFFF7F4FFBE
:100A40000CBF012000205DF808FB00BF4DF808ED49
:100A5000FFF7EAFF34BF012000205DF808FB00BF6C
:100A60004DF808EDFFF7E0FF94BF012000205DF88E
:100A700008FB00BF4DF808EDFFF7CEFF94BF012043
:100A800000205DF808FB00BF4DF808EDFFF7C4FF3C
:100A900034BF012000205DF808FB00BF4FEA410C85
:100AA0007FEA6C5C02D150EA013C0AD14FEA430C68
:100AB0007FEA6C5C02D152EA033C02D14FF00000A5
:100AC00070474FF0010070474FEA410212F50012E3
:100AD00015D211D56FF47873B3EB625212D94FEA85
:100AE000C12343F0004343EA505311F0004F23FA6F
:100AF00002F018BF404270474FF00000704750EAC4
:100B0000013005D111F0004008BF6FF00040704780
:100B10004FF00000704700BF53B94AB9002908BF21
:100B200000281CBF4FF0FF314FF0FF3000F048BCF1
:100B3000ADF1080C6DE904CE00F0DCFADDF804E05C
:100B4000DDE9022304B070472DE9F04F57EC106B3C
:100B500059EC128B95B012EE102A10EE100A39469D
:100B60004B4655EC134B5BEC11AB8DED080B8DED4B
:100B70000A3BFFF7F9FC2246CDE902012B4650461D
:100B80005946FFF7F1FC2246CDE904012B463046D9
:100B90003946FFF7E9FC5246CDE906015B4640467F
:100BA0004946FFF7E1FCDDE9042306460F46DDE98F
:100BB0000201CDE90C67FFF71FFB324604460D46E4
:100BC0003B46DDE90601FFF719FB2246CDE90001AE
:100BD0002B4620462946FFF72FFF30B19DED001B25
:100BE00045EC104B15B0BDE8F08FDDE90001024681
:100BF0000B46FFF721FF0028F0D1DDE9080102468E
:100C00000B46FFF7F9FA5246CDE910015B46504614
:100C10005946FFF7F1FA4FF00106CDE90E015246B1
:100C20005B46504659463746FFF706FF10B94FF06E
:100C300000031F46DDE90E23104619464FF001065A
:100C4000FFF7FAFE10B14FF000031E46DDE9080180
:100C500007EA060C5FFA8CF602460B460E964FF03A
:100C60000106FFF7E9FE10B94FF000031E4616F02B
:100C7000FF0F0FD0DDE91023104619464FF0010693
:100C8000FFF7DAFE10B14FF000031E4616F0FF0F1B
:100C900040F083810E9B002B40F0B98142464B46C9
:100CA00040464946FFF7A8FADDE90A67CDE9120197
:100CB00032463B4630463946FFF79EFA3246CDE98A
:100CC00010013B46304639464FF001063746FFF7E4
:100CD000B3FE10B94FF000031F46DDE910231046A4
:100CE00019464FF00106FFF7A7FE10B14FF00003C1
:100CF0001E4607EA060C5FFA8CF642464B46404613
:100D0000494637464FF00106FFF796FE10B94FF0FF
:100D100000031E4616F0FF0F0FD0DDE91223104628
:100D200019464FF00106FFF787FE10B14FF00003A0
:100D30001E4616F0FF0F40F0FA80002F40F0588159
:100D40000E9E002E40F0BC80DDE9020102460B46FB
:100D5000FFF752FADDE90223CDE90E0110461946EC
:100D60004FF00107FFF768FE00B9374617F0FF0F95
:100D70000ED0DDE90E23104619464FF00106FFF7AD
:100D80005BFE10B14FF000031E4616F0FF0F73D14B
:100D9000DDE9046732463B4630463946FFF72CFA18
:100DA0003B46CDE90201324630463946FFF744FE64
:100DB0004FF0010300B9034613F0FF0F0ED0DDE939
:100DC0000223104619464FF00106FFF735FE10B119
:100DD0004FF000031E4616F0FF0F4DD1DDE9066708
:100DE00032463B4630463946FFF706FA3B46CDE9E8
:100DF0000201324630463946FFF71EFE4FF001032E
:100E000000B9034613F0FF0F0ED0DDE902231046B0
:100E100019464FF00106FFF70FFE10B14FF0000327
:100E20001E4616F0FF0F27D1DDE90C6732463B4620
:100E300030463946FFF7E0F93B46CDE9020132463C
:100E400030463946FFF7F8FD4FF0010300B903467D
:100E500013F0FF0F3FF4C2AEDDE90223104619463E
:100E60004FF00106FFF7E8FD10B14FF000031E46FA
:100E700016F0FF0F3FF4B2AEDDE9080102460B4663
:100E8000FFF7DAFD002800F0218152465B4650460C
:100E90005946FFF7D1FD002800F00B8142464B4632
:100EA00040464946FFF7C8FD002800F0F580DDE91F
:100EB0000A0102460B46FFF7BFFD002800F0DF8065
:100EC00042464B46DDE90801FFF74EFBDDE90A67C4
:100ED00004460D4632463B4650465946FFF744FB12
:100EE00002460B4620462946FFF786F900227E4B34
:100EF000FFF73AFB32463B4604460D46DDE9080162
:100F0000FFF732FB424606460F464B4650465946CF
:100F1000FFF72AFB02460B4630463946FFF76EF9CB
:100F20000022714BFFF720FBCDE9000156E6B9F135
:100F3000000F6E4BB8BF6E4B4FF00002B8BF0022DF
:100F4000904699460022002F5FD100230B9923F091
:100F5000004301F0004143EA0105DDE908011446C0
:100F60000B460246CDE90A45FFF766FD00286AD028
:100F700052465B4650465946FFF75EFD00289FD11A
:100F8000BBF1000F4FF000024FF00003BCBF002286
:100F90004FF0004392469B4692E70999534B002934
:100FA000B8BF534B4FF00002B8BF0022CDE9082371
:100FB0000E9B0022002B37D100230BF0004123F0C1
:100FC00000430B4316461F4642464B4640464946A1
:100FD000B246BB46FFF730FD40B3DDE90A010246E9
:100FE0000B46FFF729FD00283AD001230E9355E662
:100FF000B9F1000F4FF000024FF00003BCBF002218
:101000004FF00043904699460022384B9EE70999DD
:1010100000294FF000024FF00003BCBF00224FF048
:101020000043CDE908230022304BC6E7B9F1000F99
:101030004FF000024FF00003BCBF00224FF000430E
:1010400090469946C9E7099900294FF000024FF0F0
:101050000003BCBF00224FF00043CDE9082387E71F
:101060000B9900294FF000034FF00002BCBF4FF076
:1010700000430022CDE90A2301230E930EE60B99CB
:1010800000294FF000024FF00003BCBF00224FF0D8
:101090000043CDE90A2313E7B9F1000F4FF0000236
:1010A0004FF00003BCBF00224FF00043904699462A
:1010B000FDE6BBF1000F4FF000024FF00003BCBF94
:1010C00000224FF0004392469B46E7E6099900292B
:1010D0004FF000024FF00003BCBF00224FF000436E
:1010E000CDE90823D1E600BF0000F07F0000F03F0B
:1010F0000000F0BF2DE9F047089E04468846002B0B
:101100004BD18A42154667D9B2FA82F24AB1C2F18E
:10111000200701FA02F320FA07F7954047EA03088F
:1011200094404FEA154E230CB8FBFEF71FFA85FCDE
:101130000EFB178843EA084307FB0CF1994209D9D3
:10114000EB1807F1FF3080F01B81994240F21881C3
:10115000023F2B445B1AA4B2B3FBFEF00EFB10332C
:1011600044EA034400FB0CFCA44509D92C1900F106
:10117000FF3380F00781A44540F2048102382C44FB
:1011800040EA0740A4EB0C0400271EB1D440002322
:10119000C6E900433946BDE8F0878B4209D9002EE5
:1011A00000F0EB800027C6E9000138463946BDE86B
:1011B000F087B3FA83F7002F47D18B4202D38242E4
:1011C00000F2FA80841A61EB030301209846002E96
:1011D000E0D0C6E90048DDE702B9FFDEB2FA82F2EC
:1011E000002A40F08F80491B4FEA154E1FFA85F800
:1011F0000127B1FBFEFC230C0EFB1C1143EA01434B
:1012000008FB0CF1994207D9EB180CF1FF3002D220
:10121000994200F2CD808446591AA3B2B1FBFEF088
:101220000EFB101443EA044408FB00F8A04507D95C
:101230002C1900F1FF3302D2A04500F2B680184607
:10124000A4EB080440EA0C409FE7C7F1200CBB4028
:1012500022FA0CFE4EEA030E01FA07F420FA0CF50E
:1012600021FA0CF34FEA1E482543B3FBF8F92C0C86
:1012700008FB19331FFA8EFA44EA034309FB0AF408
:101280009C4202FA07F200FA07F10BD91EEB0303A6
:1012900009F1FF3080F087809C4240F28480A9F100
:1012A000020973441B1BADB2B3FBF8F008FB10330B
:1012B00045EA034400FB0AFAA24508D91EEB0404E0
:1012C00000F1FF336BD2A24569D90238744440EA79
:1012D0000940A0FB0289A4EB0A044C45C2464B46D8
:1012E00054D351D0002E69D0B1EB0A0564EB03044E
:1012F00004FA0CFCFD40FC404CEA0505C6E900542C
:10130000002747E7C2F1200320FA03F7954001FACE
:1013100002F021FA03F34FEA154E3843010CB3FBF8
:10132000FEF71FFA85F80EFB173341EA034107FB6E
:1013300008F38B4204FA02F407D9691807F1FF3C5D
:101340002FD28B422DD9023F2944CB1A81B2B3FB55
:10135000FEF00EFB103341EA034100FB08F38B4221
:1013600007D9691800F1FF3C17D28B4215D9023812
:101370002944C91A40EA07473BE73746304609E7A0
:101380000746E7E61846FBE64145ABD2B8EB020A52
:1013900069EB0E0201381346A4E76046E9E71846F8
:1013A00095E76746D1E781467CE702382C4447E75A
:1013B000ACF1020C2B442FE7384608E73746E9E644
:1013C000704700BF80B500AF0E4B1B680D4A43F459
:1013D000007313600B4B1B680A4A43F4806313606D
:1013E000084B1B68074A43F480731360032000F026
:1013F000EDFC002000F008F802F0C0FA00231846C7
:1014000080BD00BF003C024080B582B000AF786074
:10141000124B1A68124B1B7819464FF47A73B3FBC0
:10142000F1F3B2FBF3F3184600F005FD0346002B81
:1014300001D001230EE07B680F2B0AD800227968C7
:101440004FF0FF3000F0CDFC064A7B6813600023AC
:1014500000E0012318460837BD4680BD90000020FB
:10146000040000200000002080B400AF064B1B7871
:101470001A46064B1B681344044A136000BFBD465E
:101480005DF8047B704700BF040000201C010020B1
:1014900080B400AF034B1B681846BD465DF8047B63
:1014A000704700BF1C01002080B584B000AF786099
:1014B0000023FB737B68002B01D1012333E07B68A1
:1014C0001B6C002B09D17B6800225A647B680022C8
:1014D00083F83C20786802F079FA7B681B6C03F093
:1014E0001003002B18D17B681B6C23F4885323F066
:1014F000020343F002027B681A64786800F028FA5D
:101500007B6800225A647B681B6C23F0030343F062
:1015100001027B681A6401E00123FB737B680022EF
:1015200083F83C20FB7B18461037BD4680BD000089
:1015300080B586B000AFF860B9607A6000233B6187
:10154000FB6893F83C30012B01D10223B0E0FB682B
:10155000012283F83C20FB681B689B6803F00103B1
:10156000012B18D0FB681B689A68FB681B6842F067
:1015700001029A60504B1B68504AA2FB03239A0C4D
:1015800013465B0013443B6102E03B69013B3B6156
:101590003B69002BF9D1FB681B689B6803F00103D2
:1015A000002B00F08480FB681B6C23F4E06323F0C5
:1015B000010343F48072FB681A64FB681B685B6874
:1015C00003F48063002B07D0FB681B6C23F44053AB
:1015D00043F48052FB681A64FB681B6C03F480536D
:1015E000002B06D0FB685B6C23F00602FB685A6494
:1015F00002E0FB6800225A64FB68002283F83C206A
:101600002F4B7B61FB689B6B2E4ADA63FB689B6BFD
:101610002D4A1A64FB689B6B2C4ADA64FB681B68D2
:101620006FF022021A60FB681B685A68FB681B682F
:1016300042F080625A60FB681B689A68FB681B680E
:1016400042F480729A60FB68986BFB681B684C33AD
:101650001946BA687B6800F0A9FC7B695B6803F0F7
:101660001F03002B0FD1FB681B689B6803F04053DE
:10167000002B1CD1FB681B689A68FB681B6842F052
:1016800080429A6013E0FB681B68114A93420ED1B6
:10169000FB681B689B6803F04053002B07D1FB6875
:1016A0001B689A68FB681B6842F080429A600023BE
:1016B00018461837BD4680BD9000002083DE1B43CE
:1016C00000230140451B0008EB1B0008071C000815
:1016D0000020014080B483B000AF78607B681B6855
:1016E000DB6C18460C37BD465DF8047B704780B450
:1016F00083B000AF786000BF0C37BD465DF8047B57
:101700007047000080B485B000AF78603960002376
:10171000BB607B6893F83C30012B01D1022307E1C9
:101720007B68012283F83C203B681B68092B25D984
:101730007B681B68D9683B681B689BB21A461346D6
:101740005B0013441E3B072202FA03F3DA437B6873
:101750001B680A40DA607B681B68D9683B689A6836
:101760003B681B689BB2184603465B0003441E3B64
:101770009A407B681B680A43DA6022E07B681B683A
:1017800019693B681B689BB21A4613465B001344F9
:10179000072202FA03F3DA437B681B680A401A61E6
:1017A0007B681B6819693B689A683B681B689BB239
:1017B000184603465B0003449A407B681B680A4353
:1017C0001A613B685B68062B24D87B681B68596BE1
:1017D0003B685A6813469B001344053B1F2202FADC
:1017E00003F3DA437B681B680A405A637B681B6813
:1017F000596B3B681B689BB218463B685A68134696
:101800009B001344053B00FA03F27B681B680A4304
:101810005A634CE03B685B680C2B24D87B681B68E0
:10182000196B3B685A6813469B001344233B1F22E5
:1018300002FA03F3DA437B681B680A401A637B6889
:101840001B68196B3B681B689BB218463B685A685B
:1018500013469B001344233B00FA03F27B681B688A
:101860000A431A6323E07B681B68D96A3B685A689D
:1018700013469B001344413B1F2202FA03F3DA4351
:101880007B681B680A40DA627B681B68D96A3B6820
:101890001B689BB218463B685A6813469B0013446A
:1018A000413B00FA03F27B681B680A43DA62234B70
:1018B000FB607B681B68224A934209D13B681B6826
:1018C000122B05D1FB685B6843F48002FB685A6009
:1018D0007B681B681A4A934225D13B681B68194AEA
:1018E000934203D03B681B68112B1CD1FB685B68DB
:1018F00043F40002FB685A603B681B68114A93423C
:1019000011D1114B1B68114AA2FB03239A0C1346F9
:101910009B0013445B00BB6002E0BB68013BBB6003
:10192000BB68002BF9D17B68002283F83C200023A0
:1019300018461437BD465DF8047B7047002301400C
:1019400000200140120000109000002083DE1B43A5
:1019500080B485B000AF7860784BFB60FB685B6853
:1019600023F44032FB685A60FB685A687B685B6806
:101970001A43FB685A607B681B685A687B681B685F
:1019800022F480725A607B681B6859687B681B6907
:101990001A027B681B680A435A607B681B685A6896
:1019A0007B681B6822F040725A607B681B6859682C
:1019B0007B689A687B681B680A435A607B681B686F
:1019C0009A687B681B6822F400629A607B681B68D7
:1019D00099687B68DA687B681B680A439A607B6851
:1019E0009B6A574A934222D07B681B689A687B683F
:1019F0001B6822F070629A607B681B6899687B683C
:101A00009A6A7B681B680A439A607B681B689A68BD
:101A10007B681B6822F040529A607B681B6899685B
:101A20007B68DA6A7B681B680A439A600FE07B6810
:101A30001B689A687B681B6822F070629A607B68FA
:101A40001B689A687B681B6822F040529A607B682A
:101A50001B689A687B681B6822F002029A607B68A8
:101A60001B6899687B689B695A007B681B680A43FE
:101A70009A607B681B6A002B1BD07B681B685A68C6
:101A80007B681B6842F400625A607B681B685A6876
:101A90007B681B6822F460425A607B681B68596847
:101AA0007B685B6A013B5A037B681B680A435A6088
:101AB00007E07B681B685A687B681B6822F4006239
:101AC0005A607B681B68DA6A7B681B6822F47002C4
:101AD000DA627B681B68D96A7B68DB69013B1A059F
:101AE0007B681B680A43DA627B681B689A687B68BC
:101AF0001B6822F400729A607B681B6899687B6897
:101B00001B6B5A027B681B680A439A607B681B68E0
:101B10009A687B681B6822F480629A607B681B6805
:101B200099687B685B699A027B681B680A439A60C4
:101B300000BF1437BD465DF8047B704700230140A9
:101B40000100000F80B584B000AF78607B689B6BAC
:101B5000FB60FB681B6C03F05003002B3CD1FB685F
:101B60001B6C43F40072FB681A64FB681B689B687B
:101B700003F04053002B2BD1FB689B69002B27D12E
:101B8000FB681B68DB6A03F47003002B06D0FB685C
:101B90001B689B6803F48063002B19D1FB681B68EA
:101BA0005A68FB681B6822F020025A60FB681B6CB5
:101BB00023F48072FB681A64FB681B6C03F4805387
:101BC000002B05D1FB681B6C43F00102FB681A6413
:101BD000F86801F021FD04E0FB689B6BDB6C786822
:101BE000984700BF1037BD4680BD80B584B000AFB8
:101BF00078607B689B6BFB60F86801F02FFD00BF8D
:101C00001037BD4680BD80B584B000AF78607B687A
:101C10009B6BFB60FB6840221A64FB685B6C43F0C3
:101C20000402FB685A64F868FFF761FD00BF1037D3
:101C3000BD4680BD80B485B000AF78607B6803F09E
:101C40000703FB600C4BDB68BB60BA684FF6FF0311
:101C50001340BB60FB681A02BB68134343F0BF63C9
:101C600043F40033BB60044ABB68D36000BF143741
:101C7000BD465DF8047B704700ED00E080B400AF26
:101C8000044BDB681B0A03F007031846BD465DF8EA
:101C9000047B704700ED00E080B483B000AF0346E2
:101CA000FB71FB7903F01F02074997F907305B09C5
:101CB000012000FA02F241F8232000BF0C37BD4694
:101CC0005DF8047B704700BF00E100E080B483B0A2
:101CD00000AF03463960FB7197F90730002B0BDA30
:101CE0003B68DAB20C49FB7903F00F03043B1201A5
:101CF000D2B20B441A7609E03B68DAB2074997F989
:101D000007301201D2B20B4483F8002300BF0C3716
:101D1000BD465DF8047B704700ED00E000E100E0A7
:101D200080B489B000AFF860B9607A60FB6803F0F6
:101D30000703FB61FB69C3F10703042B28BF0423DE
:101D4000BB61FB690433062B02D9FB69033B00E04E
:101D500000237B614FF0FF32BB6902FA03F3DA43E1
:101D6000BB681A407B699A404FF0FF317B6901FAEA
:101D700003F3D9437B680B40134318462437BD4611
:101D80005DF8047B7047000080B582B000AF7860DA
:101D90007B68013BB3F1807F01D301230FE00A4A46
:101DA0007B68013B53600F214FF0FF30FFF78EFF40
:101DB000054B00229A60044B07221A600023184644
:101DC0000837BD4680BD00BF10E000E080B582B09E
:101DD00000AF78607868FFF72DFF00BF0837BD4679
:101DE00080BD80B586B000AF0346B9607A60FB73F2
:101DF00000237B61FFF742FF78617A68B9687869F0
:101E0000FFF78EFF024697F90F3011461846FFF78D
:101E10005DFF00BF1837BD4680BD80B582B000AF02
:101E20000346FB7197F907301846FFF735FF00BFEF
:101E30000837BD4680BD80B582B000AF7860786855
:101E4000FFF7A2FF034618460837BD4680BD0000D5
:101E500080B586B000AF786000237B61FFF718FB88
:101E600038617B68002B01D1012399E07B68002257
:101E700083F834207B68022283F835207B681B6856
:101E80001A687B681B6822F001021A600FE0FFF7F6
:101E9000FFFA02463B69D31A052B08D97B6820223A
:101EA0005A657B68032283F83520032378E07B683A
:101EB0001B681B6803F00103002BE8D17B681B68DB
:101EC0001B687B617A69384B13407B617B685A6879
:101ED0007B689B681A437B68DB681A437B681B69D5
:101EE0001A437B685B691A437B689B691A437B686A
:101EF000DB691A437B681B6A13437A6913437B616E
:101F00007B685B6A042B07D17B68DA6A7B681B6B92
:101F100013437A6913437B617B681B687A691A6093
:101F20007B681B685B697B617B6923F007037B61CE
:101F30007B685B6A7A6913437B617B685B6A042B0D
:101F400017D17B689B6A7A6913437B617B68DB6A84
:101F5000002B0ED0786800F077FA0346002B08D0EB
:101F60007B6840225A657B68012283F83520012373
:101F700016E07B681B687A695A61786800F02EFA6F
:101F80000346FB607B68DB6D3F229A40FB689A60EA
:101F90007B6800225A657B68012283F83520002384
:101FA00018461837BD4680BD3F8010F080B586B01A
:101FB00000AFF860B9607A603B600023FB75FB6896
:101FC0009B6D3B61FB6893F83430012B01D10223F8
:101FD00048E0FB68012283F83420FB6893F8353031
:101FE000DBB2012B37D1FB68022283F83520FB6876
:101FF00000225A653B687A68B968F86800F0C0F951
:10200000FB68DB6D3F229A403B699A60FB681B6866
:102010001A68FB681B6842F016021A60FB681B68AE
:102020005A69FB681B6842F080025A61FB681B6CAE
:10203000002B07D0FB681B681A68FB681B6842F01E
:1020400008021A60FB681B681A68FB681B6842F08C
:1020500001021A6005E0FB68002283F834200223A5
:10206000FB75FB7D18461837BD4680BD80B586B030
:1020700000AF78600023BB60924B1B68924AA2FBC2
:1020800003239B0A7B617B689B6D3B613B691B68FB
:10209000FB607B68DB6D08229A40FB681340002BD5
:1020A0001AD07B681B681B6803F00403002B13D055
:1020B0007B681B681A687B681B6822F004021A6040
:1020C0007B68DB6D08229A403B699A607B685B6D98
:1020D00043F001027B685A657B68DB6D01229A4000
:1020E000FB681340002B12D07B681B685B6903F010
:1020F0008003002B0BD07B68DB6D01229A403B698B
:102100009A607B685B6D43F002027B685A657B686E
:10211000DB6D04229A40FB681340002B12D07B68D1
:102120001B681B6803F00203002B0BD07B68DB6D80
:1021300004229A403B699A607B685B6D43F004021D
:102140007B685A657B68DB6D10229A40FB68134000
:10215000002B43D07B681B681B6803F00803002B2F
:102160003CD07B68DB6D10229A403B699A607B68AB
:102170001B681B6803F48023002B18D07B681B6846
:102180001B6803F40023002B08D17B681B6C002B19
:1021900024D07B681B6C786898471FE07B689B6C39
:1021A000002B1BD07B689B6C7868984716E07B6897
:1021B0001B681B6803F48073002B07D17B681B68C6
:1021C0001A687B681B6822F008021A607B681B6C27
:1021D000002B03D07B681B6C786898477B68DB6DAD
:1021E00020229A40FB681340002B00F08E807B6811
:1021F0001B681B6803F01003002B00F086807B68CF
:10220000DB6D20229A403B699A607B6893F83530F9
:10221000DBB2052B36D17B681B681A687B681B68AC
:1022200022F016021A607B681B685A697B681B687B
:1022300022F080025A617B681B6C002B03D17B6803
:102240009B6C002B07D07B681B681A687B681B6837
:1022500022F008021A607B68DB6D3F229A403B69DE
:102260009A607B68002283F834207B68012283F81F
:1022700035207B681B6D002B7DD07B681B6D7868DB
:10228000984778E07B681B681B6803F48023002B69
:102290001CD07B681B681B6803F40023002B08D14B
:1022A0007B685B6C002B30D07B685B6C78689847F0
:1022B0002BE07B68DB6B002B27D07B68DB6B7868BF
:1022C000984722E090000020B5814E1B7B681B6878
:1022D0001B6803F48073002B0FD17B681B681A689E
:1022E0007B681B6822F010021A607B68002283F86A
:1022F00034207B68012283F835207B68DB6B002B60
:1023000003D07B68DB6B786898477B685B6D002B3C
:1023100032D07B685B6D03F00103002B22D07B6819
:10232000052283F835207B681B681A687B681B6868
:1023300022F001021A60BB680133BB607A699A42DD
:1023400007D37B681B681B6803F00103002BF2D1E5
:1023500000E000BF7B68002283F834207B68012204
:1023600083F835207B68DB6C002B05D07B68DB6C49
:102370007868984700E000BF1837BD4680BD00BFB1
:1023800080B485B000AFF860B9607A603B60FB68EC
:102390001B681A68FB681B6822F480221A60FB68BD
:1023A0001B683A685A60FB689B68402B08D1FB6841
:1023B0001B687A689A60FB681B68BA68DA6007E095
:1023C000FB681B68BA689A60FB681B687A68DA6009
:1023D00000BF1437BD465DF8047B704780B485B0FC
:1023E00000AF78607B681B68DBB2103B144AA2FB2D
:1023F00003231B09FB60134AFB6813441B781A462E
:102400007B68DA65FB68032B09D97B681B6823F4BA
:102410007F7323F003031A1D7B689A6507E07B68CE
:102420001B6823F47F7323F003037A6893657B684A
:102430009B6D18461437BD465DF8047B704700BF9E
:10244000ABAAAAAA486E000880B485B000AF786035
:102450000023FB737B689B6ABB607B689B69002BD6
:102460001FD1BB68032B55D801A252F823F000BF3F
:102470008124000893240008812400081525000801
:102480007B68DB6A03F08073002B45D00123FB736C
:1024900042E07B68DB6AB3F1C07F3FD10123FB736D
:1024A0003CE07B689B69B3F5005F21D1BB68032BDF
:1024B00036D801A252F823F0C9240008CF2400081E
:1024C000C9240008E12400080123FB732FE07B6886
:1024D000DB6A03F08073002B24D00123FB7321E01F
:1024E0007B68DB6AB3F1C07F1ED10123FB731BE065
:1024F000BB68022B02D9032B03D018E00123FB7326
:1025000015E07B68DB6A03F08073002B0ED001239B
:10251000FB730BE000BF0AE000BF08E000BF06E06D
:1025200000BF04E000BF02E000BF00E000BFFB7B93
:1025300018461437BD465DF8047B704780B489B0F7
:1025400000AF7860396000237B6100233B6100238A
:10255000BB610023FB6177E10122FB6902FA03F30F
:102560007B613B681B687A6913403B613A697B6910
:102570009A4240F066813B685B68022B03D03B685F
:102580005B68122B23D1FB69DA087B68083253F8A9
:102590002230BB61FB6903F007039B000F2202FAA4
:1025A00003F3DB43BA691340BB613B681A69FB69FB
:1025B00003F007039B0002FA03F3BA691343BB61FC
:1025C000FB69DA087B680832B96943F822107B6836
:1025D0001B68BB61FB695B00032202FA03F3DB4368
:1025E000BA691340BB613B685B6803F00302FB6997
:1025F0005B0002FA03F3BA691343BB617B68BA69F3
:102600001A603B685B68012B0BD03B685B68022B50
:1026100007D03B685B68112B03D03B685B68122BCB
:1026200030D17B689B68BB61FB695B00032202FAC7
:1026300003F3DB43BA691340BB613B68DA68FB69AB
:102640005B0002FA03F3BA691343BB617B68BA69A2
:102650009A607B685B68BB610122FB6902FA03F345
:10266000DB43BA691340BB613B685B681B0903F03D
:102670000102FB6902FA03F3BA691343BB617B6889
:10268000BA695A607B68DB68BB61FB695B00032247
:1026900002FA03F3DB43BA691340BB613B689A68F3
:1026A000FB695B0002FA03F3BA691343BB617B6801
:1026B000BA69DA603B685B6803F08053002B00F076
:1026C000C0800023FB60654B5B6C644A43F480432D
:1026D0005364624B5B6C03F48043FB60FB68604AAD
:1026E000FB699B08023352F82330BB61FB6903F09E
:1026F00003039B000F2202FA03F3DB43BA69134082
:10270000BB617B68574A934237D07B68564A9342F5
:1027100031D07B68554A93422BD07B68544A934210
:1027200025D07B68534A93421FD07B68524A93421C
:1027300019D07B68514A934213D07B68504A934228
:102740000DD07B684F4A934207D07B684E4A934234
:1027500001D1092312E00A2310E008230EE0072329
:102760000CE006230AE0052308E0042306E0032327
:1027700004E0022302E0012300E00023FA6902F0F2
:10278000030292009340BA691343BB613449FB6969
:102790009B080233BA6941F823203C4B1B68BB619C
:1027A0003B69DB43BA691340BB613B685B6803F478
:1027B0008033002B03D0BA693B691343BB61334AB2
:1027C000BB691360314B5B68BB613B69DB43BA6932
:1027D0001340BB613B685B6803F40033002B03D0FC
:1027E000BA693B691343BB61284ABB695360274BF5
:1027F0009B68BB613B69DB43BA691340BB613B68C3
:102800005B6803F48013002B03D0BA693B69134360
:10281000BB611E4ABB6993601C4BDB68BB613B69B3
:10282000DB43BA691340BB613B685B6803F4001388
:10283000002B03D0BA693B691343BB61134ABB69E0
:10284000D360FB690133FB61FB690F2B7FF684AE1C
:1028500000BF2437BD465DF8047B70470038024056
:10286000003801400000024000040240000802401D
:10287000000C024000100240001402400018024008
:10288000001C02400020024000240240003C0140A5
:1028900080B483B000AF78600B467B8013467B70BA
:1028A0007B78002B03D07A887B689A6103E07B8871
:1028B0001A047B689A6100BF0C37BD465DF8047B43
:1028C000704780B483B000AF78600B467B807B6834
:1028D0005A697B885A407B685A6100BF0C37BD46F5
:1028E0005DF8047B7047000080B586B000AF78606B
:1028F0007B68002B01D101232DE27B681B6803F06C
:102900000103002B75D0A34B9B6803F00C03042B31
:102910000CD0A04B9B6803F00C03082B12D19D4BED
:102920005B6803F48003B3F5800F0BD1994B1B68F0
:1029300003F40033002B5BD07B685B68002B57D11E
:10294000012308E27B685B68B3F5803F06D1914BB9
:102950001B68904A43F4803313601DE07B685B681A
:10296000B3F5A02F0CD18B4B1B688A4A43F480230C
:102970001360884B1B68874A43F4803313600BE075
:10298000844B1B68834A23F480331360814B1B689C
:10299000804A23F4802313607B685B68002B13D08C
:1029A000FEF776FD386108E0FEF772FD02463B69EE
:1029B000D31A642B01D90323CDE1764B1B6803F4B2
:1029C0000033002BF0D014E0FEF762FD386108E020
:1029D000FEF75EFD02463B69D31A642B01D903233F
:1029E000B9E16C4B1B6803F40033002BF0D100E01D
:1029F00000BF7B681B6803F00203002B63D0654BAC
:102A00009B6803F00C03002B0BD0624B9B6803F018
:102A10000C03082B1CD15F4B5B6803F48003002B75
:102A200016D15C4B1B6803F00203002B05D07B68BA
:102A3000DB68012B01D001238DE1564B1B6823F08D
:102A4000F8027B681B69DB00524913430B603AE0D4
:102A50007B68DB68002B20D04F4B01221A60FEF709
:102A600017FD386108E0FEF713FD02463B69D31AF3
:102A7000022B01D903236EE1464B1B6803F00203CE
:102A8000002BF0D0434B1B6823F0F8027B681B69D6
:102A9000DB00404913430B6015E03F4B00221A60F6
:102AA000FEF7F6FC386108E0FEF7F2FC02463B69EF
:102AB000D31A022B01D903234DE1364B1B6803F0D7
:102AC0000203002BF0D17B681B6803F00803002B86
:102AD00030D07B685B69002B16D0304B01221A6026
:102AE000FEF7D6FC386108E0FEF7D2FC02463B69EF
:102AF000D31A022B01D903232DE1264B5B6F03F080
:102B00000203002BF0D015E0244B00221A60FEF7E0
:102B1000BFFC386108E0FEF7BBFC02463B69D31AF4
:102B2000022B01D9032316E11A4B5B6F03F002035A
:102B3000002BF0D17B681B6803F00403002B00F02E
:102B4000A0800023FB75134B1B6C03F08053002BFC
:102B50000FD10023FB600F4B1B6C0E4A43F08053D8
:102B600013640C4B1B6C03F08053FB60FB68012368
:102B7000FB750B4B1B6803F48073002B21D1084BB2
:102B80001B68074A43F480731360FEF781FC3861C9
:102B900011E000BF0038024000004742800E47426B
:102BA00000700040FEF774FC02463B69D31A022B0A
:102BB00001D90323CFE06A4B1B6803F48073002B19
:102BC000F0D07B689B68012B06D1664B1B6F654A72
:102BD00043F0010313671CE07B689B68052B0CD155
:102BE000604B1B6F5F4A43F0040313675D4B1B6F21
:102BF0005C4A43F0010313670BE05A4B1B6F594AC1
:102C000023F001031367574B1B6F564A23F004034D
:102C100013677B689B68002B15D0FEF739FC386181
:102C20000AE0FEF735FC02463B69D31A41F28832CE
:102C3000934201D903238EE04A4B1B6F03F002033A
:102C4000002BEED014E0FEF723FC38610AE0FEF71B
:102C50001FFC02463B69D31A41F28832934201D9E4
:102C6000032378E03F4B1B6F03F00203002BEED1F0
:102C7000FB7D012B05D13B4B1B6C3A4A23F0805363
:102C800013647B689B69002B64D0364B9B6803F010
:102C90000C03082B5CD07B689B69022B41D1324B23
:102CA00000221A60FEF7F4FB386108E0FEF7F0FB43
:102CB00002463B69D31A022B01D903234BE0294B6F
:102CC0001B6803F00073002BF0D17B68DA697B6826
:102CD0001B6A1A437B685B6A9B011A437B689B6A89
:102CE0005B08013B1B041A437B68DB6A1B061D491A
:102CF00013434B601C4B01221A60FEF7C9FB38617D
:102D000008E0FEF7C5FB02463B69D31A022B01D946
:102D1000032320E0134B1B6803F00073002BF0D05B
:102D200018E0114B00221A60FEF7B2FB386108E090
:102D3000FEF7AEFB02463B69D31A022B01D90323EF
:102D400009E0084B1B6803F00073002BF0D101E091
:102D5000012300E0002318461837BD4680BD00BFA0
:102D600000700040003802406000474280B584B0E7
:102D700000AF786039607B68002B01D10123CAE085
:102D8000674B1B6803F00F033A689A420CD9644BF7
:102D90003A68D2B21A70624B1B6803F00F033A68AC
:102DA0009A4201D00123B6E07B681B6803F002035E
:102DB000002B20D07B681B6803F00403002B05D098
:102DC000584B9B68574A43F4E05393607B681B68F9
:102DD00003F00803002B05D0524B9B68514A43F483
:102DE000604393604F4B9B6823F0F0027B689B68C5
:102DF0004C4913438B607B681B6803F00103002B75
:102E000044D07B685B68012B07D1464B1B6803F4F9
:102E10000033002B19D101237DE07B685B68022B16
:102E200003D07B685B68032B07D13E4B1B6803F024
:102E30000073002B09D101236DE03A4B1B6803F0AE
:102E40000203002B01D1012365E0364B9B6823F080
:102E500003027B685B68334913438B60FEF718FB02
:102E6000F8600AE0FEF714FB0246FB68D31A41F251
:102E70008832934201D903234DE02A4B9B6803F02B
:102E80000C027B685B689B009A42EBD1244B1B6869
:102E900003F00F033A689A420CD2214B3A68D2B23F
:102EA0001A701F4B1B6803F00F033A689A4201D057
:102EB000012330E07B681B6803F00403002B08D07B
:102EC000184B9B6823F4E0527B68DB681549134379
:102ED0008B607B681B6803F00803002B09D0114B43
:102EE0009B6823F460427B681B69DB000D49134338
:102EF0008B6000F01DF801460A4B9B681B0903F02C
:102F00000F03094AD35C21FA03F3084A1360002037
:102F1000FEF77AFA002318461037BD4680BD00BF81
:102F2000003C024000380240506E00089000002033
:102F3000F0B585B000AF00237B600023FB60002369
:102F40003B600023BB60634B9B6803F00C03042BC6
:102F500007D0082B08D0002B40F0B4805E4BBB603C
:102F6000B3E05E4BBB60B0E05A4B5B6803F03F03DD
:102F70007B60584B5B6803F48003002B4AD0554BB1
:102F80005B689B094FF0000440F2FF114FF0000214
:102F900003EA010504EA0206294632464FF000031F
:102FA0004FF00004540144EAD1644B011946224613
:102FB000491B62EB06024FF000034FF0000494013E
:102FC00044EA91648B015B1A64EB02044FF0000148
:102FD0004FF00002E20042EA5372D9000B46144659
:102FE0005B1944EB06044FF000014FF0000262024F
:102FF00042EAD35259020B461446184621467B68D2
:103000004FF000041A462346FDF786FD03460C46A2
:10301000FB6049E02F4B5B689B094FF0000440F2D6
:10302000FF114FF0000203EA010504EA02062946F7
:1030300032464FF000034FF00004540144EAD164DB
:103040004B0119462246491B62EB06024FF0000372
:103050004FF00004940144EA91648B015B1A64EB25
:1030600002044FF000014FF00002E20042EA537206
:10307000D9000B4614465B1944EB06044FF00001DF
:103080004FF00002A20242EA935299020B46144604
:10309000184621467B684FF000041A462346FDF788
:1030A0003BFD03460C46FB600A4B5B681B0C03F0C0
:1030B000030301335B003B60FA683B68B2FBF3F348
:1030C000BB6002E0044BBB6000BFBB68184614370E
:1030D000BD46F0BD003802400024F40000127A0022
:1030E00090B486B000AFF860B9607A6000237B616D
:1030F00012E07B691B01FA6813447A691201B9680E
:103100008818D3E90012D3E90234C0E90012C0E9FB
:1031100002347B6901337B617B697A689A42E8D823
:1031200000BF1837BD4690BC70470000000000008B
:103130002DE9F04F8DB000AFF860B9607A603B6068
:103140003968F86800F0ACF93B68FB610023BB62AA
:103150000BE1B86AFDF79EF903460C4644EC113BBF
:103160009FED950B00F0CCFF54EC103B1846214628
:10317000FDF7AAFC0346BB6100237B62FA69BB6AC8
:10318000D31A013B1846FDF785F903460C4644EC7B
:10319000113B9FED890B00F0B3FF51EC100B4FF08A
:1031A00000024FF08043FDF709FB03460C4618462A
:1031B0002146FDF789FC03467B6100233B62C6E0A4
:1031C0007B6A002B02D10023FB620AE07B6A7A69EA
:1031D00002FB03F3FB62FB6A802B02D1FB6A013B1B
:1031E000FB627A6ABB699A4252DB3A6ABB69D31ABC
:1031F0001B01FA681344D3E90056D3E90289FB6A3C
:103200001B017A68134493ED007B93ED026B3B6ADC
:103210001B01FA68134493ED005B93ED024BB0EE93
:10322000443AF0EE643AB0EE452AF0EE652AB0EE8C
:10323000461AF0EE661AB0EE470AF0EE670AFDF79E
:1032400083FCB0EE406AF0EE606AB0EE417AF0EED8
:10325000617A51EC160B5BEC17AB3B6A1B01BA6849
:10326000D41802460B4628463146FCF7C7FF0246F3
:103270000B4615461E4652465B4640464946FCF7FD
:10328000BDFF02460B46C4E90056C4E9022351E0E3
:103290003B6A1B01FA681344D3E90056D3E902895B
:1032A000FB6A1B017A68134493ED007B93ED026B7C
:1032B0003A6ABB6913441B01FA68134493ED005B3F
:1032C00093ED024BB0EE443AF0EE643AB0EE452A8C
:1032D000F0EE652AB0EE461AF0EE661AB0EE470A36
:1032E000F0EE670AFDF730FCB0EE406AF0EE606A7F
:1032F000B0EE417AF0EE617A51EC160B5BEC17AB55
:103300003B6A1B01BA68D41802460B462846314670
:10331000FCF774FF02460B4615461E4652465B46B6
:1033200040464946FCF76AFF02460B46C4E9005690
:10333000C4E902237B6A01337B62BB695B007A6A62
:103340009A4201D100237B623B6A01333B623A6AB5
:10335000FB699A42FFF634AFFB683B61BB68FB60D8
:103360003B69BB60BB6A0133BB62B86AFDF792F888
:1033700004460D46F869FDF78DF802460B4643EC0E
:10338000102B00F03DFE51EC100B0DA3D3E90023F0
:10339000FDF714FA02460B4620462946FDF756FB78
:1033A0000346002B7FF4D5AE00BF3437BD46BDE8E1
:1033B000F08F00BFAFF3008000000000000000406D
:1033C000EF39FAFE422EE63F2DE9F04F85B000AF0F
:1033D000786039600023FB6055E0F868FDF74AF833
:1033E000804689464FF000024FF000434046494670
:1033F000FDF7BAF803460C469A46A3463868FDF72F
:1034000039F804460D4622462B4650465946FDF7EC
:10341000D5F902460B4692469B461FA3D3E90023EB
:1034200040464946FDF7A0F802460B4610461946AD
:1034300022462B46FDF7C2F903460C4655465E462A
:1034400018462146FB681B017A68D41846EC165BC7
:1034500041EC170BB0EE460AF0EE660AB0EE471AE2
:10346000F0EE671A00F0C2FBB0EE406AF0EE606A60
:10347000B0EE417AF0EE617A84ED006B84ED027B70
:10348000FB680133FB60FA683B689A42A5D300BF32
:103490001437BD46BDE8F08F182D4454FB2119C0E8
:1034A000B0B58EB000AF786039603868FCF7E2FFE5
:1034B00003460C4644EC103B00F0A2FD51EC100B0F
:1034C00053A3D3E90023FDF779F903460C461846C8
:1034D0002146FDF7F9FA03467B6200237B6388E00F
:1034E0007B6B3B630023FB620023BB6253E0386BC2
:1034F000FCF7D0FF03460C469FED431B44EC103B0A
:1035000000F016FD54EC103B18462146FDF7DCFA9E
:103510000346FB60F868FCF7BDFF04460D467B6A76
:103520005A1EBB6AD31A1846FCF7B4FF02460B4674
:1035300043EC112B9FED340B00F0E2FD53EC102B0C
:1035400020462946FDF710F803460C4625461C4642
:10355000F86AFCF79FFF02460B4620462946FCF717
:103560004DFE03460C4618462146FDF7ADFA0346CC
:10357000FB623B6BDA0F13445B101846FCF78AFFC3
:1035800003460C4618462146FDF79EFA03463B6368
:10359000BB6A0133BB623B6B002BA8D17B6B1B0169
:1035A0007A681A44D2E90034C7E90434D2E9023413
:1035B000C7E90634FB6A1B017A6813447A6B12016F
:1035C00079688818D3E90012D3E90234C0E90012FF
:1035D000C0E90234FB6A1B017A681A44D7E9043453
:1035E000C2E90034D7E90634C2E902347B6B013307
:1035F0007B633B685A087B6B9A423FF671AF00BF12
:103600003837BD46B0BD00BF0000000000000040DC
:10361000EF39FAFE422EE63F90B585B000AF7860F4
:103620004FF400510B48FFF74CF93B1D1846FEF7CD
:1036300051F803461846FCF71DFF03460C46C7E940
:103640000234054B1B680133034A136000BF143773
:10365000BD4690BD00180240980A002090B585B084
:1036600000AF78604FF400510B48FFF72AF93B1D7B
:103670001846FEF72FF803461846FCF7FBFE0346F4
:103680000C46C7E90234054B1B680133034A13603B
:1036900000BF1437BD4690BD001802402001002035
:1036A00080B500AFFDF78EFE00F02AF800F004F9B7
:1036B00000F0E2F800F08EF808220B490B48FDF705
:1036C00037FF80210A48FFF77FFE0A4B1B681A4626
:1036D00009490A48FFF704FD064B1B68044A0649DE
:1036E0000648FFF725FDFEE7F4090020A8090020A1
:1036F000A801002008000020280100201000002060
:1037000080B594B000AF07F12003302200211846A5
:1037100003F084FB07F10C0300221A605A609A60E0
:10372000DA601A610023BB60284B1B6C274A43F008
:1037300080531364254B1B6C03F08053BB60BB6844
:1037400000237B60224B1B68214A43F440431360F3
:103750001F4B1B6803F440437B607B6802233B6282
:103760000123FB6210233B630223BB630023FB6343
:1037700008233B64A8237B640223BB640323FB640C
:1037800007F120031846FFF7AFF80346002B01D0DE
:1037900000F0ECF80F23FB6002233B6100237B6108
:1037A0004FF4A053BB614FF48053FB6107F10C034E
:1037B00005211846FFF7DAFA0346002B01D000F086
:1037C000D5F800BF5037BD4680BD00BF003802406D
:1037D0000070004080B584B000AF3B4600221A6004
:1037E0005A609A60DA60214B214A1A601F4B4FF4ED
:1037F00000325A601D4B4FF000729A601B4B002242
:103800001A611A4B01229A61184B00221A62174B57
:103810000022DA62154B174A9A62144B0022DA60D2
:10382000124B0122DA61114B01221A630F4B012264
:103830005A610E48FDF738FE0346002B01D000F018
:1038400095F801233B6001237B600523BB603B4669
:1038500019460648FDF756FF0346002B01D000F03D
:1038600085F800BF1037BD4680BD00BFA809002005
:10387000002001400100000F80B582B000AF00239E
:103880007B600C4B1B6B0B4A43F480031363094BA7
:103890001B6B03F480037B607B68002200213820CF
:1038A000FEF79FFA3820FEF7B8FA00BF0837BD468A
:1038B00080BD00BF0038024080B58EB000AF07F178
:1038C000240300221A605A609A60DA601A6107F1D4
:1038D000100300221A605A609A60DA601A610023AD
:1038E000FB60204B1B6B1F4A43F0800313631D4B8F
:1038F0001B6B03F08003FB60FB680023BB60194B6C
:103900001B6B184A43F001031363164B1B6B03F048
:103910000103BB60BB6800237B60124B1B6B114A29
:1039200043F0400313630F4B1B6B03F040037B60BA
:103930007B6800224FF4C0410B48FEF7A9FF4FF40B
:10394000C0437B620123BB620023FB6200233B6315
:1039500007F1240319460448FEF7F0FD00BF38378D
:10396000BD4680BD003802400018024080B400AF60
:1039700000BFBD465DF8047B7047000080B483B093
:1039800000AF00237B60104B5B6C0F4A43F4804315
:1039900053640D4B5B6C03F480437B607B680023B6
:1039A0003B60094B1B6C084A43F080531364064B81
:1039B0001B6C03F080533B603B6800BF0C37BD4677
:1039C0005DF8047B704700BF0038024080B58AB0C4
:1039D00000AF786007F1140300221A605A609A6001
:1039E000DA601A617B681B682F4A934258D1002322
:1039F0003B612E4B5B6C2D4A43F4807353642B4B1D
:103A00005B6C03F480733B613B690023FB60274BD5
:103A10001B6B264A43F001031363244B1B6B03F01B
:103A20000103FB60FB6802237B610323BB6100236E
:103A3000FB6107F1140319461D48FEF77FFD1D4B7E
:103A40001D4A1A601B4B00225A601A4B00229A60D2
:103A5000184B0022DA60174B4FF480621A61154B45
:103A60004FF480525A61134B4FF480429A61114BCC
:103A70004FF48072DA610F4B4FF400321A620D4B33
:103A800000225A620B48FEF7E3F90346002B01D0EF
:103A9000FFF76CFF7B68074A9A63064A7B6893636B
:103AA00000BF2837BD4680BD0020014000380240DD
:103AB00000000240140A00201064024080B400AFED
:103AC00000BFBD465DF8047B704780B400AFFEE7E1
:103AD00080B400AFFEE780B400AFFEE780B400AF73
:103AE000FEE780B400AF00BFBD465DF8047B7047C1
:103AF00080B400AF00BFBD465DF8047B704780B462
:103B000000AF00BFBD465DF8047B704780B500AFD5
:103B1000FDF7AAFC00BF80BD80B500AF0248FEF7EC
:103B2000A5FA00BF80BD00BF140A002080B400AF1A
:103B3000164BD3F88830154A43F47003C2F8883026
:103B4000134B1B68124A43F001031360104B002211
:103B50009A600F4B1B680E4A23F0847323F4803362
:103B600013600B4B0B4A5A60094B1B68084A23F43D
:103B700080231360064B0022DA60044B4FF0006292
:103B80009A6000BFBD465DF8047B704700ED00E021
:103B90000038024010300024DFF834D0002103E068
:103BA0000C4B5B58435004310B480C4B42189A4263
:103BB000F6D30B4A02E0002342F8043B094B9A4239
:103BC000F9D3FFF7B3FF03F005F9FFF769FD70477D
:103BD00000000320B870000800000020FC00002056
:103BE000000100209C0A0020FEE700002DE9F041C2
:103BF0002DED068BB0EE40AAF0EE60AAB0EE418A41
:103C0000F0EE618A00F050F8B0EE481AF0EE681A53
:103C1000B0EE409AF0EE609AB0EE4A0AF0EE6A0A10
:103C200000F03CF8B0EE408AF0EE608AB0EE490A4F
:103C3000F0EE690A00F0FCF857EC106BB0EE480AA1
:103C4000F0EE680A00F094F832463B4651EC100B57
:103C5000FCF78AFCB0EE480AF0EE680A04460D460E
:103C600000F026F8324651EC100B3B46FCF77CFC8A
:103C7000002206460F46002320462946FCF774FC26
:103C800002460B4630463946FCF7B8FABDEC068BC7
:103C900045EC114B41EC100BBDE8F081B0EE410A50
:103CA000F0EE610A704700BF704700BF00000000DF
:103CB00000B551EC100B2C4A21F00043934285B023
:103CC00020DD2A4A934209DD10EE102A0B46FCF74C
:103CD00093FA41EC100B05B05DF804FB684601F067
:103CE0009FFD00F00300012817D002282FD028B331
:103CF00001209DED021B9DED000B02F0D5FD51EC66
:103D0000100BE6E79FED161B02F07EF851EC100B4E
:103D100041EC100B05B05DF804FB9DED021B9DED21
:103D2000000B02F0C1FD53EC102B10EE100A03F152
:103D3000004141EC100B05B05DF804FB9DED021B4A
:103D40009DED000B02F060F851EC100BC1E79DED0A
:103D5000021B9DED000B02F057F8E4E7AFF3008083
:103D60000000000000000000FB21E93FFFFFEF7FA3
:103D700000B551EC100B2C4A21F00043934285B062
:103D800027DD2A4A934209DD10EE102A0B46FCF784
:103D900033FA41EC100B05B05DF804FB684601F006
:103DA0003FFD00F0030001281FD0022830D028B3C7
:103DB0009DED021B9DED000B02F026F853EC102B3D
:103DC00010EE100A03F1004141EC100B05B05DF854
:103DD00004FB00209FED121B02F066FD51EC100B5E
:103DE00041EC100B05B05DF804FB9DED021B9DED51
:103DF000000B02F009F851EC100BCAE701209DED11
:103E0000021B9DED000B02F04FFD51EC100BC0E7C3
:103E100001209DED021B9DED000B02F045FDCDE75D
:103E20000000000000000000FB21E93FFFFFEF7FE2
:103E3000F0B52DED048BB0EE408AF0EE608A384C80
:103E40008BB000F0F9FA94F90030B0EE409AF0EE41
:103E5000609A013334D0B0EE480AF0EE680A02F0FE
:103E6000F7FD68B32AA3D3E9002351EC180BFCF744
:103E70000BFE054660BB28A3D3E9002351EC180BC9
:103E8000FCF7E4FDE0B194F90030264A08950026DD
:103E900000270421022B8DED048B8DED028BCDE9E3
:103EA0000667CDE900122CD0684602F061FE40B3EF
:103EB000089B1BB102F088FF089B03609DED069BE9
:103EC000B0EE490AF0EE690A0BB0BDEC048BF0BD10
:103ED000144A94F900300192032100228DED048BE5
:103EE0008DED028B009108922BB90F4B4FF0604281
:103EF000CDE90623D8E70D490020022BCDE90601C4
:103F0000D2D102F061FF22230360D1E7AFF300803A
:103F1000EF39FAFE422E864051302DD5104987C028
:103F200094000020686E0008FFFFEF470000F07F5C
:103F30002DE9F0432DED028B8BB057EC106B55EC57
:103F4000114B00F00FFC2C4BB0EE408AF0EE608A73
:103F500093F90080B8F1FF3F35D022462B4620462A
:103F60002946FCF79BFD70BB32463B46304639463E
:103F7000FCF794FD814630BB0022002320462946F1
:103F8000FCF75AFDF8B11D4BCDF820900122CDE988
:103F90000267CDE90445CDE90023B8F1000F1BD03D
:103FA0000022002310461946FCF708FCB8F1020F66
:103FB000CDE9060112D102F007FF21230360089B1F
:103FC000A3B99DED068BB0EE480AF0EE680A0BB07F
:103FD000BDEC028BBDE8F083CDE90667684602F0D0
:103FE000C7FD0028E7D0089B002BEAD002F0ECFECA
:103FF000089B0360E5E700BF940000206C6E00089A
:10400000F0B52DED028B8BB055EC104B00F0D0FCD1
:10401000364BB0EE408AF0EE608A93F90060731C74
:104020000DD022462B4620462946FCF737FD30B9F5
:104030000022002320462946FCF726FD38B1B0EEC9
:10404000480AF0EE680A0BB0BDEC028BF0BD284BBD
:104050000890CDE90245CDE904450193B6B9254F55
:104060004FF060462046294600220023CDE906672E
:10407000FCF7E2FC88B302230093684602F078FD67
:1040800098B1089BB3B99DED068BD8E71A4B002277
:10409000CDE906232046294600220023FCF7CCFC6C
:1040A00068B102239E420093E7D102F08DFE2223E5
:1040B0000360E6E702F088FE089B0360E3E7012364
:1040C000022E00930BD102F07FFE212303600B48E8
:1040D00002F052FD8DED060BD3E7012300936846F5
:1040E00002F046FD0028F2D1EDE700BF9400002069
:1040F000746E0008FFFFEFC70000F0FF706E00084D
:104100002DE9F04F2DED028BDFF824A38BB057EC97
:10411000106B55EC114B00F027FE9AF90080B0EEC1
:10412000408AF0EE608AB8F1FF3F33D022462B463A
:1041300020462946FCF7B2FC834658BB32463B4634
:1041400030463946FCF7AAFC8146002866D1304645
:10415000394600220023FCF76FFC20B30022002325
:1041600020462946FCF768FC834600287DD09FED59
:10417000A67B0122AA4BCDF820900092CDE90267E0
:10418000CDE904458DED067B0193B8F1000F5ED0BB
:104190009FED9F8BB0EE480AF0EE680A0BB0BDECC5
:1041A000028BBDE8F08FB0EE480AF0EE680A02F02C
:1041B0004FFC8046002800F082804FF000084FF04E
:1041C000000951EC180B42464B46FCF735FC002821
:1041D000E0D047EC106B02F03BFC0028DAD045EC55
:1041E000104B02F035FC0028D4D09AF900308C4AEC
:1041F000019204210022022BCDE90267CDE904459A
:10420000CDE906890091089203D0684602F0B0FC1F
:1042100010BB02F0D9FD222303601DE00022002321
:1042200020462946FCF708FC0028B3D09FED788B88
:1042300001227B4BCDF820B0B8F1020F0092CDE9FE
:104240000267CDE904458DED068B0193A2D0684647
:1042500002F08EFC002878D0089B1BB102F0B4FD60
:10426000089B03609DED068B94E745EC104B02F034
:10427000EFFB00288ED00022002320462946FCF7C1
:10428000E5FB002886D0664A9AF90030CDF820B0C8
:104290000121CDE90267CDE90445CDE90012002BEB
:1042A00058D060490020022BCDE9060156D102F01A
:1042B0008BFD21230360089B002BD3D0CEE747EC76
:1042C000106B02F0C5FB00283FF477AF45EC104BB4
:1042D00002F0BEFB00283FF470AF53EC182B18EE31
:1042E000100A1946FCF7DAFB9AF9009000286FD102
:1042F0000323DFF82CC108902946204600930022B2
:10430000494BCDF804C0CDE90445CDE90267FCF77F
:104310002BF904460D46B9F1000F25D1DFF81491B1
:104320004FF060480022002330463946CDE9068927
:10433000FCF78CFB38BB684602F01AFC0028BAD1A7
:1043400002F042FD22230360B5E702F03DFD212388
:10435000036081E79FED2C7B8DED067B684602F0C4
:1043600007FC0028A7D1A2E79FED2B7B00220023AA
:10437000304639468DED067BFCF768FBB0B9B9F1E4
:10438000020FDDD0D7E745EC104B02F0FDFB2246D3
:104390002B4651EC100BFCF74FFBB0B9234B9AF9AD
:1043A00000904FF06042CDE90623E8E745EC104B62
:1043B00002F0EAFB22462B4651EC100BFCF73CFBCB
:1043C00018B9184B0022CDE906239AF90090D6E7D8
:1043D0000122134BCDF820800092CDE90267CDE990
:1043E00004450193B9F1000FB4D000220023104618
:1043F0001946FCF7E3F9B9F1020FCDE906013FF4E4
:1044000056AFABE7AFF300800000000000000000F3
:10441000000000000000F03F000000000000F07FFE
:10442000786E00080000F0FF0000E03FFFFFEFC7DC
:1044300094000020FFFFEF472DE9F04755EC104BAB
:10444000BF4925F000428A4284B04FEAD57612D99E
:10445000BC498A4240F28E80C5F31303234310EE19
:10446000102A40F00081002E00F081809FED9C0B0F
:1044700004B0BDE8F087B44B9A4200F2BB80B34B66
:104480009A4240F2D9804FF0000A22462B4620463D
:104490002946FCF769F894A3D3E9002306460F46A2
:1044A000FCF762F892A3D3E90023FBF7A5FE32469E
:1044B0003B46FCF759F890A3D3E90023FBF79EFE97
:1044C00032463B46FCF750F88DA3D3E90023FBF7B7
:1044D00093FE32463B46FCF747F88BA3D3E9002313
:1044E000FBF78CFE32463B46FCF73EF802460B4695
:1044F00020462946FBF780FE02460B4606460F463D
:1045000020462946FCF730F880468946BAF1000F6C
:1045100000F0BF8032463B4600204FF08041FBF761
:104520006BFE02460B4640464946FCF747F90246F9
:104530000B46DDE90201FBF75FFEDDE90023FBF737
:104540005BFE0B46024682490020FBF755FE6FF4E6
:104550007F739A4580F2B9800AF57A7A01EB0A51A5
:1045600000224FF0B873FBF7FFFF41EC100B04B0D3
:10457000BDE8F08766A3D3E9002310EE100A2946B0
:10458000FCF782FA002878D163A3D3E90023204600
:104590002946FCF75BFA00287FF468AF6D4960A3F9
:1045A000D3E9002301EBC60620462946FBF7DCFFD2
:1045B000D6E90023FBF722FEFCF786FA8246FBF7DA
:1045C00069FF59A3D3E9002306460F46FBF7CCFF4A
:1045D00002460B4620462946FBF70EFE54A3D3E9BC
:1045E0000023CDE9000130463946FBF7BDFFCDE998
:1045F000020118E0584B9A42D0D8584BF7003B4480
:10460000D3E9002310EE100A2946FBF7F5FD544BC1
:104610003B4493ED007BCDE900018DED027BC6F1BB
:10462000010AAAEB060ADDE90223DDE90001FBF736
:10463000E3FD04460D4628E73FA3D3E9002310EE2F
:10464000100A2946FBF7DAFD0022414BFCF71CFA61
:10465000002841D02046294600223D4BFBF7CEFDE5
:1046600041EC100B83E72B4620462946FBF7C6FD9D
:1046700041EC100B04B0BDE8F0872FA3D3E9002371
:1046800010461946FBF770FF41EC100B04B0BDE873
:10469000F0873046394600224FF08043FBF7ACFDEF
:1046A00002460B4640464946FCF788F822462B4610
:1046B000FBF7A2FD02460B4600202549FBF79CFDB7
:1046C00041EC100B04B0BDE8F08701EB0A5141EC5E
:1046D000100B04B0BDE8F0878246D6E6AFF3008049
:1046E0000000000000000000D0A4BE726937663EE2
:1046F000F16BD2C541BDBB3E2CDE25AF6A56113FE2
:1047000093BDBE166CC1663F3E5555555555C53FC8
:10471000EF39FAFE422E864051302DD5104987C020
:10472000FE822B654715F73F0000E0FE422EE63F74
:10473000763C7935EF39EA3D9C7500883CE4377E5C
:10474000412E8640FFFFEF7F422ED63FFFFF2F3ED8
:104750000000F03F806E0008B1A2F03F906E0008AC
:10476000A06E000853EC112B2DE9F04723F0004E0A
:104770005EEA020651EC100B24D0854E21F0004871
:10478000B04589461EDC56421643824F4EEAD67625
:10479000BE4211EE104A15D8F0451D4611EE10CA62
:1047A00010EE10AA10EE107A01F0004617DC13DBB1
:1047B000904211D313D1784BF60F03EBC60393ED60
:1047C000000B07E0FBF7D0FE02460B46FBF7F6FFB7
:1047D00041EC100BBDE8F08741EC100BFAE7B8F59F
:1047E000801F3BDB4FEA2852A2F2FF32BEF5801F4A
:1047F00080F29080BEF1000F40F0A080002C234694
:10480000664904DD5B00002B01F1FF31FADC644BEB
:104810009A4271DBC9F3130343F480136048814269
:104820005CDBC5F3130444F48014501A07E052EA29
:10483000050321D0EB0F03EB42036F0001381A1B75
:10484000A7EB0C05F8B1674538BF02F1FF32002A2B
:10485000EDDAFA0F02EB43037F00EFE7B8F1000F48
:104860005DD1BAF1000F53464C4ABFDD5B00002B0F
:1048700002F1FF32FADCB9E7474BF60F03EBC6064D
:1048800096ED000BA6E7674538BF02F1FF32002A1C
:10489000BCBF3D461A4652EA0503EDD0414882426C
:1048A00008DCEB0F03EB4202824201F1FF314FEAD9
:1048B0004505F6DD3A4B99424FDA5B1A142B57DC6B
:1048C00001F21E41DD4002FA01F142FA03F32943ED
:1048D0001E4333460A4643EC102B7BE7401A1F2841
:1048E00026DC01F21E450EFA00FE24FA05F504FA54
:1048F00000FC45EA0E0498E79F1A1F2F27DC02F2FE
:104900001E4308FA07F82AFA03F30AFA07F743EAFC
:10491000080383E74FEA2E51A1F2FF3177E7204ADF
:104920004FEAC8235B00002B02F1FF32FADC5DE79F
:104930001D4D6D1AAC404FF0000C76E718494FEA58
:10494000CE235B00002B01F1FF31FADC5FE7164B51
:104950009B1A0AFA03F3002760E7A2F580121643B8
:1049600001F2FF3146EA01532A4643EC102B31E7AE
:104970001F2B07DC01F21E4102FA01F125FA03F2B6
:104980001143A6E7084B591A42FA01F1A1E700BF0B
:10499000FFFFEF7F0000F07FB06E0008EDFBFFFF30
:1049A00002FCFFFFFFFF0F00E2FBFFFF0000000023
:1049B0002DE9F04F51EC100BB1F5801F85B00B467F
:1049C00080F2CE8021F00042024300F0D88000291E
:1049D000C0F2EA800022DE4BFBF7C6FDDD4A0B4643
:1049E00093426FF0350700F3C180C3F3130505F55B
:1049F000152606F6647606F4801686F07F5282F459
:104A0000401242EA05011C150022D34BFBF7F4FBD0
:104A1000AB1CA4F2FF34C3F313033C44022B04EB9E
:104A2000165482468B464FF0000240F3B3804FF09D
:104A30008043FBF7E3FB02460B4650465946FBF723
:104A4000BDFE064620460F46FBF724FD3246CDE963
:104A500002013B4630463946CDE90067FBF784FD4D
:104A600002460B4680468946FBF77EFDA2A3D3E9AA
:104A7000002306460F46FBF777FDA1A3D3E90023E9
:104A8000FBF7BCFB32463B46FBF76EFD9EA3D3E92A
:104A90000023FBF7B3FB32463B46FBF765FD9CA3C7
:104AA000D3E90023FBF7AAFB42464B46FBF75CFD2C
:104AB00099A3D3E900238046894630463946FBF75F
:104AC00053FD97A3D3E90023FBF798FB32463B46FF
:104AD000FBF74AFD94A3D3E90023FBF78FFB324693
:104AE0003B46FBF741FD0B46024649464046FBF775
:104AF00085FBA5F5C223C5F5D725A3F27A43513529
:104B00001D43002D06460F4640F38F800022934B35
:104B100050465946FBF728FD52465B46FBF724FDFD
:104B200002460B468046894630463946FBF766FB0F
:104B3000DDE90023FBF718FD06460F46002C40F088
:104B40008B8002460B4640464946FBF755FB024622
:104B50000B4650465946FBF74FFB41EC100B0BE060
:104B60007C4A93424FF000077FF73FAF02460B4667
:104B7000FBF744FB41EC100B05B0BDE8F08F0022C1
:104B8000002300207649FBF719FE41EC100B05B01D
:104B9000BDE8F08F0023FBF74FFF80B1002C40F001
:104BA00084809FED630BE7E710EE102AFBF724FBF0
:104BB00000220023FBF702FE41EC100BDCE75EA3B2
:104BC000D3E9002350465946FBF7CEFC02460B467C
:104BD00000206249FBF710FB524606460F465B4633
:104BE00050465946FBF7C0FC02460B463046394654
:104BF000FBF7BAFC06460F462CB32046FBF74AFCEF
:104C00004FA3D3E9002380468946FBF7ADFC4EA3B2
:104C1000D3E9002304460D4640464946FBF7A4FC71
:104C200002460B46304639462EE002460B465046B9
:104C30005946FBF7E1FADDE90023FBF795FC064650
:104C40000F46002C4DD132463B4650465946FBF7A5
:104C5000D3FA41EC100B8FE739A3D3E90023DDE948
:104C60000201FBF781FC38A3D3E9002304460D467B
:104C7000DDE90201FBF778FC32463B46FBF7BEFA62
:104C800002460B4640464946FBF7B6FA52465B469B
:104C9000FBF7B2FA02460B4620462946FBF7ACFA70
:104CA00041EC100B05B0BDE8F08F2046FBF7F2FB9E
:104CB00023A3D3E9002306460F46FBF755FC22A3A6
:104CC000D3E9002304460D4630463946FBF74CFC39
:104CD00002460B4620462946FBF790FA41EC100BA2
:104CE0004AE7DDE9028916A3D3E900234046494695
:104CF0008BE700BFAFF3008044523EDF12F1C23FAA
:104D0000DE03CB966446C73F599322942449D23F91
:104D1000935555555555E53F9FC678D0099AC33FE1
:104D2000AF788E1DC571CC3F04FA97999999D93FF8
:104D30000000000000000000555555555555D53F61
:104D40000000E0FE422EE63F763C7935EF39EA3D41
:104D500000005043FFFFEF7F0000F03F0000E03F06
:104D6000000050C3000000002DE9F04F51EC110B82
:104D700021F0004555EA000393B010D059EC108B98
:104D80006D4B29F000449C424E4610EE10AA0DDDFA
:104D900004F1404404F5801454EA0A0356D16749EB
:104DA000002041EC100B13B0BDE8F08F0F4611EE60
:104DB00010CA48D09D42EBDC5F4B9D425FD0002E75
:104DC000CDE900015FDB4FF0000BBCF1000F0ED10D
:104DD000594B9D4243D0594B9D4200F08C80B7F116
:104DE000804F00F09E80564B9F4200F0B88349EC04
:104DF000108B01F023FE51EC100BBAF1000F06D11D
:104E0000002C5AD04D4B26F040429A4255D0F60F16
:104E100006F1FF3A5BEA0A0373D04A4B9D4240F326
:104E2000998003F104739D4240F33884464B9C42C1
:104E300072DD002F72DD3EA3D3E900231046194630
:104E4000FBF792FBADE7B8F1000F05D03F4813B078
:104E5000BDE8F04F01F090BEA542F7DCACE704F1ED
:104E6000404303F5801353EA0A0398D0364B9C4223
:104E700040F37F83002F51DBDDE9000191E7BCF1B6
:104E8000000F9CD084E7324B9D4231DCA3F1547378
:104E90009D4298DD2B15A3F2FF33142B40F3A18321
:104EA000C3F134032CFA03F202FA03F363458AD107
:104EB00002F00102C2F1020B87E7002F05DA024679
:104EC0000B4600201D49FBF779FC002EBFF669AFA9
:104ED00004F1404404F5801454EA0B0300F03A84D2
:104EE000BBF1010F7FF45DAF01F10043194658E7B4
:104EF0004FF0020B69E7002FC0F244834046494659
:104F00004FE742464B4610461946FBF775F90246F5
:104F10000B46FBF753FC44E7002F8CDB00200021FD
:104F20003FE742464B4640464946FBF71DFB38E704
:104F30009C7500883CE4377E0000F07F0000F03F65
:104F40000000E03F0000E041FFFFEF3F706E00080F
:104F5000FFFF3F43B4F5801F80F260830022D04BF7
:104F6000FBF702FB6FF034060C462315CD4AC4F361
:104F70001304A3F2FF3344F07F559E1994420D961B
:104F800045F4401540F33D83C74B9C4240F30184F8
:104F90009FEDAD7B8DED087B8DED107B9FEDAC7BA8
:104FA0008DED067B01360D96A5F580154FF00008B6
:104FB000DDE9062329460646FBF71EF9DDE906234F
:104FC000CDE90A0130462946FBF718F902460B469F
:104FD0000020B649FBF7F2FB03460C46CDE90E3440
:104FE00002460B46DDE90A01FBF7BEFA6B1043F0FF
:104FF000005303F500230A462F46014603EB08053C
:105000000023CDE902120293DDE902890024CDE9F3
:1050100004122B46224640464946FBF7A5FA0246B3
:105020000B46DDE90A01FBF7E7F8DDE90623CDE9E8
:105030000A0120462946FBF7DFF802460B463046B8
:105040003946FBF7D9F842464B46FBF78DFA024644
:105050000B46DDE90A01FBF7CFF8DDE90E23FBF78C
:1050600083FADDE90445CDE9060122462B462046B8
:105070002946FBF779FA78A3D3E9002304460D46C5
:10508000FBF772FA76A3D3E90023FBF7B7F82246C1
:105090002B46FBF769FA74A3D3E90023FBF7AEF8BC
:1050A00022462B46FBF760FA71A3D3E90023FBF7F6
:1050B000A5F822462B46FBF757FA6FA3D3E9002346
:1050C000FBF79CF822462B46FBF74EFA6CA3D3E97C
:1050D0000023FBF793F8224606460F462B46204650
:1050E0002946FBF741FA02460B4630463946FBF7A4
:1050F0003BFA424604460D464B46DDE90401FBF708
:105100007DF8DDE90623FBF72FFA22462B46FBF755
:1051100075F8424606460F464B4640464946FBF761
:1051200023FA0022624BCDE90A01FBF767F8324609
:105130003B46FBF763F802980D46044622462B4691
:1051400040464946FBF710FA002280468946584BF4
:1051500020462946FBF750F8DDE90A23FBF74CF817
:1051600002460B4630463946FBF746F8DDE9042394
:10517000FBF7FAF9224606460F462B46DDE9060103
:10518000FBF7F2F902460B4630463946FBF736F894
:1051900006460F4602460B4640464946FBF72EF8A8
:1051A000029839A3D3E9002304460D46FBF7DCF946
:1051B0004246CDE904014B4620462946FBF71CF840
:1051C00002460B4630463946FBF716F830A3D3E9C2
:1051D0000023FBF7C9F930A3D3E9002306460F46A5
:1051E00020462946FBF7C0F902460B4630463946B1
:1051F000FBF704F8DDE91023FBF700F806460D98ED
:105200000F46FBF747F93246804689463B46DDE9C3
:105210000401FAF7F3FFDDE90823FAF7EFFF42464E
:105220004B46FAF7EBFF029842464B4604460D46C2
:10523000FAF7E2FFDDE90823FAF7DEFFDDE90423F0
:1052400038E000BFAFF30080000000000000000065
:10525000000000000000F03FEF4E454A287ECA3FA4
:1052600065DBC9934A86CD3F01411DA96074D13FDA
:105270004D268F515555D53FFFAB6FDBB66DDB3FEC
:10528000033333333333E33F000000E009C7EE3F1D
:10529000FD033ADC09C7EE3FF5015B14E02F3EBE8B
:1052A000000040438E98030079B60B000000F03FE9
:1052B00000000840FAF7A0FF0B4602463946304688
:1052C000FAF79AFF0BF1FF3353EA0A03CDE9040121
:1052D00000F05F819FEDD27B8DED027BDDE900ABBD
:1052E000002356465F46CDE900670093DDE900677D
:1052F000504632463B465946FAF77EFF22462B4639
:10530000FBF732F95246804689465B46DDE90401E7
:10531000FBF72AF902460B4640464946FAF76EFF6C
:105320003246804689463B4620462946CDE90489D7
:10533000FBF71AF90B46024606460F464046494619
:10534000FAF75CFFD04B994204460D468A4640F37B
:10535000258101F13F4303F5E003034340F0FE8163
:10536000B1A3D3E90023DDE90401FAF747FF324690
:10537000804689463B4620462946FAF73DFF0246CD
:105380000B4640464946FBF77FFB002840F0E6818C
:10539000A8464FEA2853A3F2FE324FF4801313417C
:1053A0005344C3F30A52B94DA2F2FF321541C3F37D
:1053B000130423EA05010020C2F1140B44F4801405
:1053C000BAF1000F02460B4644FA0BFB3046394651
:1053D000B8BFCBF1000BFAF70FFF06460F46324677
:1053E000DDE904013B46FAF709FF4FEA0B5A0D4687
:1053F00000248FA3D3E9002320462946FBF7B4F805
:105400003246804689463B4620462946FAF7F4FE56
:1054100002460B46DDE90401FAF7EEFE86A3D3E966
:105420000023FBF7A1F886A3D3E9002306460F4625
:1054300020462946FBF798F802460B463046394687
:10544000FAF7DCFE06460F4602460B464046494642
:10545000FAF7D4FE42464B4604460D46FAF7CCFE18
:1054600002460B4630463946FAF7C6FE22468046CB
:1054700089462B4620462946FBF776F872A3D3E9E6
:10548000002306460F46FBF76FF871A3D3E900230C
:10549000FAF7B2FE32463B46FBF766F86EA3D3E955
:1054A0000023FAF7ABFE32463B46FBF75DF86CA3F0
:1054B000D3E90023FAF7A0FE32463B46FBF754F847
:1054C00069A3D3E90023FAF799FE32463B46FBF77E
:1054D0004BF802460B4620462946FAF78DFE064653
:1054E0000F4602460B4620462946FBF73DF80022B0
:1054F000CDE900014FF0804330463946FAF77CFE93
:1055000002460B46DDE90001FBF758F94246064624
:105510000F464B4620462946FBF726F842464B46A7
:10552000FAF76CFE02460B4630463946FAF764FE3F
:1055300022462B46FAF760FE02460B4600205449ED
:10554000FAF75AFE8A44BAF5801F02460B46C0F2AB
:1055500030815146DDE90223FBF706F821E4002EF5
:10556000FFF645AC49EC108B13B0BDE8F04F00F0EE
:1055700081BB002FBFF6D2ACDDE90034184604F140
:1055800000410EE442464B4600204149FBF716F924
:1055900007E49FED377B8DED027B9FE63D4B21F0CD
:1055A0000048984540F3E8803B4B0B4403430AD145
:1055B00032463B46FAF720FEDDE90423FBF75AFAB0
:1055C00000283FF4E6AEDDE902012BA3D3E9002376
:1055D000FAF7CAFF28A3D3E90023FAF7C5FFFFF7BC
:1055E000E0BBBCF1000F40F0D080C3F1140345FADA
:1055F00003F202FA03F3AB4200F0E380E346FFF765
:10560000EABB9FED1F7B8DED087B8DED107B9FED41
:10561000047B4FF000088DED067BC9E40026A4E46E
:10562000000000000000F03FFE822B654715973C0C
:1056300000000000432EE63FEF39FAFE422EE63F1F
:10564000396CA80C615C20BED0A4BE726937663E7E
:10565000F16BD2C541BDBB3E2CDE25AF6A56113F72
:1056600093BDBE166CC1663F3E5555555555C53F59
:10567000000000000000F0BF59F3F8C21F6EA50142
:105680000000000000000000FFFF8F40FFFF0F0040
:105690000000F03FFFCB904000346F3F5C4B9C42DA
:1056A0007FF73AAC5B4B9C423FF7C3AB0022594BB0
:1056B000FAF7A2FD46A3D3E9002304460D46FAF704
:1056C00053FF45A3D3E90023804689462046294657
:1056D000FAF74AFF0022CDE902014F4B2046294646
:1056E000FAF742FF02460B463DA1D1E90001FAF765
:1056F00083FD22462B46FAF737FF02460B46002071
:105700004649FAF779FD224606460F462B462046C3
:105710002946FAF729FF02460B4630463946FAF782
:1057200023FF31A3D3E90023FAF71EFF02460B46FD
:10573000DDE90201FAF760FD02460B4606460F4618
:1057400040464946FAF75AFD002004460D464246B7
:105750004B46AFE502460B46FFF7D5BBDDE902013C
:1057600023A3D3E90023FAF7FFFE21A3D3E9002303
:10577000FAF7FAFEFFF715BB284B98453FF709AE3D
:10578000DDE900239246934632E64FF0000BFFF727
:105790002EBB9FED197B8DED087B9FED197B8DED69
:1057A000107B9FED197B4FF480288DED067BFFF772
:1057B000FFBB584643EC102B01F06EFA51EC100B76
:1057C000C8E602F00102C2F1020BFFF704BB00BF02
:1057D000000000604715F73F44DF5DF80BAE543E14
:1057E000555555555555D53FFE822B654715F73F05
:1057F0009C7500883CE4377E0000004003B8E23F1F
:1058000006D0CF43EBFD4C3E000000000000F83F07
:10581000FEFFEF3F0000F03F0000D03F0000E03F00
:105820002DE9F04753EC102BBF4923F000478F427E
:1058300090B040F39380BD498F421C46824629DCDC
:10584000002C194610EE100AADA3D3E9002340F353
:105850009080FAF7D1FCB64B9F4204460D4600F00B
:105860007381A9A3D3E90023FAF7C6FC02460B46CD
:10587000CAE9002320462946FAF7BEFCA2A3D3E9D1
:105880000023FAF7B9FC0125CAE90201284610B045
:10589000BDE8F087A7498F4240F38A80A6498F422E
:1058A00000F320813D15A5F2164510EE100AA7EB76
:1058B000055116460F46FBF707F9FAF7EBFD804650
:1058C000894642464B4630463946CDE90A89FAF7C1
:1058D00093FC0022994BFAF747FE89468046FBF776
:1058E000F3F8FAF7D7FD06460F4632463B464046E8
:1058F0004946CDE90C67FAF77FFC00228F4BFAF797
:1059000033FE00220023CDE90E01FBF795F80028B5
:1059100000F065810023304639460022FBF78CF801
:10592000002814BF01230223854A019202212A463E
:1059300000910AA8514600F0ABFB002C054614DA92
:10594000DAF80420DAF80C3002F1004203F10043E7
:105950004542CAF80420CAF80C3006E080ED000B7E
:1059600000250024C0E902450025284610B0BDE806
:10597000F087FAF743FC6E4B9F4204460D4600F059
:10598000108161A3D3E90023FAF738FC02460B46E5
:10599000CAE9002329462046FAF72EFC5AA3D3E988
:1059A0000023FAF72BFC4FF0FF35CAE90201DCE7D0
:1059B00001F044F859EC108B10EE100A54A3D3E90F
:1059C00000234946FAF7D0FD00225E4BFAF716FC99
:1059D000FBF77AF80546FAF75DFD49A3D3E9002302
:1059E000CDE90601FAF7C0FD02460B46404649469E
:1059F000FAF702FC44A3D3E9002380468946DDE997
:105A00000601CDE90289FAF7AFFD1F2D02460B46CC
:105A1000CDE9042340F3B580DDE90423DDE902018B
:105A2000FAF7EAFB804689463F15C9F30A53FB1A89
:105A3000102B40F3B38038A3D3E90023DDE906013E
:105A4000FAF792FD8046894602460B46DDE90201DF
:105A5000FAF7D2FB02460B46DDE90201CDE9082345
:105A6000FAF7CAFB42464B46FAF7C6FB2CA3D3E92A
:105A7000002380468946DDE90601FAF775FD4246B6
:105A80004B46FAF7B9FB0B46CDE904010246DDE9C6
:105A90000801FAF7B1FBC1F30A53FF1A312F804610
:105AA000894600F39E809DED087BCAE900898DED53
:105AB000027B42464B46DDE90201FAF79DFBDDE938
:105AC0000423FAF799FB002CCAE90201BFF64DAF97
:105AD00009F1004401F100436D42CAE90084CAE9BA
