:020000040800F2
:1000000000000320311A0008CD190008CF1900089C
:10001000D1190008D3190008D51900080000000004
:10002000000000000000000000000000D7190008D8
:10003000D919000800000000DB190008DD190008CC
:10004000811A0008811A0008811A0008811A000824
:10005000811A0008811A0008811A0008811A000814
:10006000811A0008811A0008811A0008811A000804
:10007000811A0008811A0008811A0008811A0008F4
:10008000811A0008811A0008811A0008811A0008E4
:10009000811A0008811A0008811A0008811A0008D4
:1000A000811A0008811A0008811A0008811A0008C4
:1000B000811A0008811A0008811A0008811A0008B4
:1000C000811A0008811A0008811A0008811A0008A4
:1000D000811A0008811A0008811A0008811A000894
:1000E000811A0008811A0008811A0008811A000884
:1000F000811A0008811A0008811A0008811A000874
:10010000811A0008811A0008811A0008811A000863
:10011000811A0008811A0008811A0008811A000853
:10012000811A0008811A0008811A0008811A000843
:10013000811A0008811A0008811A0008811A000833
:10014000811A0008811A0008811A0008811A000823
:10015000811A0008811A0008811A0008811A000813
:10016000811A0008811A0008811A0008811A000803
:10017000811A0008811A0008811A00080000000096
:10018000811A0008811A0008811A0008811A0008E3
:10019000811A0008811A0008811A0008811A0008D3
:0C01A000811A0008811A0008811A00086A
:1001B00010B5054C237833B9044B13B10448AFF3A1
:1001C00000800123237010BD740000200000000097
:1001D000FC34000808B5034B1BB103490348AFF3D7
:1001E000008008BD0000000078000020FC340008FA
:1001F00081F0004102E000BF83F0004330B54FEAD8
:1002000041044FEA430594EA050F08BF90EA020F44
:100210001FBF54EA000C55EA020C7FEA645C7FEAD7
:10022000655C00F0E2804FEA5454D4EB5555B8BFFA
:100230006D420CDD2C4480EA020281EA030382EA6B
:10024000000083EA010180EA020281EA0303362DFD
:1002500088BF30BD11F0004F4FEA01314FF4801CD0
:100260004CEA113102D0404261EB410113F0004FE2
:100270004FEA03334CEA133302D0524263EB430399
:1002800094EA050F00F0A780A4F10104D5F1200E37
:100290000DDB02FA0EFC22FA05F2801841F1000192
:1002A00003FA0EF2801843FA05F359410EE0A5F166
:1002B00020050EF1200E012A03FA0EFC28BF4CF097
:1002C000020C43FA05F3C01851EBE37101F000454D
:1002D00007D54FF0000EDCF1000C7EEB00006EEB5A
:1002E0000101B1F5801F1BD3B1F5001F0CD34908E4
:1002F0005FEA30004FEA3C0C04F101044FEA44523B
:1003000012F5800F80F09A80BCF1004F08BF5FEAC1
:10031000500C50F1000041EB045141EA050130BDA1
:100320005FEA4C0C404141EB010111F4801FA4F144
:100330000104E9D191F0000F04BF01460020B1FA99
:1003400081F308BF2033A3F10B03B3F120020CDAD1
:100350000C3208DD02F1140CC2F10C0201FA0CF0AF
:1003600021FA02F10CE002F11402D8BFC2F1200C14
:1003700001FA02F120FA0CFCDCBF41EA0C019040CA
:10038000E41AA2BF01EB0451294330BD6FEA040413
:100390001F3C1CDA0C340EDC04F11404C4F12002FE
:1003A00020FA04F001FA02F340EA030021FA04F310
:1003B00045EA030130BDC4F10C04C4F1200220FA67
:1003C00002F001FA04F340EA0300294630BD21FAA5
:1003D00004F0294630BD94F0000F83F4801306BF6B
:1003E00081F480110134013D4EE77FEA645C18BF5F
:1003F0007FEA655C29D094EA050F08BF90EA020FF6
:1004000005D054EA000C04BF1946104630BD91EAED
:10041000030F1EBF0021002030BD5FEA545C05D1F0
:100420004000494128BF41F0004130BD14F580042F
:100430003CBF01F5801130BD01F0004545F0FE41A3
:1004400041F470014FF0000030BD7FEA645C1ABFD8
:10045000194610467FEA655C1CBF0B46024650EA0F
:10046000013406BF52EA033591EA030F41F400213B
:1004700030BD00BF90F0000F04BF0021704730B5C1
:100480004FF4806404F132044FF000054FF0000196
:1004900050E700BF90F0000F04BF0021704730B557
:1004A0004FF4806404F1320410F0004548BF40422C
:1004B0004FF000013EE700BF42004FEAE2014FEA81
:1004C00031014FEA02701FBF12F07F4393F07F4F5C
:1004D00081F06051704732F07F4208BF704793F05F
:1004E0007F4F04BF41F40021704730B54FF4607472
:1004F00001F0004521F000411CE700BF50EA010275
:1005000008BF704730B54FF000050AE050EA01021D
:1005100008BF704730B511F0004502D5404261EB8D
:1005200041014FF4806404F132045FEA915C3FF4CE
:10053000D8AE4FF003025FEADC0C18BF03325FEA6B
:10054000DC0C18BF033202EBDC02C2F1200300FA1C
:1005500003FC20FA02F001FA03FE40EA0E0021FA41
:1005600002F11444BDE600BF70B54FF0FF0C4CF42F
:10057000E06C1CEA11541DBF1CEA135594EA0C0FE1
:1005800095EA0C0F00F0DEF82C4481EA030621EA1C
:100590004C5123EA4C5350EA013518BF52EA033557
:1005A00041F4801143F4801338D0A0FB02CE4FF009
:1005B0000005E1FB02E506F00042E0FB03E54FF039
:1005C0000006E1FB03569CF0000F18BF4EF0010E31
:1005D000A4F1FF04B6F5007F64F5407404D25FEA2D
:1005E0004E0E6D4146EB060642EAC62141EA5551E0
:1005F0004FEAC52040EA5E504FEACE2EB4F1FD0C22
:1006000088BFBCF5E06F1ED8BEF1004F08BF5FEA9F
:10061000500E50F1000041EB045170BD06F0004651
:1006200046EA010140EA020081EA0301B4EB5C04FE
:10063000C2BFD4EB0C0541EA045170BD41F48011F6
:100640004FF0000E013C00F3AB8014F1360FDEBF1B
:10065000002001F0004170BDC4F10004203C35DAF7
:100660000C341BDC04F11404C4F1200500FA05F37A
:1006700020FA04F001FA05F240EA020001F000421B
:1006800021F0004110EBD37021FA04F642EB060191
:100690005EEA430E08BF20EAD37070BDC4F10C04BB
:1006A000C4F1200500FA04F320FA05F001FA04F27F
:1006B00040EA020001F0004110EBD37041F100016B
:1006C0005EEA430E08BF20EAD37070BDC4F1200576
:1006D00000FA05F24EEA020E20FA04F301FA05F2DE
:1006E00043EA020321FA04F001F0004121FA04F286
:1006F00020EA020000EBD3705EEA430E08BF20EA56
:10070000D37070BD94F0000F0FD101F0004640008F
:1007100041EB010111F4801F08BF013CF7D041EA11
:10072000060195F0000F18BF704703F00046520015
:1007300043EB030313F4801F08BF013DF7D043EAE6
:100740000603704794EA0C0F0CEA135518BF95EA9C
:100750000C0F0CD050EA410618BF52EA4306D1D123
:1007600081EA030101F000414FF0000070BD50EA42
:10077000410606BF1046194652EA430619D094EACC
:100780000C0F02D150EA013613D195EA0C0F05D1B6
:1007900052EA03361CBF104619460AD181EA03010A
:1007A00001F0004141F0FE4141F470014FF00000C2
:1007B00070BD41F0FE4141F4780170BD70B54FF05D
:1007C000FF0C4CF4E06C1CEA11541DBF1CEA1355DD
:1007D00094EA0C0F95EA0C0F00F0A7F8A4EB0504BF
:1007E00081EA030E52EA03354FEA013100F08880B6
:1007F0004FEA03334FF0805545EA131343EA12637F
:100800004FEA022245EA111545EA10654FEA002633
:100810000EF000419D4208BF964244F1FD0404F5EC
:10082000407402D25B084FEA3202B61A65EB030548
:100830005B084FEA32024FF480104FF4002CB6EB05
:10084000020E75EB030E22BFB61A754640EA0C0085
:100850005B084FEA3202B6EB020E75EB030E22BFC5
:10086000B61A754640EA5C005B084FEA3202B6EB06
:10087000020E75EB030E22BFB61A754640EA9C00C5
:100880005B084FEA3202B6EB020E75EB030E22BF95
:10089000B61A754640EADC0055EA060E18D04FEA53
:1008A000051545EA16754FEA06164FEAC30343EAF3
:1008B00052734FEAC2025FEA1C1CC0D111F4801FC0
:1008C0000BD141EA00014FF000004FF0004CB6E7B9
:1008D00011F4801F04BF01430020B4F1FD0C88BF58
:1008E000BCF5E06F3FF6AFAEB5EB030C04BFB6EB63
:1008F000020C5FEA500C50F1000041EB045170BD56
:100900000EF0004E4EEA113114EB5C04C2BFD4EB82
:100910000C0541EA045170BD41F480114FF0000E06
:10092000013C90E645EA060E8DE60CEA135594EA82
:100930000C0F08BF95EA0C0F3FF43BAF94EA0C0F85
:100940000AD150EA01347FF434AF95EA0C0F7FF4FA
:1009500025AF104619462CE795EA0C0F06D152EA4E
:1009600003353FF4FDAE1046194622E750EA410632
:1009700018BF52EA43067FF4C5AE50EA41047FF443
:100980000DAF52EA43057FF4EBAE12E74FF0FF3CA8
:1009900006E000BF4FF0010C02E000BF4FF0010C79
:1009A0004DF804CD4FEA410C7FEA6C5C4FEA430CF2
:1009B00018BF7FEA6C5C1BD001B050EA410C0CBF41
:1009C00052EA430C91EA030F02BF90EA020F0020A3
:1009D000704710F1000F91EA030F58BF994208BF0A
:1009E00090422CBFD8176FEAE37040F001007047C7
:1009F0004FEA410C7FEA6C5C02D150EA013C07D11E
:100A00004FEA430C7FEA6C5CD6D152EA033CD3D068
:100A10005DF8040B704700BF8446104662468C4662
:100A20001946634600E000BF01B5FFF7B7FF002895
:100A300048BF10F1000F01BD4DF808EDFFF7F4FFBE
:100A40000CBF012000205DF808FB00BF4DF808ED49
:100A5000FFF7EAFF34BF012000205DF808FB00BF6C
:100A60004DF808EDFFF7E0FF94BF012000205DF88E
:100A700008FB00BF4DF808EDFFF7CEFF94BF012043
:100A800000205DF808FB00BF4DF808EDFFF7C4FF3C
:100A900034BF012000205DF808FB00BF4FEA410C85
:100AA0007FEA6C5C02D150EA013C0AD14FEA430C68
:100AB0007FEA6C5C02D152EA033C02D14FF00000A5
:100AC00070474FF0010070474FEA410212F50012E3
:100AD00015D211D56FF47873B3EB625212D94FEA85
:100AE000C12343F0004343EA505311F0004F23FA6F
:100AF00002F018BF404270474FF00000704750EAC4
:100B0000013005D111F0004008BF6FF00040704780
:100B10004FF00000704700BF53B94AB9002908BF21
:100B200000281CBF4FF0FF314FF0FF3000F072B9CA
:100B3000ADF1080C6DE904CE00F006F8DDF804E034
:100B4000DDE9022304B070472DE9F047089E044612
:100B50008846002B4BD18A42154667D9B2FA82F2F9
:100B60004AB1C2F1200701FA02F320FA07F79540D3
:100B700047EA030894404FEA154E230CB8FBFEF7F2
:100B80001FFA85FC0EFB178843EA084307FB0CF1AC
:100B9000994209D9EB1807F1FF3080F01B81994287
:100BA00040F21881023F2B445B1AA4B2B3FBFEF063
:100BB0000EFB103344EA034400FB0CFCA44509D9A6
:100BC0002C1900F1FF3380F00781A44540F2048125
:100BD00002382C4440EA0740A4EB0C0400271EB165
:100BE000D4400023C6E900433946BDE8F0878B4274
:100BF00009D9002E00F0EB800027C6E90001384635
:100C00003946BDE8F087B3FA83F7002F47D18B420E
:100C100002D3824200F2FA80841A61EB03030120BE
:100C20009846002EE0D0C6E90048DDE702B9FFDEB5
:100C3000B2FA82F2002A40F08F80491B4FEA154E2B
:100C40001FFA85F80127B1FBFEFC230C0EFB1C11DB
:100C500043EA014308FB0CF1994207D9EB180CF168
:100C6000FF3002D2994200F2CD808446591AA3B2D5
:100C7000B1FBFEF00EFB101443EA044408FB00F83D
:100C8000A04507D92C1900F1FF3302D2A04500F28C
:100C9000B6801846A4EB080440EA0C409FE7C7F171
:100CA000200CBB4022FA0CFE4EEA030E01FA07F4B8
:100CB00020FA0CF521FA0CF34FEA1E482543B3FB4A
:100CC000F8F92C0C08FB19331FFA8EFA44EA034397
:100CD00009FB0AF49C4202FA07F200FA07F10BD969
:100CE0001EEB030309F1FF3080F087809C4240F245
:100CF0008480A9F1020973441B1BADB2B3FBF8F069
:100D000008FB103345EA034400FB0AFAA24508D960
:100D10001EEB040400F1FF336BD2A24569D90238FF
:100D2000744440EA0940A0FB0289A4EB0A044C4544
:100D3000C2464B4654D351D0002E69D0B1EB0A05C0
:100D400064EB030404FA0CFCFD40FC404CEA05058E
:100D5000C6E90054002747E7C2F1200320FA03F751
:100D6000954001FA02F021FA03F34FEA154E384399
:100D7000010CB3FBFEF71FFA85F80EFB173341EAAF
:100D8000034107FB08F38B4204FA02F407D9691800
:100D900007F1FF3C2FD28B422DD9023F2944CB1AB9
:100DA00081B2B3FBFEF00EFB103341EA034100FBBE
:100DB00008F38B4207D9691800F1FF3C17D28B4228
:100DC00015D902382944C91A40EA07473BE7374694
:100DD000304609E70746E7E61846FBE64145ABD251
:100DE000B8EB020A69EB0E0201381346A4E760462D
:100DF000E9E7184695E76746D1E781467CE7023880
:100E00002C4447E7ACF1020C2B442FE7384608E7A7
:100E10003746E9E6704700BF10B504460E4B187818
:100E20004FF47A73B3FBF0F30C4A1068B0FBF3F0A5
:100E300000F09CF868B90F2C01D901200AE00022CB
:100E400021464FF0FF3000F05DF8034B5C6000205E
:100E500000E0012010BD00BF0000002008000020BD
:100E600008B50B4B1A6842F400721A601A6842F413
:100E700080621A601A6842F480721A60032000F0DF
:100E80002FF80020FFF7C8FF00F084FD002008BD08
:100E9000003C0240034A1168034B1B780B4413606B
:100EA000704700BF9000002000000020014B186830
:100EB000704700BF9000002038B50446FFF7F6FFEA
:100EC0000546B4F1FF3F02D0044B1B781C44FFF7EA
:100ED000EDFF401BA042FAD338BD00BF0000002048
:100EE000074AD36823F4E0631B041B0C000200F4E0
:100EF000E060184340F0BF6040F40030D0607047BD
:100F000000ED00E030B4174BDB68C3F30223C3F1FC
:100F10000704042C28BF04241D1D062D18D9033BEB
:100F20004FF0FF3505FA04F421EA0401994005FA6F
:100F300003F322EA0303194300280BDB0901C9B2BA
:100F400000F1604000F5614080F8001330BC70474C
:100F50000023E5E700F00F000901C9B2024B195464
:100F6000F4E700BF00ED00E014ED00E00138B0F15F
:100F7000807F0AD2064B5860064AF02182F823107F
:100F80000020986007221A6070470120704700BF58
:100F900010E000E000ED00E000230F2B00F2E38002
:100FA000F0B482B039E0092200E00022B2403A43B6
:100FB00002346D4E46F824206C4A1468EA4302EA73
:100FC00004064F6817F4803F01D045EA0406674CD9
:100FD0002660646802EA04064F6817F4003F01D0F7
:100FE00045EA0406614C6660A46802EA04064F689C
:100FF00017F4801F01D045EA04065C4CA660E46843
:1010000022404E6816F4001F01D045EA0402574CF6
:10101000E26001330F2B00F2A38001229A400C689A
:1010200004EA0205AA42F4D14C68022C01D0122C29
:1010300010D1DE08083650F826C003F00704A700D8
:101040000F24BC402CEA040C0C69BC4044EA0C049C
:1010500040F8264004685F000326BE40F64306EAD7
:10106000040C4C6804F00304BC4044EA0C04046023
:101070004C6804F1FF3CBCF1010F03D9112C01D0E5
:10108000122C10D1846806EA040CCC68BC4044EAF7
:101090000C048460446824EA02024C68C4F300141F
:1010A0009C4014434460C26816408A68BA40324388
:1010B000C2604A6812F0805FABD0002201922C4AD5
:1010C000546C44F480445464526C02F480420192A3
:1010D000019A9C08A61C244A52F8267003F00302C9
:1010E00096000F22B24027EA0207224A90423FF4BC
:1010F0005CAF02F58062904222D002F5806290429D
:1011000020D002F5806290421ED002F580629042AB
:101110001CD002F5806290421AD002F580629042A3
:1011200018D002F58062904216D002F5806290429B
:1011300014D002F5806290423FF435AF0A2235E7C1
:10114000012233E7022231E703222FE704222DE7B1
:1011500005222BE7062229E7072227E7082225E7B1
:1011600002B0F0BC7047704700380140003C0140BD
:10117000003802400000024012B909048161704742
:10118000816170474369594041617047002800F010
:10119000BB8170B582B00446036813F0010F3BD0E9
:1011A000A74B9B6803F00C03042B2CD0A44B9B682B
:1011B00003F00C03082B21D06368B3F5803F4FD0B8
:1011C000B3F5A02F52D09E4B1A6822F480321A60D9
:1011D0001A6822F480221A606368002B50D0FFF74F
:1011E00065FE0546964B1B6813F4003F14D1FFF7CC
:1011F0005DFE401B6428F5D903208AE1904B5B68B3
:1012000013F4800FD8D08E4B1B6813F4003F03D02B
:101210006368002B00F07A81236813F0020F55D029
:10122000874B9B6813F00C0F3ED0854B9B6803F0F7
:101230000C03082B33D0E368002B68D0814B0122CC
:101240001A60FFF733FE05467D4B1B6813F0020F53
:1012500054D1FFF72BFE401B0228F5D9032058E19B
:10126000774A136843F480331360B5E7744B1A6808
:1012700042F480221A601A6842F480321A60ABE7A6
:10128000FFF714FE05466E4B1B6813F4003FC3D0F6
:10129000FFF70CFE401B6428F5D9032039E1684BA9
:1012A0005B6813F4800FC6D1654B1B6813F0020F07
:1012B00004D0E368012B01D001202AE1604A1368C1
:1012C00023F0F803216943EAC1031360236813F094
:1012D000080F40D0636963B35B4B01221A60FFF7CC
:1012E000E5FD0546564B5B6F13F0020F33D1FFF758
:1012F000DDFD401B0228F5D903200AE1504A13689E
:1013000023F0F803216943EAC1031360DEE74D4B84
:1013100000221A60FFF7CAFD0546494B1B6813F00F
:10132000020FD3D0FFF7C2FD401B0228F5D90320DE
:10133000EFE0454B00221A60FFF7B8FD0546404B31
:101340005B6F13F0020F06D0FFF7B0FD401B0228C1
:10135000F5D90320DDE0236813F0040F79D0384B72
:101360001B6C13F0805F33D100230193344B1A6C54
:1013700042F080521A641B6C03F080530193019B6E
:101380000125324B1B6813F4807F23D0A368012B07
:1013900034D0052B38D02A4B1A6F22F001021A677D
:1013A0001A6F22F004021A67A368002B36D0FFF7E9
:1013B0007DFD0646224B1B6F13F0020F48D1FFF74D
:1013C00075FD801B41F288339842F3D90320A0E0D9
:1013D0000025D6E71D4A136843F480731360FFF7B6
:1013E00065FD0646194B1B6813F4807FCED1FFF7CD
:1013F0005DFD801B0228F5D903208AE0104A136F97
:1014000043F001031367CFE70D4B1A6F42F004025C
:101410001A671A6F42F001021A67C5E7FFF746FD27
:101420000646074B1B6F13F0020F11D0FFF73EFD6E
:10143000801B41F288339842F3D9032069E000BF52
:101440000038024000004742800E474200700040D2
:10145000E5B9A369002B5BD0304A926802F00C0218
:10146000082A58D0022B17D02D4B00221A60FFF704
:101470001DFD0446294B1B6813F0007F42D0FFF787
:1014800015FD001B0228F5D9032042E0234A136C06
:1014900023F080531364DCE7214B00221A60FFF72E
:1014A00005FD05461D4B1B6813F0007F06D0FFF7B6
:1014B000FDFC401B0228F5D903202AE0E369226ADB
:1014C0001343626A43EA8213A26A5208013A43EA6A
:1014D0000243E26A43EA0263104A5360104B01225E
:1014E0001A60FFF7E3FC04460C4B1B6813F0007F07
:1014F00006D1FFF7DBFC001B0228F5D9032008E02A
:10150000002006E0002004E001207047012000E0F8
:10151000002002B070BD0120FBE700BF0038024090
:1015200060004742324B9B6803F00C03042B5CD0F5
:10153000082B01D02F4870472DE9F04B2C4B5A68EF
:1015400002F03F025B6813F4800F2BD0284B5B68DE
:10155000C3F388131E4600275C010025E41A65EBDF
:101560000705A90141EA9461A001001B61EB050197
:10157000CB0043EA5073C400A01943EB07014B02B0
:1015800043EAD0534402204619460023FFF7C4FA29
:10159000174B5B68C3F3014301335B00B0FBF3F00F
:1015A000BDE8F08B124B5B68C3F388131E4600271F
:1015B0005C010025E41A65EB0705A90141EA946185
:1015C000A001001B61EB0501CB0043EA5073C4008E
:1015D000A01943EB07018B0243EA90538402204693
:1015E00019460023FFF798FAD2E70348704700BF77
:1015F000003802400024F40000127A00002800F0B5
:101600009D8070B504464F4B1B6803F00F038B425F
:1016100009D2CBB24B4A1370136803F00F038B420D
:1016200001D0012070BD236813F0020F17D013F012
:10163000040F04D0444A936843F4E0539360236852
:1016400013F0080F04D0404A936843F4604393605A
:101650003D4A936823F0F003A068034393600D466E
:10166000236813F0010F32D06368012B21D09A1E3A
:10167000012A25D9344A126812F0020F60D032498B
:101680008A6822F0030213438B60FFF70FFC0646C3
:101690002D4B9B6803F00C036268B3EB820F16D0EE
:1016A000FFF704FC801B41F288339842F0D90320F5
:1016B000B8E7254A126812F4003FE0D10120B1E7F3
:1016C000214A126812F0007FD9D10120AAE71D4BF0
:1016D0001B6803F00F03AB4209D9EAB2194B1A7029
:1016E0001B6803F00F03AB4201D001209AE7236887
:1016F00013F0040F06D0144A936823F4E053E16812
:101700000B439360236813F0080F07D00E4A9368C9
:1017100023F46043216943EAC1039360FFF702FFAA
:10172000094B9B68C3F30313084AD35CD840084BAA
:1017300018600020FFF770FB002073E7012070475E
:1017400001206FE7003C0240003802405835000895
:101750000800002030B587B000240194029403945F
:101760000494059400940F4B1A6B42F040021A63E4
:101770001B6B03F040030093009B0B4D22464FF47C
:10178000C0412846FFF7F8FC4FF4C0430193012302
:1017900002930394049401A92846FFF7FDFB07B0C8
:1017A00030BD00BF003802400018024000000000B9
:1017B0002DE9F04F2DED028B85B08346894601F06F
:1017C0004BFE4846FEF756FE41EC100B00F0C2F906
:1017D00035A3D3E9002351EC100BFEF7EFFFFFF721
:1017E00073F907464FF0000A49E09FED2D8B204624
:1017F000FEF750FEB0EE481AF0EE681A41EC100BFE
:1018000000F040F951EC100BFFF75EF98046781EAE
:10181000401BFEF73FFE41EC110BB0EE480AF0EE24
:10182000680A00F019FAB0EE408AF0EE608A40468D
:10183000FEF730FE53EC182BFEF796FECDE90001C3
:101840003046FEF727FEDDE90023FEF7D7FCFFF761
:101850003BF9064604EBD47464100135BD42C4DB89
:10186000039B0BEBC303D3E900010BEBC606D6E9E0
:101870000045C3E90045C6E900010AF1010ACDF8B7
:101880000CA0BAEB590F03D2544600252E46E5E7CB
:1018900001F0E2FD05B0BDEC028BBDE8F08F00BFAA
:1018A0000000000000000040EF39FAFE422EE63F43
:1018B00030B595B03022002108A801F00BFE0024BD
:1018C0000394049405940694079401941C4B1A6C99
:1018D00042F080521A641B6C03F080530193019B09
:1018E0000294184A136823F4404343F4804313607E
:1018F000136803F440430293029B022508950123D9
:101900000B9310230C930E950F94082310934823E8
:10191000119312950323139308A8FFF737FC0F23A5
:101920000393049505944FF4A05306934FF480530A
:101930000793294603A8FFF761FE15B030BD00BF2D
:10194000003802400070004030B591B0FFF788FACF
:10195000FFF7AEFFFFF7FEFE6C460C4D0FCD0FC438
:101960000FCD0FC40FCD0FC495E80F0084E80F0012
:1019700008216846FFF71CFF4FF400510448FFF7A9
:1019800001FCC820FFF798FAE6E700BF1835000809
:101990000018024082B0002100910B4B5A6C42F4B7
:1019A00080425A645A6C02F480420092009A01917B
:1019B0001A6C42F080521A641B6C03F0805301933E
:1019C000019B02B0704700BF003802407047FEE73D
:1019D000FEE7FEE7FEE770477047704708B5FFF780
:1019E00059FA08BD0F49D1F8883043F47003C1F8A3
:1019F00088300D4B1A6842F001021A60002098608E
:101A00001A6822F0847222F480321A60074A5A60FF
:101A10001A6822F480221A60D8604FF000638B604D
:101A2000704700BF00ED00E0003802401030002495
:101A3000DFF834D0002103E00C4B5B5843500431F5
:101A40000B480C4B42189A42F6D30B4A02E0002393
:101A500042F8043B094B9A42F9D3FFF7C3FF01F068
:101A600015FDFFF771FF704700000320B035000837
:101A70000000002074000020740000209800002066
:101A8000FEE700002DE9F0432DED028B8BB057EC03
:101A9000106B55EC114B00F07BFA2C4BB0EE408AEA
:101AA000F0EE608A93F90080B8F1FF3F35D022460E
:101AB0002B4620462946FEF7F1FF70BB32463B46D7
:101AC00030463946FEF7EAFF814630BB002200234C
:101AD00020462946FEF7B0FFF8B11D4BCDF8209007
:101AE0000122CDE90267CDE90445CDE90023B8F133
:101AF000000F1BD00022002310461946FEF75EFEA1
:101B0000B8F1020FCDE9060112D101F0B9FC212391
:101B10000360089BA3B99DED068BB0EE480AF0EE7A
:101B2000680A0BB0BDEC028BBDE8F083CDE9066717
:101B3000684601F065FB0028E7D0089B002BEAD03F
:101B400001F09EFC089B0360E5E700BF0C0000204D
:101B500070350008F0B52DED028B8BB055EC104BB5
:101B600000F03AFB364BB0EE408AF0EE608A93F913
:101B70000060731C0DD022462B4620462946FEF7F6
:101B80008DFF30B90022002320462946FEF77CFF56
:101B900038B1B0EE480AF0EE680A0BB0BDEC028B2B
:101BA000F0BD284B0890CDE90245CDE904450193ED
:101BB000B6B9254F4FF06046204629460022002343
:101BC000CDE90667FEF738FF88B302230093684625
:101BD00001F016FB98B1089BB3B99DED068BD8E7D1
:101BE0001A4B0022CDE90623204629460022002375
:101BF000FEF722FF68B102239E420093E7D101F075
:101C00003FFC22230360E6E701F03AFC089B0360F7
:101C1000E3E70123022E00930BD101F031FC2123D5
:101C200003600B4801F0F0FA8DED060BD3E70123BA
:101C30000093684601F0E4FA0028F2D1EDE700BF16
:101C40000C00002078350008FFFFEFC70000F0FF10
:101C500074350008000000002DE9F04F2DED028BD7
:101C6000DFF824A38BB057EC106B55EC114B00F050
:101C70008FFC9AF90080B0EE408AF0EE608AB8F1ED
:101C8000FF3F33D022462B4620462946FEF706FF6B
:101C9000834658BB32463B4630463946FEF7FEFE89
:101CA0008146002866D13046394600220023FEF7DF
:101CB000C3FE20B30022002320462946FEF7BCFEC7
:101CC000834600287DD09FEDA67B0122AA4BCDF84C
:101CD00020900092CDE90267CDE904458DED067BA9
:101CE0000193B8F1000F5ED09FED9F8BB0EE480AD4
:101CF000F0EE680A0BB0BDEC028BBDE8F08FB0EEE1
:101D0000480AF0EE680A01F073FA8046002800F0F5
:101D100082804FF000084FF0000951EC180B42464A
:101D20004B46FEF789FE0028E0D047EC106B01F02F
:101D30005FFA0028DAD045EC104B01F059FA002880
:101D4000D4D09AF900308C4A019204210022022B4F
:101D5000CDE90267CDE90445CDE9068900910892F5
:101D600003D0684601F04CFA10BB01F089FB222336
:101D700003601DE00022002320462946FEF75CFE9A
:101D80000028B3D09FED788B01227B4BCDF820B09B
:101D9000B8F1020F0092CDE90267CDE904458DED5F
:101DA000068B0193A2D0684601F02AFA002878D069
:101DB000089B1BB101F064FB089B03609DED068B43
:101DC00094E745EC104B01F013FA00288ED0002266
:101DD000002320462946FEF739FE002886D0664AB1
:101DE0009AF90030CDF820B00121CDE90267CDE9A4
:101DF0000445CDE90012002B58D060490020022B89
:101E0000CDE9060156D101F03BFB21230360089B7D
:101E1000002BD3D0CEE747EC106B01F0E9F9002896
:101E20003FF477AF45EC104B01F0E2F900283FF4A6
:101E300070AF53EC182B18EE100A1946FEF72EFE61
:101E40009AF9009000286FD10323DFF82CC1089085
:101E50002946204600930022494BCDF804C0CDE925
:101E60000445CDE90267FEF77FFB04460D46B9F154
:101E7000000F25D1DFF814914FF0604800220023B5
:101E800030463946CDE90689FEF7E0FD38BB6846A5
:101E900001F0B6F90028BAD101F0F2FA222303606A
:101EA000B5E701F0EDFA2123036081E79FED2C7B7C
:101EB0008DED067B684601F0A3F90028A7D1A2E7C3
:101EC0009FED2B7B00220023304639468DED067BAB
:101ED000FEF7BCFDB0B9B9F1020FDDD0D7E745EC94
:101EE000104B01F099F922462B4651EC100BFEF7EE
:101EF000A3FDB0B9234B9AF900904FF06042CDE9B1
:101F00000623E8E745EC104B01F086F922462B4604
:101F100051EC100BFEF790FD18B9184B0022CDE9DB
:101F200006239AF90090D6E70122134BCDF82080C2
:101F30000092CDE90267CDE904450193B9F1000FA4
:101F4000B4D00022002310461946FEF737FCB9F141
:101F5000020FCDE906013FF456AFABE7AFF30080C7
:101F60000000000000000000000000000000F03F42
:101F7000000000000000F07F7C3500080000F0FF4A
:101F80000000E03FFFFFEFC70C000020FFFFEF471E
:101F900053EC112B2DE9F04723F0004E5EEA0206C8
:101FA00051EC100B24D0854E21F00048B0458946F5
:101FB0001EDC56421643824F4EEAD676BE4211EEE2
:101FC000104A15D8F0451D4611EE10CA10EE10AAA1
:101FD00010EE107A01F0004617DC13DB904211D3AB
:101FE00013D1784BF60F03EBC60393ED000B07E01C
:101FF000FEF7BAFA02460B46FEF7E0FB41EC100B87
:10200000BDE8F08741EC100BFAE7B8F5801F3BDB29
:102010004FEA2852A2F2FF32BEF5801F80F2908074
:10202000BEF1000F40F0A080002C2346664904DD7D
:102030005B00002B01F1FF31FADC644B9A4271DB4B
:10204000C9F3130343F48013604881425CDBC5F39A
:10205000130444F48014501A07E052EA050321D017
:10206000EB0F03EB42036F0001381A1BA7EB0C05C3
:10207000F8B1674538BF02F1FF32002AEDDAFA0FF6
:1020800002EB43037F00EFE7B8F1000F5DD1BAF137
:10209000000F53464C4ABFDD5B00002B02F1FF32BC
:1020A000FADCB9E7474BF60F03EBC60696ED000BDB
:1020B000A6E7674538BF02F1FF32002ABCBF3D46A4
:1020C0001A4652EA0503EDD04148824208DCEB0F84
:1020D00003EB4202824201F1FF314FEA4505F6DD92
:1020E0003A4B99424FDA5B1A142B57DC01F21E412E
:1020F000DD4002FA01F142FA03F329431E4333465D
:102100000A4643EC102B7BE7401A1F2826DC01F21D
:102110001E450EFA00FE24FA05F504FA00FC45EA15
:102120000E0498E79F1A1F2F27DC02F21E4308FABD
:1021300007F82AFA03F30AFA07F743EA080383E7E2
:102140004FEA2E51A1F2FF3177E7204A4FEAC82328
:102150005B00002B02F1FF32FADC5DE71D4D6D1ACA
:10216000AC404FF0000C76E718494FEACE235B00F5
:10217000002B01F1FF31FADC5FE7164B9B1A0AFADC
:1021800003F3002760E7A2F58012164301F2FF3146
:1021900046EA01532A4643EC102B31E71F2B07DC9C
:1021A00001F21E4102FA01F125FA03F21143A6E7FA
:1021B000084B591A42FA01F1A1E700BFFFFFEF7F78
:1021C0000000F07F80350008EDFBFFFF02FCFFFF01
:1021D000FFFF0F00E2FBFFFF2DE9F04F51EC100B6A
:1021E000B1F5801F85B00B4680F2CE8021F0004211
:1021F000024300F0D8800029C0F2EA800022DE4BC2
:10220000FEF7B2F9DD4A0B4693426FF0350700F353
:10221000C180C3F3130505F5152606F6647606F4AA
:10222000801686F07F5282F4401242EA05011C15A6
:102230000022D34BFDF7E0FFAB1CA4F2FF34C3F345
:1022400013033C44022B04EB165482468B464FF09A
:10225000000240F3B3804FF08043FDF7CFFF02460A
:102260000B4650465946FEF7A9FA064620460F4649
:10227000FEF710F93246CDE902013B4630463946B9
:10228000CDE90067FEF770F902460B4680468946A5
:10229000FEF76AF9A2A3D3E9002306460F46FEF72C
:1022A00063F9A1A3D3E90023FDF7A8FF32463B461B
:1022B000FEF75AF99EA3D3E90023FDF79FFF3246AC
:1022C0003B46FEF751F99CA3D3E90023FDF796FFA7
:1022D00042464B46FEF748F999A3D3E900238046CE
:1022E000894630463946FEF73FF997A3D3E90023E4
:1022F000FDF784FF32463B46FEF736F994A3D3E957
:102300000023FDF77BFF32463B46FEF72DF90B46D7
:10231000024649464046FDF771FFA5F5C223C5F5C3
:10232000D725A3F27A4351351D43002D06460F46AB
:1023300040F38F800022934B50465946FEF714F924
:1023400052465B46FEF710F902460B468046894628
:1023500030463946FDF752FFDDE90023FEF704F968
:1023600006460F46002C40F08B8002460B46404646
:102370004946FDF741FF02460B4650465946FDF7D8
:102380003BFF41EC100B0BE07C4A93424FF00007FF
:102390007FF73FAF02460B46FDF730FF41EC100BD5
:1023A00005B0BDE8F08F0022002300207649FEF73B
:1023B00005FA41EC100B05B0BDE8F08F0023FEF7E5
:1023C0003BFB80B1002C40F084809FED630BE7E77E
:1023D00010EE102AFDF710FF00220023FEF7EEF9A1
:1023E00041EC100BDCE75EA3D3E9002350465946CD
:1023F000FEF7BAF802460B4600206249FDF7FCFEE4
:10240000524606460F465B4650465946FEF7ACF824
:1024100002460B4630463946FEF7A6F806460F46FA
:102420002CB32046FEF736F84FA3D3E900238046AD
:102430008946FEF799F84EA3D3E9002304460D46DA
:1024400040464946FEF790F802460B46304639466C
:102450002EE002460B4650465946FDF7CDFEDDE91B
:102460000023FEF781F806460F46002C4DD1324678
:102470003B4650465946FDF7BFFE41EC100B8FE737
:1024800039A3D3E90023DDE90201FEF76DF838A393
:10249000D3E9002304460D46DDE90201FEF764F8A6
:1024A00032463B46FDF7AAFE02460B4640464946E9
:1024B000FDF7A2FE52465B46FDF79EFE02460B4626
:1024C00020462946FDF798FE41EC100B05B0BDE80B
:1024D000F08F2046FDF7DEFF23A3D3E90023064655
:1024E0000F46FEF741F822A3D3E9002304460D4628
:1024F00030463946FEF738F802460B462046294654
:10250000FDF77CFE41EC100B4AE7DDE9028916A3DA
:10251000D3E90023404649468BE700BFAFF3008074
:1025200044523EDF12F1C23FDE03CB966446C73F02
:10253000599322942449D23F935555555555E53F1B
:102540009FC678D0099AC33FAF788E1DC571CC3F26
:1025500004FA97999999D93F000000000000000003
:10256000555555555555D53F0000E0FE422EE63FE6
:10257000763C7935EF39EA3D00005043FFFFEF7FAD
:102580000000F03F0000E03F000050C300000000EA
:102590002DE9F04F51EC110B21F0004555EA0003F5
:1025A00093B010D059EC108B6D4B29F000449C4235
:1025B0004E4610EE10AA0DDD04F1404404F58014DF
:1025C00054EA0A0356D16749002041EC100B13B0BE
:1025D000BDE8F08F0F4611EE10CA48D09D42EBDCEB
:1025E0005F4B9D425FD0002ECDE900015FDB4FF0D5
:1025F000000BBCF1000F0ED1594B9D4243D0594BFB
:102600009D4200F08C80B7F1804F00F09E80564BC9
:102610009F4200F0B88349EC108B00F0DFFD51ECD5
:10262000100BBAF1000F06D1002C5AD04D4B26F0FA
:1026300040429A4255D0F60F06F1FF3A5BEA0A0390
:1026400073D04A4B9D4240F3998003F104739D423D
:1026500040F33884464B9C4272DD002F72DD3EA36E
:10266000D3E9002310461946FDF77EFFADE7B8F128
:10267000000F05D03F4813B0BDE8F04F00F0C4BDD7
:10268000A542F7DCACE704F1404303F5801353EABD
:102690000A0398D0364B9C4240F37F83002F51DBD6
:1026A000DDE9000191E7BCF1000F9CD084E7324BDB
:1026B0009D4231DCA3F154739D4298DD2B15A3F2AA
:1026C000FF33142B40F3A183C3F134032CFA03F23C
:1026D00002FA03F363458AD102F00102C2F1020B50
:1026E00087E7002F05DA02460B4600201D49FEF75A
:1026F00065F8002EBFF669AF04F1404404F580147C
:1027000054EA0B0300F03A84BBF1010F7FF45DAF94
:1027100001F10043194658E74FF0020B69E7002F1B
:10272000C0F24483404649464FE742464B46104676
:102730001946FDF761FD02460B46FEF73FF844E7F8
:10274000002F8CDB002000213FE742464B464046ED
:102750004946FDF709FF38E79C7500883CE4377E61
:102760000000F07F0000F03F0000E03F0000E0418B
:10277000FFFFEF3F74350008FFFF3F43B4F5801FB4
:1027800080F260830022D04BFDF7EEFE6FF034063E
:102790000C462315CD4AC4F31304A3F2FF3344F0CF
:1027A0007F559E1994420D9645F4401540F33D83A4
:1027B000C74B9C4240F301849FEDAD7B8DED087BC0
:1027C0008DED107B9FEDAC7B8DED067B01360D967C
:1027D000A5F580154FF00008DDE9062329460646D9
:1027E000FDF70AFDDDE90623CDE90A013046294659
:1027F000FDF704FD02460B460020B649FDF7DEFF5B
:1028000003460C46CDE90E3402460B46DDE90A01CB
:10281000FDF7AAFE6B1043F0005303F500230A46B0
:102820002F46014603EB08050023CDE9021202936F
:10283000DDE902890024CDE904122B4622464046F8
:102840004946FDF791FE02460B46DDE90A01FDF718
:10285000D3FCDDE90623CDE90A0120462946FDF730
:10286000CBFC02460B4630463946FDF7C5FC4246D6
:102870004B46FDF779FE02460B46DDE90A01FDF7FE
:10288000BBFCDDE90E23FDF76FFEDDE90445CDE974
:10289000060122462B4620462946FDF765FE78A311
:1028A000D3E9002304460D46FDF75EFE76A3D3E987
:1028B0000023FDF7A3FC22462B46FDF755FE74A32B
:1028C000D3E90023FDF79AFC22462B46FDF74CFE88
:1028D00071A3D3E90023FDF791FC22462B46FDF7B7
:1028E00043FE6FA3D3E90023FDF788FC22462B4665
:1028F000FDF73AFE6CA3D3E90023FDF77FFC2246E7
:1029000006460F462B4620462946FDF72DFE024679
:102910000B4630463946FDF727FE424604460D4633
:102920004B46DDE90401FDF769FCDDE90623FDF70F
:102930001BFE22462B46FDF761FC424606460F462B
:102940004B4640464946FDF70FFE0022624BCDE95B
:102950000A01FDF753FC32463B46FDF74FFC029857
:102960000D46044622462B4640464946FDF7FCFDEF
:10297000002280468946584B20462946FDF73CFCFC
:10298000DDE90A23FDF738FC02460B46304639469E
:10299000FDF732FCDDE90423FDF7E6FD224606469D
:1029A0000F462B46DDE90601FDF7DEFD02460B462C
:1029B00030463946FDF722FC06460F4602460B46D6
:1029C00040464946FDF71AFC029839A3D3E9002393
:1029D00004460D46FDF7C8FD4246CDE904014B46CD
:1029E00020462946FDF708FC02460B46304639468C
:1029F000FDF702FC30A3D3E90023FDF7B5FD30A3BA
:102A0000D3E9002306460F4620462946FDF7ACFDD4
:102A100002460B4630463946FDF7F0FBDDE9102350
:102A2000FDF7ECFB06460D980F46FDF733FD3246E9
:102A3000804689463B46DDE90401FDF7DFFBDDE921
:102A40000823FDF7DBFB42464B46FDF7D7FB029818
:102A500042464B4604460D46FDF7CEFBDDE9082312
:102A6000FDF7CAFBDDE9042338E000BFAFF30080C7
:102A70000000000000000000000000000000F03F27
:102A8000EF4E454A287ECA3F65DBC9934A86CD3F53
:102A900001411DA96074D13F4D268F515555D53F39
:102AA000FFAB6FDBB66DDB3F033333333333E33FD1
:102AB000000000E009C7EE3FFD033ADC09C7EE3F26
:102AC000F5015B14E02F3EBE000040438E980300EA
:102AD00079B60B000000F03F00000840FDF78CFBCA
:102AE0000B46024639463046FDF786FB0BF1FF33B5
:102AF00053EA0A03CDE9040100F05F819FEDD27B28
:102B00008DED027BDDE900AB002356465F46CDE943
:102B100000670093DDE90067504632463B46594660
:102B2000FDF76AFB22462B46FDF71EFD5246804606
:102B300089465B46DDE90401FDF716FD02460B46BA
:102B400040464946FDF75AFB3246804689463B4699
:102B500020462946CDE90489FDF706FD0B460246CD
:102B600006460F4640464946FDF748FBD04B994282
:102B700004460D468A4640F3258101F13F4303F5A3
:102B8000E003034340F0FE81B1A3D3E90023DDE974
:102B90000401FDF733FB3246804689463B4620461A
:102BA0002946FDF729FB02460B4640464946FDF7FC
:102BB0006BFF002840F0E681A8464FEA2853A3F2B5
:102BC000FE324FF4801313415344C3F30A52B94DFC
:102BD000A2F2FF321541C3F3130423EA05010020DA
:102BE000C2F1140B44F48014BAF1000F02460B46F4
:102BF00044FA0BFB30463946B8BFCBF1000BFDF76A
:102C0000FBFA06460F463246DDE904013B46FDF776
:102C1000F5FA4FEA0B5A0D4600248FA3D3E900239F
:102C200020462946FDF7A0FC3246804689463B46B1
:102C300020462946FDF7E0FA02460B46DDE904018D
:102C4000FDF7DAFA86A3D3E90023FDF78DFC86A30E
:102C5000D3E9002306460F4620462946FDF784FCAB
:102C600002460B4630463946FDF7C8FA06460F467F
:102C700002460B4640464946FDF7C0FA42464B46DF
:102C800004460D46FDF7B8FA02460B463046394673
:102C9000FDF7B2FA2246804689462B462046294651
:102CA000FDF762FC72A3D3E9002306460F46FDF749
:102CB0005BFC71A3D3E90023FDF79EFA32463B4645
:102CC000FDF752FC6EA3D3E90023FDF797FA3246D5
:102CD0003B46FDF749FC6CA3D3E90023FDF78CFAD2
:102CE00032463B46FDF740FC69A3D3E90023FDF7DC
:102CF00085FA32463B46FDF737FC02460B46204636
:102D00002946FDF779FA06460F4602460B4620464D
:102D10002946FDF729FC0022CDE900014FF0804350
:102D200030463946FDF768FA02460B46DDE90001F8
:102D3000FDF744FD424606460F464B4620462946CF
:102D4000FDF712FC42464B46FDF758FA02460B4689
:102D500030463946FDF750FA22462B46FDF74CFA2D
:102D600002460B4600205449FDF746FA8A44BAF55C
:102D7000801F02460B46C0F230815146DDE9022336
:102D8000FDF7F2FB21E4002EFFF645AC49EC108B79
:102D900013B0BDE8F04F00F057B9002FBFF6D2AC2A
:102DA000DDE90034184604F100410EE442464B468A
:102DB00000204149FDF702FD07E49FED377B8DEDD3
:102DC000027B9FE63D4B21F00048984540F3E880A8
:102DD0003B4B0B4403430AD132463B46FDF70CFA0A
:102DE000DDE90423FDF746FE00283FF4E6AEDDE909
:102DF00002012BA3D3E90023FDF7B6FB28A3D3E9F7
:102E00000023FDF7B1FBFFF7E0BBBCF1000F40F082
:102E1000D080C3F1140345FA03F202FA03F3AB4284
:102E200000F0E380E346FFF7EABB9FED1F7B8DEDEB
:102E3000087B8DED107B9FED047B4FF000088DED3E
:102E4000067BC9E40026A4E4000000000000F03F77
:102E5000FE822B654715973C00000000432EE63F9D
:102E6000EF39FAFE422EE63F396CA80C615C20BEB9
:102E7000D0A4BE726937663EF16BD2C541BDBB3E80
:102E80002CDE25AF6A56113F93BDBE166CC1663F5E
:102E90003E5555555555C53F000000000000F0BF98
:102EA00059F3F8C21F6EA5010000000000000000E9
:102EB000FFFF8F40FFFF0F000000F03FFFCB90406F
:102EC00000346F3F5C4B9C427FF73AAC5B4B9C42BB
:102ED0003FF7C3AB0022594BFDF78EF946A3D3E968
:102EE000002304460D46FDF73FFB45A3D3E900232D
:102EF0008046894620462946FDF736FB0022CDE96B
:102F000002014F4B20462946FDF72EFB02460B4699
:102F10003DA1D1E90001FDF76FF922462B46FDF7EF
:102F200023FB02460B4600204649FDF765F9224681
:102F300006460F462B4620462946FDF715FB02465E
:102F40000B4630463946FDF70FFB31A3D3E900238A
:102F5000FDF70AFB02460B46DDE90201FDF74CF9DD
:102F600002460B4606460F4640464946FDF746F9DF
:102F7000002004460D4642464B46AFE502460B464E
:102F8000FFF7D5BBDDE9020123A3D3E90023FDF759
:102F9000EBFA21A3D3E90023FDF7E6FAFFF715BB0F
:102FA000284B98453FF709AEDDE90023924693464A
:102FB00032E64FF0000BFFF72EBB9FED197B8DED36
:102FC000087B9FED197B8DED107B9FED197B4FF4F6
:102FD00080288DED067BFFF7FFBB584643EC102B96
:102FE00000F0A2F951EC100BC8E602F00102C2F1A8
:102FF000020BFFF704BB00BF000000604715F73F5E
:1030000044DF5DF80BAE543E555555555555D53FEB
:10301000FE822B654715F73F9C7500883CE4377EA0
:103020000000004003B8E23F06D0CF43EBFD4C3E2A
:10303000000000000000F83FFEFFEF3F0000F03FFF
:103040000000D03F0000E03F2DE9F041624A57EC1C
:10305000106BBA4300F09580002F3B4610EE101A1B
:10306000344654DD3F1500F0AF80C3F31303A7F2DD
:10307000FF3743F48013E20FF90702EB43034FEAF3
:10308000440503D5ED0F05EB4303A50000267F1093
:10309000B44616224FF400110CEB010098424FEA9F
:1030A000D5744FEA450503DC1B1A00EB010C0E44F6
:1030B000013A04EB43034FEA5101EDD11046964625
:1030C00020244FF0004209E052D05B00013C03EBAA
:1030D000D5734FEA52024FEA450536D0634502EBFD
:1030E0000E01F1DD002901EB020E0ADBE046A3EB45
:1030F0000C03A94288BF03F1FF336D1A1044C44684
:10310000E3E7BEF1000FF1DB0CF10108EFE727F078
:10311000004232432AD0002F49D1CA0A153B490543
:10312000002AFAD012F4801001D050E0204652005C
:10313000D50200F10104F9D5C4F1200501FA04F427
:10314000E9401F1A41EA02038FE72B4329D14408C3
:103150007110F30701F17F5101F5001148BF44F0F0
:10316000004401EB0753224643EC102BBDE8F081ED
:10317000A942AAD8002901EB020EC2DB984600231F
:10318000BBE710EE102A3B4610EE100A3946FDF759
:10319000EBF932463B46FDF731F841EC100BBDE848
:1031A000F081421C16BF421C01365408D0E710EED5
:1031B000102A30463946FDF71FF802460B46FDF748
:1031C000FDFA41EC100BD1E71A463B46AAE70C4644
:1031D00020254FF0FF30B3E70000F07F51EC100BDB
:1031E00010EE102A21F0004343EC102B704700BF73
:1031F00010EE903A43F0004000F58010C00F704789
:1032000000207047000000009FED010B704700BFD9
:10321000000000000000F87FF0B551EC100BC1F386
:103220000A55A5F2FF32132A83B00B464FEAD17636
:1032300010EE104A2FDC002A4ADB394D154101EA15
:103240000507074323D06D0829400C430CD04FF4E9
:103250008021132A23EA050541FA02F343EA050314
:103260000CBF4FF0004400242E4A02EBC606204655
:10327000D6E90045024629462046FCF7BFFFCDE9C6
:10328000000122462B46DDE90001FCF7B5FF41ECC9
:10329000100B03B0F0BD332A07DDB2F5806FF6D115
:1032A00010EE102AFCF7AAFFF1E7A5F213454FF044
:1032B000FF32EA401042EAD052081042D4D04FF018
:1032C000804124EA020241FA05F542EA0504CBE70F
:1032D00021F000420243DAD0C1F313020243544208
:1032E000104D1443240B05EBC6004F0C04F40021D1
:1032F000D0E900457F0410EE102A41EA070320467A
:103300002946FCF77BFFCDE900012B462246DDE98B
:103310000001FCF771FF21F0004343EAC671B6E7F4
:10332000FFFF0F009035000838B553EC102BC3F3A6
:103330000A511C46054629BB10EE101A23F0004422
:1033400021431ED019460022394B3A4C10EE100A88
:10335000FDF70AF9A54202460B4636DB0C46C1F3DF
:103360000A513639294440F2FE70814235DC002989
:1033700014DD24F0FF4424F4E00444EA015343EC58
:10338000102B38BD40F2FF708142EBD110EE100AD5
:103390001946FCF733FF41EC100B38BD11F1350F26
:1033A0001EDA4CF250318D4243EC112B28DD9FED9B
:1033B0001C0B00F043F81AA3D3E9002351EC100BC7
:1033C000FDF7D2F841EC100B38BD17A3D3E9002369
:1033D000FDF7CAF841EC100B38BD43EC112BE6E7C2
:1033E00024F0FF4424F4E004363144EA015310464B
:1033F00019460022104BFDF7B7F841EC100B38BD11
:103400009FED090B00F01AF807A3D3E9002351EC54
:10341000100BFDF7A9F841EC100B38BDAFF300809D
:103420009C7500883CE4377E59F3F8C21F6EA501F5
:1034300000005043B03CFFFF0000903C53EC102BC9
:1034400011EE900A23F0004100F0004041EA000331
:1034500043EC102B704700BF1FB5084B6946186836
:1034600000F040F8431C06D0DDE900031844029B3D
:103470001844039B184405B05DF804FB10000020BD
:10348000014B1868704700BF1000002070B50D4E4A
:103490000D4CA41BA4100025A54209D10B4E0C4CC9
:1034A00000F02CF8A41BA4100025A54205D170BD86
:1034B00056F8253098470135EEE756F825309847FD
:1034C0000135F2E7A8350008A8350008A83500083E
:1034D000AC35000802440346934200D1704703F81C
:1034E000011BF9E7084600F001B80000024B582222
:1034F0001A604FF0FF30704794000020F8B500BF0D
:10350000F8BC08BC9E467047F8B500BFF8BC08BCC4
:043510009E4670471C
:103518000000000000000000000000000000F03F74
:10352800000000000000004000000000000008400B
:1035380000000000000010400000000000001440DF
:1035480000000000000018400000000000001C40BF
:10355800000000000000000001020304060708093B
:103568000000000001020304666D6F6400000000A3
:103578006C6F6700706F77000000000000000000AB
:103588000000000000000080000000000000304340
:0835980000000000000030C338
:0835A000A8D5FF7F0100000027
:0435A800D501000841
:0435AC00B101000861
:1035B00001000000100000000024F40001000000E1
:1035C00014000020000000000000000000000000C7
:1035D00000000000000000000000000000000000EB
:1035E00000000000000000000000000000000000DB
:1035F00000000000000000000000000000000000CB
:1036000000000000000000000000000000000000BA
:1036100000000000000000000000000000000000AA
:0436200000000000A6
:0400000508001A31A4
:00000001FF
