:020000040800F2
:1000000000000320851D0008011D0008031D0008D5
:10001000051D0008071D0008091D0008000000005C
:100020000000000000000000000000000B1D0008A0
:100030000D1D0008000000000F1D0008111D000824
:10004000D51D0008D51D0008D51D0008D51D0008C8
:10005000D51D0008D51D0008D51D0008D51D0008B8
:10006000D51D0008D51D0008D51D0008D51D0008A8
:10007000D51D0008D51D0008D51D0008D51D000898
:10008000D51D0008D51D0008191D0008D51D000844
:10009000D51D0008D51D0008D51D0008D51D000878
:1000A000D51D0008D51D0008D51D0008D51D000868
:1000B000D51D0008D51D0008D51D0008D51D000858
:1000C000D51D0008D51D0008D51D0008D51D000848
:1000D000D51D0008D51D0008D51D0008D51D000838
:1000E000D51D0008D51D0008D51D0008D51D000828
:1000F000D51D0008D51D0008D51D0008D51D000818
:10010000D51D0008D51D0008D51D0008D51D000807
:10011000D51D0008D51D0008D51D0008D51D0008F7
:10012000291D0008D51D0008D51D0008D51D000893
:10013000D51D0008D51D0008D51D0008D51D0008D7
:10014000D51D0008D51D0008D51D0008D51D0008C7
:10015000D51D0008D51D0008D51D0008D51D0008B7
:10016000D51D0008D51D0008D51D0008D51D0008A7
:10017000D51D0008D51D0008D51D00080000000091
:10018000D51D0008D51D0008D51D0008D51D000887
:10019000D51D0008D51D0008D51D0008D51D000877
:0C01A000D51D0008D51D0008D51D000865
:1001AC0010B5054C237833B9044B13B10448AFF3A5
:1001BC0000800123237010BD0C0000200000000003
:1001CC00301E000808B5034B1BB103490348AFF3BD
:1001DC00008008BD0000000010000020301E000848
:1001EC0053B94AB9002908BF00281CBF4FF0FF3192
:1001FC004FF0FF3000F072B9ADF1080C6DE904CE90
:10020C0000F006F8DDF804E0DDE9022304B07047E5
:10021C002DE9F047089E04468846002B4BD18A42B4
:10022C00154667D9B2FA82F24AB1C2F1200701FA37
:10023C0002F320FA07F7954047EA030894404FEA87
:10024C00154E230CB8FBFEF71FFA85FC0EFB178826
:10025C0043EA084307FB0CF1994209D9EB1807F163
:10026C00FF3080F01B81994240F21881023F2B44F1
:10027C005B1AA4B2B3FBFEF00EFB103344EA03444A
:10028C0000FB0CFCA44509D92C1900F1FF3380F0BC
:10029C000781A44540F2048102382C4440EA07400F
:1002AC00A4EB0C0400271EB1D4400023C6E9004384
:1002BC003946BDE8F0878B4209D9002E00F0EB805F
:1002CC000027C6E9000138463946BDE8F087B3FA85
:1002DC0083F7002F47D18B4202D3824200F2FA807F
:1002EC00841A61EB030301209846002EE0D0C6E986
:1002FC000048DDE702B9FFDEB2FA82F2002A40F0D4
:10030C008F80491B4FEA154E1FFA85F80127B1FB68
:10031C00FEFC230C0EFB1C1143EA014308FB0CF101
:10032C00994207D9EB180CF1FF3002D2994200F236
:10033C00CD808446591AA3B2B1FBFEF00EFB10140B
:10034C0043EA044408FB00F8A04507D92C1900F136
:10035C00FF3302D2A04500F2B6801846A4EB080485
:10036C0040EA0C409FE7C7F1200CBB4022FA0CFE80
:10037C004EEA030E01FA07F420FA0CF521FA0CF3FD
:10038C004FEA1E482543B3FBF8F92C0C08FB193334
:10039C001FFA8EFA44EA034309FB0AF49C4202FA60
:1003AC0007F200FA07F10BD91EEB030309F1FF303A
:1003BC0080F087809C4240F28480A9F1020973444A
:1003CC001B1BADB2B3FBF8F008FB103345EA03443A
:1003DC0000FB0AFAA24508D91EEB040400F1FF3316
:1003EC006BD2A24569D90238744440EA0940A0FB9B
:1003FC000289A4EB0A044C45C2464B4654D351D057
:10040C00002E69D0B1EB0A0564EB030404FA0CFC72
:10041C00FD40FC404CEA0505C6E90054002747E7BF
:10042C00C2F1200320FA03F7954001FA02F021FAF9
:10043C0003F34FEA154E3843010CB3FBFEF71FFADA
:10044C0085F80EFB173341EA034107FB08F38B4297
:10045C0004FA02F407D9691807F1FF3C2FD28B423A
:10046C002DD9023F2944CB1A81B2B3FBFEF00EFB0F
:10047C00103341EA034100FB08F38B4207D969189A
:10048C0000F1FF3C17D28B4215D902382944C91A06
:10049C0040EA07473BE73746304609E70746E7E6B9
:1004AC001846FBE64145ABD2B8EB020A69EB0E02EB
:1004BC0001381346A4E76046E9E7184695E7674616
:1004CC00D1E781467CE702382C4447E7ACF1020CBB
:1004DC002B442FE7384608E73746E9E6704700BF5C
:1004EC0010B504460E4B18784FF47A73B3FBF0F347
:1004FC000C4A1068B0FBF3F000F02CFC68B90F2C20
:10050C0001D901200AE0002221464FF0FF3000F013
:10051C00E1FB034B5C60002000E0012010BD00BF3C
:10052C00000000200800002008B50B4B1A6842F4AC
:10053C0000721A601A6842F480621A601A6842F4F7
:10054C0080721A60032000F0B3FB0020FFF7C8FF95
:10055C0001F05CFB002008BD003C0240034A11681E
:10056C00034B1B780B441360704700BF280000201E
:10057C0000000020014B1868704700BF28000020C5
:10058C00494B5A6822F440325A605A6841680A430F
:10059C005A600268536823F480735360026853688E
:1005AC00016943EA012353600268536823F04073E6
:1005BC0053600268536881680B4353600268936808
:1005CC0023F40063936002689368C1680B439360E3
:1005DC00826A364B9A4249D00268936823F0706362
:1005EC00936002689368816A0B4393600268936816
:1005FC0023F04053936002689368C16A0B43936085
:10060C000268936823F0020393600268936881691F
:10061C0043EA41039360036A002B32D102685368AA
:10062C0023F4006353600268D36A23F47003D3622B
:10063C000168CB6AC269013A43EA0253CB62026891
:10064C00936823F40073936002689368016B43EA28
:10065C00412393600268936823F48063936002687B
:10066C009368416943EA81239360704702689368F9
:10067C0023F0706393600268936823F04053936097
:10068C00BEE70268536843F4006353600268536822
:10069C0023F46043536001684B68426A013A43EAB1
:1006AC0042334B60BFE700BF002301400100000F45
:1006BC0030B310B50446036C43B1236C13F0100F28
:1006CC000AD00120002384F83C3010BD436480F82C
:1006DC003C3001F0B7FAF0E7236C23F4885323F095
:1006EC00020343F0020323642046FFF749FF002076
:1006FC006064236C23F0030343F001032364E1E7FC
:10070C000120704782B00023019390F83C30012BFC
:10071C0063D0012380F83C3003689A6812F0010F13
:10072C0013D19A6842F001029A60304B1B68304A30
:10073C00A2FB03239B0C03EB4303019302E0019BFD
:10074C00013B0193019B002BF9D10268936813F0D4
:10075C00010F44D0036C23F4E06323F0010343F452
:10076C0080730364536813F4806F05D0036C23F417
:10077C00405343F480530364036C13F4805F19D02B
:10078C00436C23F006034364002380F83C306FF085
:10079C0022031360174B5B6813F01F0F0DD1036816
:1007AC009A6812F0405F1DD19A6842F080429A60BC
:1007BC00002015E000234364E6E703680E4A9342E9
:1007CC0001D000200CE09A6812F0405F0CD19A68BE
:1007DC0042F080429A60002002E0022000E00020FB
:1007EC0002B070470020FBE70020F9E7080000206A
:1007FC0083DE1B43002301400020014030B583B051
:10080C000023019390F83C30012B00F081800123F0
:10081C0080F83C300468A36813F0010F13D1A3686F
:10082C0043F00103A3603F4B1C683F4BA3FB043414
:10083C00A40C04EB4404019402E0019C013C0194DF
:10084C00019C002CF9D103689C6814F0010F61D055
:10085C00046C24F4E06424F0010444F48074046413
:10086C005B6813F4806F05D0036C23F4405343F49E
:10087C0080530364036C13F4805F36D0436C23F015
:10088C000603436413460446002280F83C20826B26
:10089C002648D063A26B26481064A26B2548D0640E
:1008AC0022686FF0220010602568686840F0806054
:1008BC0068602568A86840F48070A86020680A46C3
:1008CC0000F14C01A06B00F069FB1B4B5B6813F053
:1008DC001F0F0DD123689A6812F0405F1DD19A68E2
:1008EC0042F080429A60002015E000234364C9E77F
:1008FC002368124A934201D000200CE09A6812F04F
:10090C00405F0CD19A6842F080429A60002002E06D
:10091C00022000E0002003B030BD0020FBE70020E7
:10092C00F9E700BF0800002083DE1B434D090008D7
:10093C00B10900080D0B0008002301400020014004
:10094C0008B5836B1A6C12F0500F03D09B6BDB6CE9
:10095C00984708BD1A6C42F400721A641A689168C0
:10096C0011F0405F19D19969B9B9D16A11F4700FBE
:10097C0003D0916811F4806F0FD1516821F02001E0
:10098C0051601A6C22F480721A641A6C12F4805F33
:10099C0003D11A6C42F001021A64184601F0BCF83B
:1009AC00D7E7704708B5806BFFF7FBFF08BD7047B2
:1009BC00704738B5044602681168536811F0020F8D
:1009CC002FD003F0200363B3036C13F0100F03D18B
:1009DC00036C43F400730364936813F0405F19D104
:1009EC00A369BBB9D36A13F4700F03D0936813F4E3
:1009FC00806F0FD1536823F020035360236C23F4D2
:100A0C0080732364236C13F4805F03D1236C43F055
:100A1C0001032364204601F07FF823686FF0120273
:100A2C001A60236819685A6802F0800211F0040FEA
:100A3C0036D0002A34D0226C12F0100F03D1226C65
:100A4C0042F4005222649A6812F4401F21D19A6B2E
:100A5C0012F4401F03D09A6812F4806F19D15A68AF
:100A6C0012F4806F15D19A6812F0405F11D1A2690F
:100A7C007AB95A6822F080025A60236C23F48053AE
:100A8C002364236C13F4807F03D1236C43F00103A4
:100A9C002364204600F00AF923686FF00C021A60F8
:100AAC0022681168536803F0400311F0010F04D061
:100ABC001BB1136813F0010F09D122681168536838
:100ACC0003F0806311F0200F00D063B938BD236CA4
:100ADC0043F4803323642046FFF769FF23686FF0EB
:100AEC0001021A60E9E7636C43F0020363646FF080
:100AFC00200515602046FFF75BFF23681D60E5E7C6
:100B0C0008B5806B40230364436C43F004034364D7
:100B1C00FFF74EFF08BD000030B482B000230193F4
:100B2C0090F83C30012B00F0B580012380F83C306C
:100B3C000B68092B3ED90568EA689BB203EB4303AB
:100B4C001E3B072404FA03F322EA0303EB60056857
:100B5C00EA688C680B8803EB43031E3B04FA03F32F
:100B6C001343EB604B68062B3AD805686A6B03EBB2
:100B7C008303053B1F2404FA03F322EA03036B638C
:100B8C0005686A6B4B6803EB8303053B0C8804FA1E
:100B9C0003F313436B6302683F4B9A4250D00268D5
:100BAC003D4B9A4255D0002380F83C30184602B099
:100BBC0030BC704705682A699BB203EB43030724DA
:100BCC0004FA03F322EA03032B6105682A698C6893
:100BDC000B8803EB430304FA03F313432B61C1E7C4
:100BEC000C2B16D805682A6B03EB8303233B1F24BD
:100BFC0004FA03F322EA03032B6305682A6B4B68A0
:100C0C0003EB8303233B0C8804FA03F313432B639A
:100C1C00C1E70568EA6A03EB8303413B1F2404FA2E
:100C2C0003F322EA0303EB620568EA6A4B6803EB01
:100C3C008303413B0C8804FA03F31343EB62AAE7EA
:100C4C000B68122BABD1154A536843F480035360E5
:100C5C00A5E70B68124A934201D0112BA3D10F4A7E
:100C6C00536843F4000353600A680D4B9A429AD1BF
:100C7C000C4B1B680C4AA2FB03239B0C03EB83035A
:100C8C005A00019202E0019B013B0193019B002B56
:100C9C00F9D188E702208AE70020014000230140B7
:100CAC00120000100800002083DE1B437047000078
:100CBC00074AD36823F4E0631B041B0C000200F406
:100CCC00E060184340F0BF6040F40030D0607047E3
:100CDC0000ED00E030B4174BDB68C3F30223C3F123
:100CEC000704042C28BF04241D1D062D18D9033B12
:100CFC004FF0FF3505FA04F421EA0401994005FA96
:100D0C0003F322EA0303194300280BDB0901C9B2E0
:100D1C0000F1604000F5614080F8001330BC704772
:100D2C000023E5E700F00F000901C9B2024B19548A
:100D3C00F4E700BF00ED00E014ED00E000F01F024E
:100D4C00400901239340024A42F82030704700BF0B
:100D5C0000E100E00138B0F1807F0AD2064B586008
:100D6C00064AF02182F823100020986007221A60AE
:100D7C0070470120704700BF10E000E000ED00E07C
:100D8C0030B405682C6824F480242C6004686360FB
:100D9C008368402B05D0036899600368DA6030BC27
:100DAC00704703689A600368D960F8E70268D3B2A9
:100DBC00103B0B49A1FB03131B090A49C95CC16514
:100DCC00032B06D822F47F7222F003028265806D19
:100DDC00704722F47F7222F0030204328265F6E738
:100DEC00ABAAAAAA481E0008836A826992B9012B91
:100DFC000AD01BB1022B01D000207047C36A13F03C
:100E0C00807F2CD100207047C36AB3F1C07F28D0FB
:100E1C0000207047B2F5005F05D0022B29D9032BB7
:100E2C0015D000207047032B03D8DFE803F01C0417
:100E3C001C0A00207047C36A13F0807F15D1002074
:100E4C007047C36AB3F1C07F11D000207047C36AEA
:100E5C0013F0807F01D001207047002070470120E3
:100E6C007047012070470120704701207047012016
:100E7C00704701207047000070B50446FFF77AFBFD
:100E8C00002C5BD00546002384F83430022384F810
:100E9C0035302268136823F00103136023681A6845
:100EAC0012F0010F0AD0FFF765FB401B0528F5D99E
:100EBC0020236365032084F8350070BD1A68204830
:100ECC0010406168A2680A43E1680A4321690A4339
:100EDC0061690A43A1690A43E1690A43216A0A4329
:100EEC000243616A04291ED01A602668756925F0D0
:100EFC000705636A1D43042B07D1A36A1D43E36AEC
:100F0C001BB12046FFF770FF90B975612046FFF7C3
:100F1C004DFFE26D3F239340836000206065012309
:100F2C0084F83530C9E7E16A206B01430A43DBE7FB
:100F3C0040236365012084F83500BEE70120BCE73F
:100F4C003F8010F030B338B5044690F83530DBB242
:100F5C00022B21D00268136823F00103136003688D
:100F6C0000251D6003685D6003689D600368DD609B
:100F7C0003681D61036821225A61FFF717FFE26DB8
:100F8C003F2393408360656584F8355084F8345072
:100F9C00284638BD012070470220FAE738B5856D28
:100FAC0090F83440012C31D0012480F8344090F872
:100FBC003540E4B2012C04D0002380F834300220F8
:100FCC0038BD0446022084F83500002060652046B8
:100FDC00FFF7D6FEE26D3F239340AB6022681368A7
:100FEC0043F0160313602268536943F08003536186
:100FFC00236C23B12268136843F008031360226842
:10100C00136843F0010313600020D9E70220D7E7EF
:10101C00F0B583B0044600230193724B1D68724BEC
:10102C00A3FB0535AD0A876D3E68C26D082393405E
:10103C00334210D003681A6812F0040F0BD01A68F0
:10104C0022F004021A60C26D08239340BB60436D0A
:10105C0043F001034365E26D01239340334209D011
:10106C002268526912F0800F04D0BB60636D43F0AC
:10107C0002036365E26D04239340334209D0226876
:10108C00126812F0020F04D0BB60636D43F00403CE
:10109C006365E26D10239340334224D022681268BA
:1010AC0012F0080F1FD0BB6023681A6812F4802F4F
:1010BC000DD01B6813F4002F04D1236C9BB1204678
:1010CC00984710E0A36C73B1204698470BE01A6860
:1010DC0012F4807F03D11A6822F008021A60236C84
:1010EC000BB120469847E26D20239340334255D0F4
:1010FC002268126812F0100F50D0BB6094F8353093
:10110C00DBB2052B0ED023681A6812F4802F33D073
:10111C001B6813F4002F2AD1636C002B3ED02046A1
:10112C0098473BE02268136823F01603136022688B
:10113C00536923F080035361236CA3B122681368B5
:10114C0023F008031360E26D3F239340BB60002340
:10115C0084F83430012384F83530236D002B3FD0D4
:10116C00204698473CE0A36C002BE7D1EBE7E36B00
:10117C00A3B12046984711E01A6812F4807F09D178
:10118C001A6822F010021A60002384F8343001230C
:10119C0084F83530E36B0BB120469847636DFBB197
:1011AC00636D13F0010F17D0052384F835302268D6
:1011BC00136823F001031360019B01330193AB42CD
:1011CC0004D823681B6813F0010FF5D1002384F8B1
:1011DC003430012384F83530E36C0BB1204698474A
:1011EC0003B0F0BD08000020B5814E1B00230F2B6F
:1011FC0000F2E380F0B482B039E0092200E0002272
:10120C00B2403A4302346D4E46F824206C4A1468BE
:10121C00EA4302EA04064F6817F4803F01D045EA1E
:10122C000406674C2660646802EA04064F6817F4EB
:10123C00003F01D045EA0406614C6660A46802EAEE
:10124C0004064F6817F4801F01D045EA04065C4C75
:10125C00A660E46822404E6816F4001F01D045EAEF
:10126C000402574CE26001330F2B00F2A3800122E1
:10127C009A400C6804EA0205AA42F4D14C68022C8C
:10128C0001D0122C10D1DE08083650F826C003F01D
:10129C000704A7000F24BC402CEA040C0C69BC40CA
:1012AC0044EA0C0440F8264004685F000326BE4064
:1012BC00F64306EA040C4C6804F00304BC4044EA10
:1012CC000C0404604C6804F1FF3CBCF1010F03D921
:1012DC00112C01D0122C10D1846806EA040CCC68B5
:1012EC00BC4044EA0C048460446824EA02024C6862
:1012FC00C4F300149C4014434460C26816408A68CE
:10130C00BA403243C2604A6812F0805FABD0002210
:10131C0001922C4A546C44F480445464526C02F490
:10132C0080420192019A9C08A61C244A52F826700D
:10133C0003F0030296000F22B24027EA0207224A6A
:10134C0090423FF45CAF02F58062904222D002F5ED
:10135C008062904220D002F5806290421ED002F54D
:10136C00806290421CD002F5806290421AD002F545
:10137C008062904218D002F58062904216D002F53D
:10138C008062904214D002F5806290423FF435AFF7
:10139C000A2235E7012233E7022231E703222FE745
:1013AC0004222DE705222BE7062229E7072227E74F
:1013BC00082225E702B0F0BC7047704700380140A6
:1013CC00003C0140003802400000024012B9090400
:1013DC008161704781617047436959404161704731
:1013EC00002800F0BB8170B582B00446036813F08E
:1013FC00010F3BD0A74B9B6803F00C03042B2CD0A4
:10140C00A44B9B6803F00C03082B21D06368B3F545
:10141C00803F4FD0B3F5A02F52D09E4B1A6822F4C8
:10142C0080321A601A6822F480221A606368002BDA
:10143C0050D0FFF79FF80546964B1B6813F4003FFE
:10144C0014D1FFF797F8401B6428F5D903208AE1E3
:10145C00904B5B6813F4800FD8D08E4B1B6813F441
:10146C00003F03D06368002B00F07A81236813F0EF
:10147C00020F55D0874B9B6813F00C0F3ED0854B59
:10148C009B6803F00C03082B33D0E368002B68D067
:10149C00814B01221A60FFF76DF805467D4B1B68E6
:1014AC0013F0020F54D1FFF765F8401B0228F5D951
:1014BC00032058E1774A136843F480331360B5E78F
:1014CC00744B1A6842F480221A601A6842F4803213
:1014DC001A60ABE7FFF74EF805466E4B1B6813F42A
:1014EC00003FC3D0FFF746F8401B6428F5D9032012
:1014FC0039E1684B5B6813F4800FC6D1654B1B68F0
:10150C0013F0020F04D0E368012B01D001202AE173
:10151C00604A136823F0F803216943EAC10313609E
:10152C00236813F0080F40D0636963B35B4B01224F
:10153C001A60FFF71FF80546564B5B6F13F0020F4E
:10154C0033D1FFF717F8401B0228F5D903200AE125
:10155C00504A136823F0F803216943EAC10313606E
:10156C00DEE74D4B00221A60FFF704F80546494BA5
:10157C001B6813F0020FD3D0FEF7FCFF401B0228B0
:10158C00F5D90320EFE0454B00221A60FEF7F2FF7D
:10159C000546404B5B6F13F0020F06D0FEF7EAFFD7
:1015AC00401B0228F5D90320DDE0236813F0040F5B
:1015BC0079D0384B1B6C13F0805F33D1002301932F
:1015CC00344B1A6C42F080521A641B6C03F080533B
:1015DC000193019B0125324B1B6813F4807F23D0B0
:1015EC00A368012B34D0052B38D02A4B1A6F22F06C
:1015FC0001021A671A6F22F004021A67A368002B03
:10160C0036D0FEF7B7FF0646224B1B6F13F0020FC6
:10161C0048D1FEF7AFFF801B41F288339842F3D9D3
:10162C000320A0E00025D6E71D4A136843F480731D
:10163C001360FEF79FFF0646194B1B6813F4807F5F
:10164C00CED1FEF797FF801B0228F5D903208AE044
:10165C00104A136F43F001031367CFE70D4B1A6F5A
:10166C0042F004021A671A6F42F001021A67C5E7CA
:10167C00FEF780FF0646074B1B6F13F0020F11D0CD
:10168C00FEF778FF801B41F288339842F3D9032090
:10169C0069E000BF0038024000004742800E47421C
:1016AC0000700040E5B9A369002B5BD0304A92680A
:1016BC0002F00C02082A58D0022B17D02D4B002216
:1016CC001A60FEF757FF0446294B1B6813F0007F86
:1016DC0042D0FEF74FFF001B0228F5D9032042E051
:1016EC00234A136C23F080531364DCE7214B002254
:1016FC001A60FEF73FFF05461D4B1B6813F0007F79
:10170C0006D0FEF737FF401B0228F5D903202AE04C
:10171C00E369226A1343626A43EA8213A26A52089B
:10172C00013A43EA0243E26A43EA0263104A536015
:10173C00104B01221A60FEF71DFF04460C4B1B6870
:10174C0013F0007F06D1FEF715FF001B0228F5D918
:10175C00032008E0002006E0002004E00120704790
:10176C00012000E0002002B070BD0120FBE700BFAB
:10177C000038024060004742324B9B6803F00C0378
:10178C00042B5CD0082B01D02F4870472DE9F04B6F
:10179C002C4B5A6802F03F025B6813F4800F2BD07D
:1017AC00284B5B68C3F388131E4600275C01002599
:1017BC00E41A65EB0705A90141EA9461A001001B3D
:1017CC0061EB0501CB0043EA5073C400A01943EB55
:1017DC0007014B0243EAD05344022046194600232A
:1017EC00FEF7FEFC174B5B68C3F3014301335B0050
:1017FC00B0FBF3F0BDE8F08B124B5B68C3F38813BE
:10180C001E4600275C010025E41A65EB0705A901BB
:10181C0041EA9461A001001B61EB0501CB0043EA96
:10182C005073C400A01943EB07018B0243EA905399
:10183C008402204619460023FEF7D2FCD2E7034867
:10184C00704700BF003802400024F40000127A00F8
:10185C00002800F09D8070B504464F4B1B6803F0C8
:10186C000F038B4209D2CBB24B4A1370136803F0AF
:10187C000F038B4201D0012070BD236813F0020FBF
:10188C0017D013F0040F04D0444A936843F4E05388
:10189C009360236813F0080F04D0404A936843F414
:1018AC00604393603D4A936823F0F003A0680343C0
:1018BC0093600D46236813F0010F32D06368012B3F
:1018CC0021D09A1E012A25D9344A126812F0020F2F
:1018DC0060D032498A6822F0030213438B60FEF712
:1018EC0049FE06462D4B9B6803F00C036268B3EB74
:1018FC00820F16D0FEF73EFE801B41F288339842D1
:10190C00F0D90320B8E7254A126812F4003FE0D161
:10191C000120B1E7214A126812F0007FD9D10120D1
:10192C00AAE71D4B1B6803F00F03AB4209D9EAB2BF
:10193C00194B1A701B6803F00F03AB4201D0012046
:10194C009AE7236813F0040F06D0144A936823F423
:10195C00E053E1680B439360236813F0080F07D042
:10196C000E4A936823F46043216943EAC1039360F0
:10197C00FFF702FF094B9B68C3F30313084AD35CC0
:10198C00D840084B18600020FEF7AAFD002073E732
:10199C000120704701206FE7003C024000380240F4
:1019AC00501E00080800002030B589B000240394B4
:1019BC0004940594069407940194144B1A6B42F00A
:1019CC0001021A631A6B02F001020192019A02944D
:1019DC001A6B42F040021A631B6B03F04003029334
:1019EC00029B0B4D22464FF4C0412846FFF7EEFCFC
:1019FC004FF4C0430393012304930594069403A965
:101A0C002846FFF7F3FB09B030BD00BF0038024099
:101A1C000018024030B585B0002300930193029367
:101A2C0003930F4C0F4A226063604FF00072A26068
:101A3C0023610125A5612362E3620B4AA262E36084
:101A4C00E561256365612046FEF732FE0095019540
:101A5C000223029369462046FFF75EF805B030BDBD
:101A6C002C000020002001400100000F30B583B095
:101A7C00002501951B4B1A6B42F480021A631B6BF9
:101A8C0003F480030193019B174C2046FFF75AFA8D
:101A9C00164B23606560A560E5604FF4806323619D
:101AAC004FF4805363614FF48043A3614FF4807310
:101ABC00E3614FF40033236265620123A362E562A4
:101ACC0025632046FFF7D8F9094B9C63A3632A468C
:101ADC0029463820FFF7FEF83820FFF72FF903B01E
:101AEC0030BD00BF003802402C02002010640240C0
:101AFC002C00002008B5002211463820FFF7EAF828
:101B0C003820FFF71BF9002211461220FFF7E2F8EC
:101B1C001220FFF713F908BD08B54FF40051024825
:101B2C00FFF75AFC08BD00BF0018024030B595B055
:101B3C003022002108A800F06DF9002403940494CD
:101B4C0005940694079401941C4B1A6C42F0805235
:101B5C001A641B6C03F080530193019B0294184A86
:101B6C00136823F4404343F480431360136803F475
:101B7C0040430293029B0225089501230B931023EB
:101B8C000C930E950F9408231093402311931295E8
:101B9C000323139308A8FFF723FC0F230393049547
:101BAC0005944FF4805306934FF4C0530793294682
:101BBC0003A8FFF74DFE15B030BD00BF0038024042
:101BCC000070004008B5FEF7AFFCFFF7AFFFFFF762
:101BDC00EBFEFFF71FFFFFF749FFFFF78BFF074CEB
:101BEC002046FEF78FFD6E2205492046FEF706FEC5
:101BFC004FF480410348FFF7EFFBF9E72C0000207E
:101C0C0074000020001802407047000082B00021D0
:101C1C0000910B4B5A6C42F480425A645A6C02F499
:101C2C0080420092009A01911A6C42F080521A6420
:101C3C001B6C03F080530193019B02B0704700BFF3
:101C4C000038024030B589B0002303930493059308
:101C5C0006930793026803F1804303F590339A428D
:101C6C0001D009B030BD04460025019503F58C3335
:101C7C005A6C42F480725A645A6C02F4807201926B
:101C8C00019A02951A6B42F001021A631B6B03F066
:101C9C0001030293029B022303930323049303A9DE
:101CAC001148FFF7A3FA1148114B0360456085609A
:101CBC00C5604FF4806303614FF4006343614FF4DC
:101CCC00005383614FF48073C3614FF4003303629C
:101CDC004562FFF7D1F818B9044BA3639C63C0E7C6
:101CEC00FFF792FFF8E700BF000002402C02002033
:101CFC00106402407047FEE7FEE7FEE7FEE7704720
:101D0C007047704708B5FEF729FC08BD08B50248B6
:101D1C00FEF74FFE08BD00BF2C00002008B502489E
:101D2C00FFF776F908BD00BF2C0200200F49D1F84F
:101D3C00883043F47003C1F888300D4B1A6842F0B8
:101D4C0001021A60002098601A6822F0847222F452
:101D5C0080321A60074A5A601A6822F480221A608C
:101D6C00D8604FF000638B60704700BF00ED00E05F
:101D7C000038024010300024DFF834D0002103E09A
:101D8C000C4B5B58435004310B480C4B42189A4295
:101D9C00F6D30B4A02E0002342F8043B094B9A426B
:101DAC00F9D3FFF7C3FF00F011F8FFF70BFF7047F3
:101DBC0000000320781E0008000000200C0000200A
:101DCC000C0000208C020020FEE7000070B50D4EC8
:101DDC000D4CA41BA4100025A54209D10B4E0C4C94
:101DEC0000F020F8A41BA4100025A54205D170BD5D
:101DFC0056F8253098470135EEE756F825309847C8
:101E0C000135F2E7701E0008701E0008701E0008F5
:101E1C00741E000802440346934200D1704703F835
:101E2C00011BF9E7F8B500BFF8BC08BC9E4670472B
:0C1E3C00F8B500BFF8BC08BC9E4670471B
:101E48000006101600061016000000000000000032
:101E58000102030406070809000000000102030448
:081E6800B4E3FF7F010000005C
:041E7000D101000894
:041E7400AD010008B4
:0C1E780001000000100000000024F40035
:0400000508001D854D
:00000001FF
